:1040000000000420B1D200009DD200009DD200002B
:104010009DD200009DD200009DD200000000000053
:104020000000000000000000000000009DD2000021
:104030009DD20000000000009DD2000045D300008A
:104040009DD200009DD200009DD200009DD20000B4
:104050009DD200009DD200009DD200009DD20000A4
:104060009DD200009DD200009DD200009DD2000094
:104070009DD200009DD200009DD200009DD2000084
:104080009DD200009DD200009DD200009DD2000074
:104090009DD200009DD200009DD200009DD2000064
:1040A0009DD200009DD200009DD200009DD2000054
:1040B0009DD200009DD200009DD20000857D0000B1
:1040C000857D0000857D0000857D0000857D0000E8
:1040D0009DD200009DD200009DD200009DD2000024
:1040E0009DD200009DD200009DD200009DD2000014
:1040F000000000009DD20000D1D10000DDD1000001
:10410000E9D10000F5D100009DD200009DD2000051
:104110009DD200009DD200009DD200009DD20000E3
:104120009DD200009DD2000015730000597400005C
:104130009D750000E17600009DD200009DD2000038
:104140009DD200009DD200009DD200009DD20000B3
:104150009DD200009DD20000257800006979000002
:10416000AD7A0000F17B00009DD200009DD20000DE
:104170009DD200009DD20000000000000000000061
:10418000A1D2000069D3000079D3000059D3000008
:10419000000000009DD200009DD200009DD20000D2
:1041A0009DD200009DD200009DD200009DD2000053
:1041B0009DD200009DD200009DD200009DD2000043
:1041C0009DD200009DD200009DD200009DD2000033
:1041D0009DD200009DD200009DD200009DD2000023
:1041E0009DD200009DD200009DD200000DCE0000A7
:1041F0009DD20000000000009DD200009DD2000072
:104200009DD200009DD200009DD200009DD20000F2
:104210009DD200009DD200009DD200009DD20000E2
:104220009DD200009DD200009DD200009DD20000D2
:104230009DD200009DD200009DD200009DD20000C2
:104240009DD200009DD200009DD200009DD20000B2
:104250009DD200009DD200009DD200009DD20000A2
:104260009DD2000010B5054C237833B9044B13B12F
:104270000448AFF300800123237010BDE00200204A
:10428000000000000C77010008B5034B1BB1034987
:104290000348AFF3008008BD00000000E4020020E6
:1042A0000C77010010B5044610300AF0DFFE2046FE
:1042B00010BD00BF000000002DE9F843424CD4EDD2
:1042C000007A60EE277A054617EE900A14461E46DD
:1042D0000F460FF09FF836A3D3E9002380468946A6
:1042E0000FF080FB002848D033A3D3E900234046D9
:1042F00049460FF077FB40B3404631A3D3E9002392
:1043000049460FF06FFB8046002839D00823336000
:10431000A078002109F05AFBE078002109F056FB53
:104320002B68002B1EDC36D1032009F069F82078B9
:10433000012109F04BFB052009F062F820780021EB
:1043400009F044FB0020BDE8F883022333600146F6
:10435000A07809F03BFBE078012109F037FB2B68DE
:10436000002BE0DD32689B1A2B603B6813443B60F6
:104370006078012109F02AFBD6E701213160E7E7E7
:1043800004233360A078012109F020FBE078414646
:1043900009F01CFBC4E7326813442B603B689B1A8E
:1043A0003B606078002109F011FBBDE7AFF30080AE
:1043B000D318308D01D3683FD318308D01D3783FA7
:1043C000D318308D01D3883F3000002070B52DED1B
:1043D000028B044684B0002840F0B580B84802F053
:1043E000A7FD002840F08680B64B1B685A1C05D0FC
:1043F000002C71D104B0BDEC028B70BDB24D2B68A6
:10440000312B00F0C980002CF4D0B04EA3F11D0276
:10441000282A306840F2F681312B40F3CA80313BC4
:1044200003FB03F3313800FB10300028B8BF4042D3
:104430000EF0DEFF41EC100B0CF0F8FBA44B51EC3E
:10444000100B00220EF088FE0FF0ECFA28603368A3
:10445000DFEDA05AA3F1310206EE902AA0F131025D
:1044600007EE902A4042B8EEE66AF8EEE76A07EEF9
:10447000900AB8EEE77A07EE903AF8EEE77A76EE31
:10448000666A77EE677AF5EEC06A77EEA57AF1EEA6
:1044900010FAF5EEC07AD4BFB1EE667AB0EE667A65
:1044A000F1EE10FAD4BFB1EE676AB0EE676AB4EE0F
:1044B000467AF1EE10FA48BFB0EE467A87EE876A88
:1044C000854A864BC6EE877A82ED006AC3ED007A94
:1044D00004B0BDEC028B70BD082B00F29C81DFE8BC
:1044E00013F08100880033013A01900047009E00DC
:1044F000A000E0007249002202A802F0FDFC0024A6
:10450000F0231A462146BDF908000094BDF90A605F
:104510000AF084FD4FF4A07305460094214630460E
:104520001A460AF07BFD00B263282DB227DCAF2DBE
:104530006B4B5FDC4A2D56DC6A4A1A606A4B49F2C3
:10454000D4421A6056E7694803F024FE5D4B0246E8
:1045500066481A6003F02AFE5B4B024663481A6005
:1045600003F02AFE594B186038E7AF2D40F3F58071
:104570005B4B5F4A1A605F4B01221A703AE7DC28F6
:10458000F3DDAF2D564B40F30C815B4A1A60524B62
:104590004FF07E521A602DE74C4E306831283FF4C0
:1045A00029AF002C3FF426AFA0F11D02282A7FF688
:1045B00021AF313B03FB03F3313800FB10300028FF
:1045C000B8BF40420EF014FF41EC100B0CF02EFB74
:1045D0003F4953EC102B00200EF0BCFD0FF022FAE7
:1045E000286034E73E4B454A1A603C4B444A1A6007
:1045F00000E73B4B434A1A60384B4FF07E521A603B
:10460000F8E6374B404A1A60404B41494148012285
:104610001A7009F093FB374B00221A70EAE6304B10
:104620008AE72F4B3C4A1A603C4A2F4B49F2D4414F
:10463000186811600EF0DCFE394B00220FF06CF8A8
:104640000FF038FA9FED370A08EE100AA8EE080AB4
:10465000B5EE400AF1EE10FAF1EEC08A00F1D88012
:10466000314C32492B48FDEEE88AC4ED008A09F04E
:10467000C3FA18EE100A0EF0CDFE41EC100B022129
:10468000244809F05DFE2A49224809F0B5FA21685C
:1046900020480A2204B0BDEC028BBDE8704009F04E
:1046A0004FBC0F4B234A1A6023491A4809F046FBB6
:1046B00022482349234A012303600B60137099E6C3
:1046C0007408002064080020940B00200C0B0020CC
:1046D000008048400000C442E8090020E4090020AE
:1046E000680800205DA2FF0028000020000A0020CA
:1046F0004FB0FF00700800206F90FF00DD22FF0028
:10470000000080BF1FE0FF009768FF00100B002033
:10471000805B0100F01600201DE2FF002C0000204D
:104720000000494040C20DC9340000208C5B0100EC
:10473000985B010057A8FF00745B0100340A002059
:104740008C080020380A0020564B574A1A60574BF5
:10475000574A1A604EE6534B17E74A2D514CD5BFC6
:10476000544B554B554956495648236009F0E6FAD3
:104770002368504A93429BD020DD534A93423FF432
:104780004AAF3FF737AE484A9342E0D00CDD4F4A7C
:1047900093423FF431AF02F5FF7293423FF444AFCE
:1047A00028E64A2DD1DC3DE7A2F58F520E3A93421E
:1047B0003FF4E1AE04B0BDEC028B70BDA2F57F52B8
:1047C000934206D14249434B0120002208701A70DF
:1047D00010E609DCA2F58B423A3A93423FF405AF6A
:1047E00004B0BDEC028B70BD3B4A93423FF4CFAEA8
:1047F00002F58F520E3293423FF4A0AE04B0BDECEE
:10480000028B70BDA0F11D02282A3FF605AEF1E52E
:104810000CF0CAFA24E7234B2B4A1B6893423FF45F
:10482000FAAE3FF7E7AD2D4A93423FF4FDAE3FF7B6
:10483000E1ADA2F5FF7293423FF4DEAE3FF7DAAD91
:10484000A2F5EF52023A934281D03FF7D3ADA2F5E1
:104850008F520E3A93423FF48EAE3FF7CBADA2F5A6
:10486000FF6293423FF420AF3FF7C4ADA2F2FA5289
:1048700093423FF463AE3FF7BDADA2F58F520E3ABF
:1048800093423FF484AE3FF7B5ADA2F5DB42123A56
:1048900093423FF4AAAE02F58B423A3293427FF440
:1048A000A9ADB1E6680800203DC2FF00E80900207C
:1048B000000080BF57A8FF009768FF00745B0100ED
:1048C000805B0100F0160020DEC0AD0B1FE0FF0092
:1048D000100B0020700800206F90FF001DE2FF0009
:1048E0002DE9F04726212948294C08F04BFB29489F
:1048F000272108F047FB2768274B00226E2F1A70EC
:1049000014D02248254D6E2108F01AFC462121487A
:1049100008F016FC142008F081FD08F041FD6E231C
:104920002860236008F03CFD2768286030220021C1
:104930001B48164D174C0FF081F91A483022002100
:104940000FF07CF907F1050AC7F1AF09C7F1B40808
:10495000022600E001265146284608F0F1FB4946B0
:10496000204608F0EDFB642008F058FD3946284643
:1049700008F0E6FB4146204608F0E2FB642008F020
:104980004DFD012EE6D1BDE8F08700BFEC09002007
:1049900020080020F0090020040800201009002051
:1049A000CC080020980800202DE9F04F564ADFED92
:1049B000577A1668564B2DED028B0028DFED558A8D
:1049C000187014BF3C226E2283B008BFF0EE678AD5
:1049D00014BF782546259642019276D0002979D1D8
:1049E000002877D04C4BDFF83C91DFF83C81002267
:1049F00092469B46002433250EE00EF00BFD3EA3AD
:104A0000D3E900230EF05EFD41EC100B0CF028F80A
:104A10003D4B1E6853EC102B504659460EF09AFB46
:104A200000223E4B0EF04EFD0FF044F80346304698
:104A300008EE103A0EF0DCFC064618EE100A0F469F
:104A40000EF0E8FC02460B46504659460EF082FB3B
:104A500002460B46304639460EF034FD68EE287AA1
:104A6000064617EE900A0F460EF0D4FC02460B469F
:104A7000304639460EF070FB0FF01CF807EE900A36
:104A8000FDEEE77A484617EE906A17EE901A08F0A6
:104A900057FBC6F1B401404608F052FB042008F071
:104AA000BDFC20460EF0B6FC15A3D3E900230EF0A2
:104AB00053FB0EF0FFFF013D04469ED1184C124BF4
:104AC000019A1A6008F06CFC206003B0BDEC028B08
:104AD000BDE8F08F01991348114C08F031FB2946CD
:104AE000114808F02DFB142008F098FC08F058FC41
:104AF0002060E4E7AFF300801F85EB51B81E09404A
:104B00007B14AE47E17A943F200800200000DC428D
:104B100004080020000070420000F03F0000E03F69
:104B200010090020EC090020F00900202DE9F84FC1
:104B30002DED028BDFF864B1DFF874914D4E4E4DD0
:104B4000DFF850814D4F4FF0000A08F029FC99ED35
:104B5000008AD5ED007A336868EE277A044617EEAE
:104B6000900AE41A0EF056FC0B460246594650468F
:104B70000EF0D2FD0EF07EFFD8F8003003FB00F0FF
:104B800084421ED208F00CFC3D4BD5ED007A93ED2B
:104B9000008A3B6868EE277A044617EE900AE41A0A
:104BA0000EF038FC0B460246594650460EF0B4FD56
:104BB0000EF060FF334B1B6803FB00F08442C4D34C
:104BC00038E0314C314B207893F80080002108F018
:104BD000FDFE2F480368002B0BD0CCBF0123002320
:104BE000434506D02B4B2C49B0EE480A2246FFF72E
:104BF00063FB08F0D5FB306008F0D2FB204BD5ED0D
:104C0000007A93ED008A3B6868EE277A044617EE37
:104C1000900AE41A0EF0FEFB0B4602461F490020E4
:104C20000EF07AFD0EF026FF164B1B6803FB00F317
:104C30009C4219D31A4C1B4B20781D78002108F098
:104C4000C5FE19480368002B0BD0CCBF01230023FD
:104C5000AB4206D00B4B1549B0EE480A2246FFF78F
:104C60002BFB08F09DFB3860BDEC028B0120BDE8FA
:104C7000F88F00BF14090020300000201809002020
:104C80003C0A00204000002038000020410600209F
:104C9000500800203C000020840800200000F03F65
:104CA0004800002004000020080800208808002098
:104CB0001C090020000000002DE9F04F2DED028BB3
:104CC00085B00192F2B9BC4ADFF83CB3BB4BDFF8C8
:104CD0003CA3D2F8BC00D3F8BC40DBF80020DAF8E3
:104CE0000030B74902442344D1F8BC80CBF80020FF
:104CF000CAF80030B8F1000F1DDC05B0BDEC028B26
:104D0000BDE8F08FDFF804A3DFF8FCB2DAF800406A
:104D1000DBF80020002980EAE07801EB0403A8EB2F
:104D2000E078B8BF494202448845CBF80020CAF871
:104D30000030DFDA884682EAE271A1EBE27106EE2A
:104D4000901A83EAE371A1EBE37107EE101A07EE04
:104D5000908AF8EEE66AF8EEE77AB8EEC77A86EE61
:104D6000A76A9849984D0968984F994C9948C1F19C
:104D70003001D20F55F82110974D3960D90FC7EE89
:104D8000276A2A700A4695490A70DFED958A84EDF4
:104D9000006AC0ED006A1C4624B1904B1B78B3EB4F
:104DA000D47F0AD0DBF80030002B00F08C808A4AD8
:104DB0001278B2EBD37F40F08680019B5BBB864BC1
:104DC0001B78002B40D064424FF0FF32DBF80030FC
:104DD000844E854903FB02F39C42B8BF1C463B68E6
:104DE00032780C60A8EB0408A3EB08033B602AB1FF
:104DF0007E4A7F497F4B116000221A707E4D08F079
:104E0000CFFA2B68C01A4A2820D8A046FFF78EFE9A
:104E1000DAF80040C0E7784C08F0C2FA2368C01AFC
:104E20004A28F3D908F0BCFA6E4E08F0B9FA6F4A76
:104E3000724BC2ED008A3578206000221A70002D76
:104E4000E4D000233370E1E70122BFE708F0A8FABD
:104E50002B68C31A039308F0A3FA664B28601B78EB
:104E6000002B3AD0614B029393ED008A644A0023F1
:104E700018EE100A13700EF0CDFA35788046894688
:104E8000002D40F0848003980EF0A2FA42A3D3E9EB
:104E900000230EF017FB42464B460EF05DF9002250
:104EA0004FF07E53804689460EF09CFD00286BD162
:104EB000404649460EF0FEFD029A504B106000221B
:104EC000A0461A70BBE74F4A002313604C4A137088
:104ED00005B0BDEC028BBDE8F08F444B029393ED1F
:104EE000008A68EE087A17EE900A0EF093FA2CA367
:104EF000D3E900230EF02EF98046386889460EF07B
:104F000077FA25A3D3E900230EF0DCFA02460B461C
:104F10000EF022F902460B46404649460EF062FD6D
:104F20000028A3D0354A01231370354A18EE100A21
:104F300013700EF06FFA1CA3D3E900238046894654
:104F40000EF050FD3578002862D1002D78D10398FD
:104F50000EF03EFA10A3D3E900230EF0B3FA424656
:104F60004B460EF0F9F800224FF07E5380468946FA
:104F70000EF038FD002860D1404649460EF09AFDFB
:104F8000029BA04618605AE74FF0705094E708A1C2
:104F9000D1E900017FE700BF4F3A964CAE3C593E45
:104FA000D64EB46EF796923E2447348D0E3F413F65
:104FB000550CC0411C93BD3E20090020400A002032
:104FC00044060020FC020020400700203C0700208F
:104FD0001C0900203C0A002041060020040000209B
:104FE0006F12033BFD080020F40900203000002070
:104FF00074F8093AC908002010090020610800204F
:10500000900800206C0800205008002008080020AC
:10501000D5B903980EF0DCF90DA3D3E900230EF007
:1050200051FA02460B46404649460EF093F80EF000
:1050300041FD029BA046186001E74FF070509FE7CA
:1050400005A1D1E900018AE703A3D3E90023EAE738
:105050004F3A964CAE3C593E550CC0411C93BD3E58
:105060002DE9F84F55EC104B2DED028B10EE100A88
:105070002946002200235BEC11AB0EF0B3FC0028A4
:1050800000F0838026462F460022002350465946D2
:105090000EF0A8FC002800F08F80D046D94642468A
:1050A0004B46304639460EF07FFC00283BD049EC99
:1050B000188B42464B46304639460EF093FC08B1F9
:1050C00046464F4653EC182B304639460EF024FB2B
:1050D0000022002306460F46204629460EF082FC99
:1050E00000220023002854D0504659460EF07AFC86
:1050F000E0B152465B46204629460EF073FC00287C
:1051000040F08A807E4B0022304639460EF0DAF9B4
:1051100073A3D3E900230EF0D5F941EC100BBDECDD
:10512000028BBDE8F88F47EC186BC2E70022002322
:10513000504659460EF02EFC002840F0AD805046F7
:105140000BF1004122462B460EF02EFC002800F009
:10515000A6806B4B0022304639460EF0B3F902466A
:105160000B46002067490DF0F5FF5DA3D3E900234E
:105170000EF0A8F95AA3D3E900230DF0EDFFBDEC22
:10518000028B41EC100BBDE8F88F264605F1004775
:105190007AE7204629460EF0FDFB88B15046594675
:1051A000002200230EF01EFC002872D0BDEC028B02
:1051B0009FED4D0BBDE8F88FD0460BF100496EE72F
:1051C00000220023504659460EF00CFC00283AD02D
:1051D000204605F1004152465B460EF003FC0028D4
:1051E00064D0474B0022304639460EF06BF9024638
:1051F0000B46002043490DF0ADFF39A3D3E900234E
:105200000EF060F9BDEC028B01F1004300EE100AD4
:1052100000EE903ABDE8F88F394B0022304639460F
:105220000EF050F902460B46002036490DF092FF71
:105230002BA3D3E900230EF045F9BDEC028B41EC22
:10524000100BBDE8F88F00220023504659460EF09F
:10525000A1FB00283ED152465B46204629460EF06F
:10526000A3FB50BB264B3046394600220EF02AF9EC
:105270001BA3D3E900230EF025F919A3D3E90023DA
:105280000DF06AFF01F1004300EE100A00EE903AC3
:1052900045E79FED170B42E79FED110B3FE7184BDA
:1052A0003046394600220EF00DF95EE7144B3046C9
:1052B000394600220EF006F99FE7114B3046394679
:1052C00000220EF0FFF802460B4600200D490DF0BB
:1052D00041FFCDE79FED080B21E700BFAFF3008052
:1052E000182D4454FB21F93F00000000000000008D
:1052F000182D4454FB210940182D4454FB21F9BFBB
:105300000000E03F0000F03F2DE9F04F1446C64A90
:1053100000252DED048B1560C44A1570C44A8BB06E
:105320001570C44A9DF860A00793CDE9020115707D
:10533000002B6BD0C04BDFF84C93DFF81883BF4FC6
:10534000DFF80CB3BE4E1946181DBC220EF05CFCF3
:105350004946BC2209F104000EF056FC41462F22BA
:1053600008F101000EF050FC39462F22781C0EF097
:105370004BFC59464FF4BC720BF108000EF044FC94
:10538000B049BC22081D0EF03FFC3146BC22301D46
:105390000EF03AFCAC494FF4BC7201F108000EF07B
:1053A00033FC029AA44B03981A601346034388F80F
:1053B0000040C9F8000087F800A03560144610D0FE
:1053C0000EF016F841EC180B20460EF011F8B0EE76
:1053D000481AF0EE681A41EC100BFFF741FE8BED16
:1053E000000B0299039A9748984B0029B8BF49428D
:1053F000002AB8BF52429142B8BF11460122016053
:105400001A700BB0BDEC048BBDE8F08FDFF828926A
:10541000DFF87082894E8E4F894D4946BC2209F1D2
:1054200004000EF0F1FB4146BC2208F104000EF02E
:10543000EBFB88492F22481C0EF0E6FB31462F2259
:10544000701C0EF0E1FB39464FF4BC7207F1080006
:105450000EF0DAFB7B49BC22081D0EF0D5FB294675
:10546000BC22281D0EF0D0FB77494FF4BC7201F12D
:1054700008000EF0C9FB029B039A7649C9F8003078
:105480000C700799C8F800201C46134386F800A04A
:10549000296040F01181029B03996A4A6E4E002BED
:1054A000B8BF5B420029B8BF49428B42D7E900AB85
:1054B000B8BF0B46644F13604FF000084FF000096F
:1054C00050465946F6E802AB52465B460DF042FEA6
:1054D00042464B4604460D460EF084FA28B905F1C3
:1054E000004300940193DDE900455C4BB342E7E8DB
:1054F0000245E5D15A4B5B4A196812685A4B04922F
:105500005A4A5B4E92ED008A5A4ADFF87CB1099103
:1055100093ED007B00208A46CDF800B0CDF820B096
:105520001268DFED558A079906900546804605907A
:105530002E24B346B0EE479AF0EE679A3FE001237F
:1055400005939946404B03EBC403D3E900010EF0E9
:10555000B1FA08EE100A0DF05DFF2DA3D3E9002388
:1055600006460F460EF03EFA50B132463B462AA19F
:10557000D1E900010DF0EEFD0EF09CFA08EE100AE4
:1055800078EE888A18EE900A0DF044FF24A3D3E940
:1055900000230EF027FA002878D12E4B1B5D002B3C
:1055A00040F0868098464BF8045D002C00F0E880BF
:1055B000013C0121B9F1000F40F091802A46534689
:1055C000C4F12F0AB8F1000F40F0C180009A52F8E0
:1055D000043D04931D44284600920DF009FF274B1B
:1055E00006460F46002251EC190B0DF0B5FD244B79
:1055F00000220DF067FF02460B46304639460EF09A
:10560000F1F900289BD1C1469CE700BFAFF30080B1
:10561000182D4454FB210940182D4454FB211940F6
:105620005069EB31C728DE3F3C070020FE08002010
:10563000C908002060080020200900200807002079
:10564000400700204406002000030020FD08002041
:105650008804002010060020900400200806002086
:10566000FC020020F8090020000900209408002016
:1056700000080020FC090020000000000000F03FAE
:1056800000004940400A002004070020B9F1000F43
:1056900089D14C4B069A1B5D002B18BF1A46134646
:1056A0004FF001080693CDF814804FF000097AE717
:1056B000B9F1000FF4D076E710460DF099FE41ECF9
:1056C000180B20460DF094FEB0EE481AF0EE681A62
:1056D00041EC100BFFF7C4FC87ED000BDBE6059BEC
:1056E000DDF820B01BB1384B4FF001021A70B8F151
:1056F000000F02D0354A01231370354B049A1A600B
:10570000344B83ED008A069B13B1334A0123137097
:10571000324B1D60324BC3F800A0324A0023BAF16D
:10572000010F136009DD304AA2EB8A0A5BF8042DF1
:10573000DA451344FAD12B4A1360DDE90201002255
:105740000BB0BDEC048BBDE8F04FFFF7B5BADDF848
:1057500020B0079100292ED00599D1B11A4C002014
:1057600020701A48012101700799A9B9069921B141
:105770001948012101700799B9B9DDF824A0CCE7D7
:10578000059BDDF820B0002BB1D00F4B83F80090C3
:10579000ADE70E48012101700D49049808600D49DC
:1057A00081ED008A06990029E2D10C490A600C4A71
:1057B0009A461360B1E705990029CFD1034801212A
:1057C0000170D3E710060020C908002060080020FF
:1057D000F809002094080020FE080020FC090020A1
:1057E000FC0200203C0700200807002010B50F48ED
:1057F0000F4C02F099FD0F4801F028FB4FF0FF33EA
:10580000072209210C4807F0EFFA0C49204602F064
:105810001DFB0B4A0B4920460BF01CF90A4807F008
:105820008BFBBDE81040094807F086BB2C08002020
:10583000000A0020740800201C0B00204C140020DB
:1058400000000020A5420000EC090020F009002023
:105850002DE9F04F2DED048B00279FED629A624CED
:10586000DFED628ADFED629ADFF8909187B08046C3
:105870003D463E46B7EE008A0DF1040B4FF0000A9C
:1058800019E0002D68D1B4EEE88AF1EE10FA0DD5DA
:10589000303B07EE903AF8EEE77AB2EE047AE9EEA2
:1058A000077AB0EE679A0EB128EE078A0AF1010A6C
:1058B000BAF1140F1DD0204602F0A8FCC3B2092B88
:1058C0000BF8013B7AD91A2B78D0242B76D0A3F190
:1058D0003002D1B20929D4D92E2B3BD02D2B66D042
:1058E000652B06D10AF1010ABAF1140F4FF0010538
:1058F000E1D101A80EF02EF951EC100B0EF0DAF800
:1059000007EE900AB5EE409AF1EE10FAF5EE407A05
:1059100008BF0127F1EE10FAC8F8000055D0F4EEE8
:10592000E87AF1EE10FA04DCF4EEE97AF1EE10FA1E
:1059300056D549462F4808F001FA01A92D4808F02C
:10594000FDF9204602F00EFDA0EB0A01204602F010
:10595000FFFC91E70126A9E7002A94D0F2EE047A31
:10596000312B88EE278A8ED0322B88EE278A8AD078
:10597000332B88EE278A86D0342B88EE278A82D074
:10598000352B88EE278A3FF47EAF362B88EE278AA8
:105990003FF479AFB3F1370288EE278A3FF473AF53
:1059A000012A88EE278A18BF88EE278A6BE7002D28
:1059B000FFEE007A08BFB0EE678A77E70027384627
:1059C00007B0BDEC048BBDE8F08F002FF7D101A923
:1059D000084808F0B3F90849064808F00DF9EEE761
:1059E0000127ECE7000000002C08002000401C46C6
:1059F00000401CC6F0160020A45B0100B05B010053
:105A00002DE9F04F2DED048B87B0CDE901014FF06A
:105A100000099FED938A934F9FED939ADFED938A50
:105A200003921D46C846CA465DB19149914A924BC0
:105A30008DED058A81ED008A82ED008A83ED008A72
:105A400001258E4802F0E2FBC4B2242C41D0472C41
:105A500047D0582C6ED0592C00F086805A2C00F07C
:105A60009D80462C2DD0412C29D0A4F12003DBB2FF
:105A7000192B00F2C880824A22FA03F3DB07D3D441
:105A8000282C00F0D780502C00F0D4807B4D472686
:105A90003C46284602F0BAFBC0B2092819D924288E
:105AA00017D0B042F3D166780134002EF1D173489B
:105AB00002F058FCC11E714802F04AFCB5E74FF0F5
:105AC000010A6E4802F0A2FB05A8FFF7C1FE0028FC
:105AD000AAD14FF00009484607B0BDEC048BBDE8E1
:105AE000F08F664802F092FB302879D0634EBB46B7
:105AF000304602F08BFBC0B2092895D9242893D0F8
:105B0000A04209D0304602F081FBC0B209284FF014
:105B10004704BB46F2D887E79BF801400BF1010B25
:105B2000002CE5D1554802F01DFCC11E534802F07F
:105B30000FFC79E7534C514802F068FB2046FFF711
:105B400087FE80460028C4D0D4ED007A4A4BF4EE9C
:105B5000E87AF1EE10FA3DD4019A4FF0000AC2ED56
:105B6000007AC3ED007A5FE7474C444802F04EFBF1
:105B70002046FFF76DFE81460028AAD0D4ED007ABA
:105B80003C4BF4EEC97AF1EE10FA36DC029A4FF093
:105B9000000AC2ED007AC3ED007A45E7344C37487D
:105BA00002F034FB2046FFF753FE002891D0D4EDDD
:105BB000007AF5EEC07AF1EE10FA30D4039A0023A1
:105BC0001370B8F1000F27D0B9F1000F40D1C846CB
:105BD000CA4629E7019A1B6813604FF0000A23E7C1
:105BE000264802F013FBC0B230281FD031287FF4C2
:105BF0001BAF039A0123137016E7029A1B68136008
:105C00004FF0000A10E70A2C02D00D2C7FF438AFB9
:105C10001A4802F0FBFA07E7C146C24604E7BAF1A8
:105C2000000FCED1039A01231370CAE7039A002311
:105C30001370F9E6114C204602F0E8FAC0B20928C8
:105C40007FF647AF24283FF444AF4728F3D1EBE673
:105C50000A4802F087FB411E084802F079FB3AE748
:105C600000000000BC5B01000AD723BC0AD7233C1C
:105C70005C08002058080020540800202C08002050
:105C80000120FF03080900200C090020000000008B
:105C90002DE9F04F2DED048B85B01E46129F904BE1
:105CA00000911546002951D001931C46009A2368A3
:105CB0009342104620D18B4BD3ED007AF5EE407A1B
:105CC000F1EE10FA0BD0884B93ED007AB5EE407AE6
:105CD000F1EE10FA1CBFC5ED007A86ED007A834B19
:105CE0001B68003B18BF01233B700124204605B010
:105CF000BDEC048BBDE8F08FB2FA82F320605B0943
:105D00003A4631462846FFF77BFE0446002800F05D
:105D1000D080D5ED007AF5EE407AF1EE10FA0CD095
:105D200096ED007AB5EE407AF1EE10FA05D06D4AA4
:105D30006D4BC2ED007A83ED007A6C4B3A781A60B5
:105D4000204605B0BDEC048BBDE8F08F1A466848CC
:105D500001934FF0FF33DFF8C0911360824602F0E9
:105D6000F7FAC8464724504602F050FAC0B2092854
:105D70000CD924280AD0A04213D0504602F046FA8B
:105D8000C0B20928C1464FF04704F2D859495A48D1
:105D900007F0D4FF0024204605B0BDEC048BBDE81D
:105DA000F08F99F8014009F10109002CDBD150482E
:105DB000DFF844A1DFF86491DFF86481DFF864B1B3
:105DC00002F0D0FAC11E4A4802F0C2FA4B495046CE
:105DD00007F0B4FF464802F0C5FADFED497A494AB8
:105DE000CDED027A09EE100AB0EE678ACDED037AA6
:105DF000F0EE678AC9F80020C8F8002032E007F00A
:105E0000FBFED5ED007AD9ED006A98ED007AF4EE4C
:105E1000E67AF1EE10FA58BFF0EE667AC9ED007A34
:105E2000D5ED006AD6ED007AF4EE486AF1EE10FA8C
:105E3000F4EEC77AC8BFB0EE668AF1EE10FA58BF2A
:105E4000F0EE477AC8ED007AD6ED007A8DED028A41
:105E5000F4EE687AF1EE10FAC8BFF0EE678A01340A
:105E6000CDED038AB4FA84F35B0931463A462846FD
:105E7000FFF7C6FD034659465046002BBFD12249C5
:105E80001D4807F0B9FE0A2221461B4808F058F8C1
:105E90001E49194807F0B0FE9FED0F0B022116486E
:105EA00008F04EFA19EE101A114802F051FA019C4E
:105EB000FCE6174A0B4913680B4D0C4E0C48346036
:105EC000013313604FF07E52124B0A6021462B6063
:105ED00002F03EFA0AE700BF000000000000F03FB9
:105EE00008000020100800201408002024080020CA
:105EF0002C080020D85B0100F0160020E85B0100B0
:105F000020BCBECC20BCBE4CC45B0100D05B0100F9
:105F10006C080020000080BFBC5B01001400002062
:105F200018000020C05B01002DE9F04FDFF85CA1F4
:105F3000DAF800408FB084420546039190469946B6
:105F40002CD0484C204602F021FA00283CD10DF11B
:105F5000140B09AE444A45495846012302F0CCFAD5
:105F600096E80F00424E069F676007C6089A079999
:105F70003046C4E9021200F81C390D9B236202F07E
:105F800005FA044600283CD03A493B4807F034FE65
:105F90003549394807F0D2FECAF80050314802F0BE
:105FA000F5F9044618B920460FB0BDE8F08F189BEC
:105FB000009303994B4642462846FFF769FE044684
:105FC00020460FB0BDE8F08F20460DF1140B02F013
:105FD000D1F909AE294A25495846012302F08CFA25
:105FE00096E80F0004F1100CACE80700DDE90702A9
:105FF0008CF8003006990D9B6160C4E902022362AF
:10600000A8E71F4BDFF888B01F681E4E07F1050A8E
:10601000C7F1AF09C7F1B40803255146584607F048
:106020008FF84946304607F08BF8642007F0F6F900
:106030003946584607F084F84146304607F080F864
:10604000642007F0EBF9013DE7D10F490A4807F05A
:10605000D3FD0549084807F071FE20460FB0BDE8A2
:10606000F08F00BF2C0800200C5C0100D010002035
:106070003C080020145C0100F0160020F45B0100D5
:1060800020080020F00900201C5C01001000002006
:10609000EC0900202DE9F04FDFF82C832DED088B63
:1060A000D8F8003089B053BBDFF82083DFF82093A5
:1060B0000120FEF78BF9D8ED007A99ED008AF5EE14
:1060C000407AF1EE10FA40F0BB80B5EE408AF1EE76
:1060D00010FA40F0B580A24E337823B9A14B1B785B
:1060E000002B40F08C8000230022C9F80030C8F853
:1060F0000030327009B0BDEC088BBDE8F08F9A4DCE
:106100009A4CDFF8D0920020FEF760F92B682268E5
:10611000D9F800600133511C9E42216074D1904E29
:106120000232337822606FF009022A60002B40F0BF
:1061300084808F4C8F49904ADFF888C28F4F0B6064
:106140000025156021462F22601C8CF80050C9F8EC
:106150000050C8F800500DF057FD2F223946781C2A
:106160000DF052FD97F82E1094F82E0025703D701A
:10617000FEF71AFC824A00952B46294628461278DB
:10618000FFF7C2F83578DDB92F267E4B7E4A13F82B
:10619000010D12F8011D5870A3425170F7D197F804
:1061A0002E1094F82E0025703D70FEF7FDFB0023A5
:1061B00000951A4619461846FFF7A6F8013EE4D1A5
:1061C000724C734A236800216E2B117013D07148F2
:1061D000714D6E2106F0B4FF4621704806F0B0FF05
:1061E000142007F01BF907F0DBF86E23286023600A
:1061F00007F0D6F828606A496A4807F09FFD09B0A1
:10620000BDEC088BBDE8F08F674A0DF117031068ED
:10621000009306AA07AB3146FFF786FE28B9002394
:106220008DF817002E60079306934D4E3378002BA0
:1062300000F0DA80236801332360D9F8003078E772
:1062400017EE900A0DF0E6F8584BDFF88CB1DFF846
:106250008CA100220DF036F904460D46DBF8000053
:106260000DF0C6F822462B460CF076FF0DF0DAFB57
:10627000CBF8000018EE100A0DF0CCF84B4B0022C2
:106280000DF020F906460F46DAF800000DF0B0F8E0
:1062900032463B460CF060FF0DF0C4FB444ADFF889
:1062A00040E1DFF840C1CAF8000000231370414A02
:1062B000CEF800308CF800301370304639460DF0BF
:1062C000B1FB2946064620460DF0ACFB01223146C3
:1062D000FEF7F2FCDBF800000DF08AF80022334BE9
:1062E0000DF01AFA0DF0E6FB0346DAF8000008EEAE
:1062F000103A0DF07DF82D4B00220DF00DFA0DF047
:10630000D9FB2D4B1B6803FB03F207EE902A07EE27
:10631000100AF8EEE77AB8EE000AD7EE077A07EE31
:10632000103AE8EE487AB8EEC77A28EE000A20EE76
:10633000070A87EE800A0AF0D7FCF0EE408A0AF0DE
:10634000E3FB1E4B68EE007AB0EE680AC3ED007AFC
:106350000AF022FC1A4B28EE000A83ED000ABAE686
:10636000100B0020700800200C0000206C0800209A
:1063700098080020140B0020080B0020CC080020F7
:1063800028080020C7080020FB0800202008002063
:1063900004080020EC09002010090020F00900206A
:1063A0002C5C0100F01600208C0800200000494001
:1063B000C9080020600800203400002020000020D0
:1063C00024000020380A0020340A0020E4090020BC
:1063D000E8090020040B0020280000202C000020E9
:1063E0003C070020FE080020DDED067A964AF5EE17
:1063F000407AF1EE10FA13700DD09DED077AB5EEEC
:10640000407AF1EE10FA06D0904B93ED000A67EE59
:10641000808A27EE008AD9F800309DF81760002B9B
:1064200064DC2568DFF85882894F8A4AC8ED008A03
:1064300001332E2B05F10105CCBF00210121C9F844
:106440000030256087ED008A1170834A834B92EDFE
:10645000000AD3ED007A824B38EE000A78EEA77A74
:1064600020EE008AD3ED008AB0EE480AA7EEA70A14
:10647000F8EEE88AB1EEC07AB5EE400AF1EE10FA15
:1064800017EE100A77EEE88A00F1D780A8EEA88A06
:106490000CF0C0FF734B00220DF014F80DF0C2FA9F
:1064A000F1EEC87A013580462560B5EE408AF1EEFE
:1064B00010FA17EE900A00F1B7800CF0ABFF694BB1
:1064C00000220CF0FFFF0DF0ADFA674B674A196828
:1064D0001768C3F80080C71B6B1CA8EB010523607D
:1064E00055EA0703106046D1236088E6584FDFF86D
:1064F000908197ED00AAD8ED00AA78EE4A9A38EE7E
:10650000EA9A29EEA90AA9EE090AB5EE400AF1EEC7
:1065100010FAB1EEC0BA00F184802568013525601B
:10652000B2EE067AB4EEC7BAF1EE10FA76DDCBEE33
:10653000077A4F494F480A68FDEEE77A17EE903A1E
:1065400001339342036067D0013207EE902A07EED1
:10655000103AF8EEE77AB8EEC77A67EEA99A27EE16
:10656000899A89EE870A0A60C9EE077A30EE0A8AAC
:1065700077EEAA8A69E7404A364C1368DFF804814F
:1065800001332E2B1360D4BF0123002398F8009011
:10659000237022DCDFF8F0A0384C51462F220AF19C
:1065A00001000DF031FB2146601C2F220DF02CFB69
:1065B000002323708AF8009001232E4A1468012CCE
:1065C000D4BF0024012486EA0902394628460094F3
:1065D000FEF79AFE88F8006011E6DFF8ACB0DFF84D
:1065E0009CA059462F220BF101000DF00DFB5146E6
:1065F0002F220AF101000DF007FB00239BF82E006B
:106600009AF82E108BF800908AF80030FEF7CCF93B
:10661000237898F80090D0E700230B60D9F8003079
:1066200003E70AF0C1FB78E7B0EE480ACDED037A44
:106630000AF0BAFB256803983FE78DED037A0AF06C
:10664000B3FB2568039821E7380A002044000020A6
:106650001C0800201C000020240000202000002036
:106660003400002000004940280000202C000020B9
:106670000C080020180B0020080B0020CC0800207C
:106680001808002028080020980800202DE9F04F65
:10669000304F9FB0804606A80C46154601F044FED8
:1066A00006F078FEB7F90C309C4203DAB7F90E30E9
:1066B0009D4202DB1FB0BDE8F08F0646264807F07A
:1066C0001DFB2649244807F069FA4146224807F095
:1066D00093FA2721204807F081FB424620490FA862
:1066E000012301F009FF13AB0FCB0DF1280CACE82F
:1066F00007008CF80030119B1099129A089306A895
:10670000179B079109920E9301F040FE8046D0B18D
:1067100006A801F07BFD034606A88DF83C3001F089
:1067200075FD8DF83D00BDF83C2044F642539A4279
:106730001CD006A801F01EFE0A49074807F08EFA91
:106740001FB0BDE8F08F0849034807F027FA1FB0D3
:10675000BDE8F08F1C0B0020F0160020385C010013
:10676000D0100020585C0100485C0100CB49CC48A7
:1067700007F014FA06A801F049FD034606A88DF8B3
:106780003C3001F043FD034606A88DF83D3001F092
:106790003DFD034606A88DF83E3001F037FD8DF82B
:1067A0003F000A220F99BE4807F034FC06A801F00A
:1067B0002DFD06A801F02AFD06A801F027FD06A878
:1067C00001F024FD06A801F021FD034606A88DF87E
:1067D0003C3001F01BFD034606A88DF83D3001F06A
:1067E00015FD034606A88DF83E3001F00FFD8DF82B
:1067F0003F00DDF83CB0AB49A94807F0CFF90A22C9
:106800005946A74807F006FCA749A54807F0C6F96E
:1068100006A801F0FBFC034606A88DF83C3001F009
:10682000F5FC034606A88DF83D3001F0EFFC034669
:1068300006A88DF83E3001F0E9FC8DF83F000F9975
:1068400097480A2207F0E6FB06A801F0DFFC0346A2
:1068500006A88DF83C3001F0D9FC034606A88DF857
:106860003D3001F0D3FC034606A88DF83E3001F020
:10687000CDFC8DF83F0006A8DDF83CA001F0C6FC79
:10688000034606A88DF83C3001F0C0FC034606A87C
:106890008DF83D3001F0BAFC034606A88DF83E3075
:1068A00001F0B4FC8DF83F0006A8DDF83C9001F043
:1068B000ADFC034606A88DF83C3001F0A7FC8DF82E
:1068C0003D00BDF83C30012B7FF433AF06A801F04A
:1068D0009DFC034606A88DF83C3001F097FC9DF81E
:1068E0003C207249029203466D488DF83D3007F016
:1068F00055F90A2202996A4807F05CFB029A182AA5
:106900007FF417AF06A801F081FC034606A88DF8B6
:106910003C3001F07BFC034606A88DF83D3001F0C9
:1069200075FC034606A88DF83E3001F06FFC8DF82B
:106930003F000F9B002B7FF4FCAE5D495848049349
:1069400007F02CF90A225146554807F095FB7821AB
:10695000534807F07FF90A225148494607F0CAFA1E
:106960000AF1010202EB420222F00303B9F1000F27
:10697000CDE902A303DA049BC9F100099846B7F9EF
:106980000C30B7F90E704B48A2449A45C4BF1B1B8C
:10699000029305EB0903BB420299CCBF7F1B4F4614
:1069A0006A1E3A44631E92B20B4400929BB22A467E
:1069B000214606F0EFF9002F5CDD039B059609F1F7
:1069C000FF3903FB09B9DFF8ECA0029E0023049312
:1069D0003C2406A801F0C6FCB8F1000F0CBF5946D4
:1069E0004946884203D006A801F0B2FC3C24002EA0
:1069F00036DD00253C223B2C0DEB020106A813D905
:106A000001F09EFC9DF83C309DF83D209DF83E1025
:106A1000504605F0F5FC01350146504605F0D4FB23
:106A2000AE424FF003041BD01EAB2046621CA11CDB
:106A300023441EAC54FA82F254FA81F113F83C3C20
:106A400012F83C2C11F83C1CC41C504605F0D8FC34
:106A500001350146504605F0B7FBAE42E4B2C9D15C
:106A6000049B039A01339F420493A9EB02099344C8
:106A7000AFD1059E10490A4807F090F806F08AFC4D
:106A80000A22811B064807F081FA0C49044807F0E6
:106A900055F906A801F06EFC0CE600BF745C01001D
:106AA000F0160020805C0100905C0100A05C0100F9
:106AB000AC5C01001C0B0020BC5C0100C85C010048
:106AC000F8B5534840F6B83100F008F950484FF493
:106AD000E13100F0F3F84E48012100F0CFF8002832
:106AE00077D14B480021012200F016F948480121D6
:106AF00000F0C4F8002878D146484FF47A3108F005
:106B0000BFFB4549434807F019F90121532006F01E
:106B10000FFF42485322002101F040FC00286CD0B6
:106B20003F48404D404C414E4FF4165108F0EAF8B2
:106B30003F48002106F0C0F82D213E4800F014FA2D
:106B40003B48032106F0FAF83948002103F0BAFC6B
:106B5000002211463848FFF799FD2E4807F0CEF87D
:106B600029A3D3E90023C5E90023271D14F8010B4D
:106B7000012106F0DDFE16F8010B012106F0D8FE1A
:106B8000A742F3D1302200212C480DF057F8C02243
:106B900000212B480DF052F8C022002129480DF0A9
:106BA0004DF8FDF79DFE28491A4807F025F8274BB8
:106BB000184819680A2207F0C3F92549154807F053
:106BC0001BF895ED000B1348BDE8F840022107F0D3
:106BD000B7BB20490F4807F00FF80D480A2100F015
:106BE0003FF80B4800F068F87BE71B49094807F0BD
:106BF00003F8074800F060F87EE71849054807F0F9
:106C00009DF88DE7AFF300801ACA6B28AFD93940E1
:106C1000980B0020F0160020F05C0100D01000203E
:106C20004C140020000900203800002048000020FB
:106C30001C0B002074080020CC5C01001006002012
:106C4000400A002020090020F85C010034000020E8
:106C5000045D0100D45C0100E85C01006C5B010094
:106C600038B50C4606F096FB0546044401E0844224
:106C700003D306F08FFB8542F9D938BD70B50446C1
:106C800021B106F087FB6060012070BD06F082FB39
:106C90006368C21A312AF4D803F13202151A06F0D9
:106CA00079FB0646054401E08542EAD306F072FB13
:106CB0008642F9D9E5E700BF704700BF00B583B051
:106CC0004FF47A70019106F0A9FB0199024803B0D4
:106CD0005DF804EB08F0D4BAF016002038B50023B4
:106CE0004364436001B938BD0C4606F053FB0546CA
:106CF000044401E08442F6D306F04CFB8542F9D906
:106D000038BD00BF034B00200021C3E90201C3E9E5
:106D100004017047980B00202DE9F0410546164606
:106D200000296AD00123464F0376384608F0ECF973
:106D300010F0FF0F52D0384608F0E6F9034613F082
:106D4000FF0F38464AD008F0FBF9C0B2A0F1580353
:106D50001E2BF0D801A252F823F000BFFB6D0000FB
:106D6000376D0000376D0000376D0000376D000093
:106D7000376D0000376D0000376D0000376D000083
:106D8000376D0000376D0000016E0000376D0000A8
:106D9000376D0000376D0000376D0000FB6D00009F
:106DA000376D0000376D0000376D0000376D000053
:106DB000376D0000376D0000376D0000376D000043
:106DC000FB6D0000376D0000376D0000376D00006F
:106DD000376D0000D96D000063280ED006F0DAFA96
:106DE000044600F1010801E0804503D306F0D2FA21
:106DF0008442F9D92B7E002B97D12E76BDE8F08105
:106E000006F0C8FA0F4968600D4806F0F5FE0A2240
:106E100000210B4807F0C6F80B49094806F08EFF21
:106E200006F0B8FA044600F1320701E08742E4D3E5
:106E300006F0B0FA8442F9D92E76BDE8F08100BFA1
:106E4000F0160020145D01001C5D0100002202709C
:106E5000704700BFF0B50746264885B00646382182
:106E600000F004FA0021304600F0FEF8304600F051
:106E70004DFA10223821304600F0A8F90DF1FF3408
:106E80000DF10F05304600F0C9F804F8010FA542D6
:106E9000F8D19DF802309DF803609DF809109DF827
:106EA00004509DF80A009DF806405A1E012A88BF2A
:106EB00000239DF805203B7006F00F069DF80B306F
:106EC00045EA062501F00F0140EA01207D809DF88A
:106ED0000C10B88002F00F0512117A8103F00F0236
:106EE00044EA05241B1141EA0222FC80BB813A815D
:106EF00005B0F0BDE00B002070B50D460446084615
:106F00001646FFF7A7FF2B780BB1012E04D90023FB
:106F10002360A380204670BD05EB46050123B5F92B
:106F20000210B5F9062021806280A380204670BD42
:106F300008B50C48382100F099F90221094800F001
:106F400093F8084800F0E2F901223821054800F0E2
:106F50003DF9044800F062F8C0B2032828BF0020C1
:106F600008BD00BFE00B002010B525480C4600F01E
:106F70000BF92348382100F079F98021204800F0EE
:106F800073F821461E4800F06FF81D4800F0BEF966
:106F90001B48382100F06AF9A821194800F064F86C
:106FA000174800F0B3F901223821154800F00EF916
:106FB000134800F033F8C0B2112801D0002010BDF2
:106FC0000F48382100F052F9A3210D4800F04CF889
:106FD0000B4800F09BF901223821094800F0F6F82F
:106FE000074800F01BF8C0B2062807D0362805D0A5
:106FF000A0F16400B0FA80F0400910BD012010BD7E
:10700000E00B002000207047D0F81831D0F81C01A8
:10701000181A48BF00F58070704700BFD0F81C11E7
:10702000D0F81821914203460AD0D0F81C11D0F8AC
:107030001C2101440132D2B2087EC3F81C217047E2
:107040004FF0FF30704700BFD0F81C21D0F8183146
:107050009A421DBFD0F81C31C018007E4FF0FF309F
:10706000704700BF704700BF0346807DD8B1D3F89A
:107070002022D3F824020132D2B2824216D0D3F8B1
:107080002022D3F824020132D2B282420CD010B4B2
:10709000D3F820421C44012084F820115DF8044BF1
:1070A000C3F82022704770470120704700207047C6
:1070B0002DE9F0471746AAB34D1EDFF8708004464D
:1070C000C1F1010605EB020918E0D4F82032D4F82A
:1070D00024220133DBB293421BD0D4F82032D4F8FF
:1070E00024220133DBB2934206D0D4F8202222447A
:1070F00082F82011C4F82032A94513D023681B68F8
:10710000434506EB050A15F8011F05D1A37D002BA9
:10711000DBD15046BDE8F087204698470028F8D0DC
:10712000A945EBD1BA465046BDE8F087697000002A
:107130002DE9F843044600254FF48079114E4FF4B1
:107140007A77C0E901578846174629464A4640F8EB
:10715000186B1E460CF072FDC4F818514A46C4F86C
:107160001C5104F5907029460CF068FD2775667572
:10717000C4F82052C4F81080C4F82452A5752046E3
:10718000BDE8F8832C5D010038B504460D4900695F
:107190000D4D07F08DFC206907F0F2F9207D00EB22
:1071A000400305EBC30393F9081006F03DFC607D36
:1071B00000EB400305EBC30595F90810BDE8384026
:1071C00006F032BCA08601002064010070B51546AF
:1071D0000AB9284670BD0023C0F818310446C0F82B
:1071E0001C310122006907F0FFF910B90546284655
:1071F00070BD206907F082FAD4F81831D4F81C2148
:107200000133DBB2934205D0D4F818212244107622
:10721000C4F81831012D26D90126206907F0CCF9D0
:107220002069022107F0D0F9206907F067FAD4F845
:107230001831D4F81C210133DBB2934206F1010668
:1072400005D0D4F8182122441076C4F81831B5427C
:10725000E3D1EDB2206907F0A7F92069032107F017
:10726000B3F9284670BD0125F4E700BF00230122D1
:10727000C0F8203280F828128275C0F82432704796
:10728000F8B5002204460F46827590F8281200696E
:1072900007F0AAF9A8B932E0D4F82422D4F82032B1
:1072A00020699A421AD0D4F82462D4F824222644C1
:1072B0000132D2B296F82011C4F8242207F0D6F990
:1072C00088B1D4F82032D4F824525D1B48BF05F5AC
:1072D0008075002DE0D167B93846F8BDFF2107F071
:1072E000C5F90028EDD12069032107F06DF90320CD
:1072F000F8BD2069032107F067F92846F8BD206929
:10730000032107F061F90220F8BD00BF0121FFF75A
:10731000B7BF00BF10B54F4C206907F0C7F900B9DF
:1073200010BD206907F0D2F958BB206907F0DAF9DF
:1073300018B1206907F0D0F9F0B9206907F0D2F947
:10734000002837D0206907F037F92069032107F0BA
:107350003BF9206907F0CCF90028E1D0D4F82C22C1
:1073600000230121C4F82032A175C4F82432002A78
:10737000D6D0BDE810401047206907F0B9F90028C1
:10738000DBD1206907F018F92069032107F01CF907
:10739000D4F8303243B1D4F81801D4F81C21801A43
:1073A00048BF00F5807098470023C4F81831C4F82E
:1073B0001C3110BD206907F083F90028B0D0206986
:1073C00007F096F9F0B1D4F82032D4F824229B1AB1
:1073D00048BF03F58073BBB3D4F82422D4F820321D
:1073E0009A4231D0D4F82422D4F8243222440133F2
:1073F000DBB292F82011C4F82432206907F048F972
:10740000A07510BDD4F81831D4F81C2120690133BF
:10741000DBB293421AD007F071F9D4F81831D4F8DE
:107420001C210133DBB2934205D0D4F81821C4F8F3
:107430001831A3181876206907F0BEF820690321D7
:10744000BDE8104007F0C0B8FF21D6E707F0ACF860
:10745000F4E700BFE00B002010B54F4C206907F0A7
:1074600025F900B910BD206907F030F958BB206933
:1074700007F038F918B1206907F02EF9F0B9206942
:1074800007F030F9002837D0206907F095F8206917
:10749000032107F099F8206907F02AF90028E1D0C4
:1074A000D4F82C2200230121C4F82032A175C4F89D
:1074B0002432002AD6D0BDE810401047206907F0DA
:1074C00017F90028DBD1206907F076F8206903213D
:1074D00007F07AF8D4F8303243B1D4F81801D4F870
:1074E0001C21801A48BF00F5807098470023C4F81B
:1074F0001831C4F81C3110BD206907F0E1F80028EC
:10750000B0D0206907F0F4F8F0B1D4F82032D4F804
:1075100024229B1A48BF03F58073BBB3D4F82422FE
:10752000D4F820329A4231D0D4F82422D4F824322C
:1075300022440133DBB292F82011C4F824322069CE
:1075400007F0A6F8A07510BDD4F81831D4F81C21A6
:1075500020690133DBB293421AD007F0CFF8D4F898
:107560001831D4F81C210133DBB2934205D0D4F892
:107570001821C4F81831A3181876206907F01CF8F0
:1075800020690321BDE8104007F01EB8FF21D6E7AF
:1075900007F00AF8F4E700BFE00B002010B54F4CED
:1075A000206907F083F800B910BD206907F08EF854
:1075B00058BB206907F096F818B1206907F08CF8DD
:1075C000F0B9206907F08EF8002837D0206906F05E
:1075D000F3FF2069032106F0F7FF206907F088F820
:1075E0000028E1D0D4F82C2200230121C4F8203255
:1075F000A175C4F82432002AD6D0BDE81040104747
:10760000206907F075F80028DBD1206906F0D4FF67
:107610002069032106F0D8FFD4F8303243B1D4F802
:107620001801D4F81C21801A48BF00F580709847D3
:107630000023C4F81831C4F81C3110BD206907F0CC
:107640003FF80028B0D0206907F052F8F0B1D4F824
:107650002032D4F824229B1A48BF03F58073BBB3B1
:10766000D4F82422D4F820329A4231D0D4F82422FB
:10767000D4F8243222440133DBB292F82011C4F84A
:107680002432206907F004F8A07510BDD4F8183131
:10769000D4F81C2120690133DBB293421AD007F0E1
:1076A0002DF8D4F81831D4F81C210133DBB2934201
:1076B00005D0D4F81821C4F81831A3181876206919
:1076C00006F07AFF20690321BDE8104006F07CBF78
:1076D000FF21D6E706F068FFF4E700BFE00B0020CB
:1076E00010B54F4C206906F0E1FF00B910BD2069CC
:1076F00006F0ECFF58BB206906F0F4FF18B12069D2
:1077000006F0EAFFF0B9206906F0ECFF002837D058
:10771000206906F051FF2069032106F055FF20691A
:1077200006F0E6FF0028E1D0D4F82C220023012146
:10773000C4F82032A175C4F82432002AD6D0BDE89E
:1077400010401047206906F0D3FF0028DBD12069E4
:1077500006F032FF2069032106F036FFD4F83032FC
:1077600043B1D4F81801D4F81C21801A48BF00F5A1
:10777000807098470023C4F81831C4F81C3110BD3C
:10778000206906F09DFF0028B0D0206906F0B0FF08
:10779000F0B1D4F82032D4F824229B1A48BF03F564
:1077A0008073BBB3D4F82422D4F820329A4231D06B
:1077B000D4F82422D4F8243222440133DBB292F8E4
:1077C0002011C4F82432206906F062FFA07510BDB4
:1077D000D4F81831D4F81C2120690133DBB293426C
:1077E0001AD006F08BFFD4F81831D4F81C210133DD
:1077F000DBB2934205D0D4F81821C4F81831A3188D
:107800001876206906F0D8FE20690321BDE81040F3
:1078100006F0DABEFF21D6E706F0C6FEF4E700BFA9
:10782000E00B002010B54F4C206906F03FFF00B977
:1078300010BD206906F04AFF58BB206906F052FFD0
:1078400018B1206906F048FFF0B9206906F04AFF38
:10785000002837D0206906F0AFFE2069032106F02A
:10786000B3FE206906F044FF0028E1D0D4F82C22B2
:1078700000230121C4F82032A175C4F82432002A63
:10788000D6D0BDE810401047206906F031FF00282F
:10789000DBD1206906F090FE2069032106F094FEFA
:1078A000D4F8303243B1D4F81801D4F81C21801A2E
:1078B00048BF00F5807098470023C4F81831C4F819
:1078C0001C3110BD206906F0FBFE0028B0D02069F5
:1078D00006F00EFFF0B1D4F82032D4F824229B1A1F
:1078E00048BF03F58073BBB3D4F82422D4F8203208
:1078F0009A4231D0D4F82422D4F8243222440133DD
:10790000DBB292F82011C4F82432206906F0C0FEE0
:10791000A07510BDD4F81831D4F81C2120690133AA
:10792000DBB293421AD006F0E9FED4F81831D4F84D
:107930001C210133DBB2934205D0D4F81821C4F8DE
:107940001831A3181876206906F036FE2069032145
:10795000BDE8104006F038BEFF21D6E706F024FE51
:10796000F4E700BF140E002010B54F4C206906F05C
:107970009DFE00B910BD206906F0A8FE58BB206925
:1079800006F0B0FE18B1206906F0A6FEF0B9206935
:1079900006F0A8FE002837D0206906F00DFE206909
:1079A000032106F011FE206906F0A2FE0028E1D0B6
:1079B000D4F82C2200230121C4F82032A175C4F888
:1079C0002432002AD6D0BDE810401047206906F0C6
:1079D0008FFE0028DBD1206906F0EEFD206903212F
:1079E00006F0F2FDD4F8303243B1D4F81801D4F8DF
:1079F0001C21801A48BF00F5807098470023C4F806
:107A00001831C4F81C3110BD206906F059FE002859
:107A1000B0D0206906F06CFEF0B1D4F82032D4F872
:107A200024229B1A48BF03F58073BBB3D4F82422E9
:107A3000D4F820329A4231D0D4F82422D4F8243217
:107A400022440133DBB292F82011C4F824322069B9
:107A500006F01EFEA07510BDD4F81831D4F81C2114
:107A600020690133DBB293421AD006F047FED4F806
:107A70001831D4F81C210133DBB2934205D0D4F87D
:107A80001821C4F81831A3181876206906F094FD5F
:107A900020690321BDE8104006F096BDFF21D6E71E
:107AA00006F082FDF4E700BF140E002010B54F4C25
:107AB000206906F0FBFD00B910BD206906F006FE46
:107AC00058BB206906F00EFE18B1206906F004FECE
:107AD000F0B9206906F006FE002837D0206906F0CC
:107AE0006BFD2069032106F06FFD206906F000FEA2
:107AF0000028E1D0D4F82C2200230121C4F8203240
:107B0000A175C4F82432002AD6D0BDE81040104731
:107B1000206906F0EDFD0028DBD1206906F04CFD60
:107B20002069032106F050FDD4F8303243B1D4F877
:107B30001801D4F81C21801A48BF00F580709847BE
:107B40000023C4F81831C4F81C3110BD206906F0B8
:107B5000B7FD0028B0D0206906F0CAFDF0B1D4F816
:107B60002032D4F824229B1A48BF03F58073BBB39C
:107B7000D4F82422D4F820329A4231D0D4F82422E6
:107B8000D4F8243222440133DBB292F82011C4F835
:107B90002432206906F07CFDA07510BDD4F81831A0
:107BA000D4F81C2120690133DBB293421AD006F0CD
:107BB000A5FDD4F81831D4F81C210133DBB293426F
:107BC00005D0D4F81821C4F81831A3181876206904
:107BD00006F0F2FC20690321BDE8104006F0F4BC79
:107BE000FF21D6E706F0E0FCF4E700BF140E00200A
:107BF00010B54F4C206906F059FD00B910BD206941
:107C000006F064FD58BB206906F06CFD18B12069D0
:107C100006F062FDF0B9206906F064FD002837D057
:107C2000206906F0C9FC2069032106F0CDFC20691B
:107C300006F05EFD0028E1D0D4F82C2200230121BB
:107C4000C4F82032A175C4F82432002AD6D0BDE889
:107C500010401047206906F04BFD0028DBD1206959
:107C600006F0AAFC2069032106F0AEFCD4F83032FD
:107C700043B1D4F81801D4F81C21801A48BF00F58C
:107C8000807098470023C4F81831C4F81C3110BD27
:107C9000206906F015FD0028B0D0206906F028FD07
:107CA000F0B1D4F82032D4F824229B1A48BF03F54F
:107CB0008073BBB3D4F82422D4F820329A4231D056
:107CC000D4F82422D4F8243222440133DBB292F8CF
:107CD0002011C4F82432206906F0DAFCA07510BD2A
:107CE000D4F81831D4F81C2120690133DBB2934257
:107CF0001AD006F003FDD4F81831D4F81C21013352
:107D0000DBB2934205D0D4F81821C4F81831A31877
:107D10001876206906F050FC20690321BDE8104068
:107D200006F052BCFF21D6E706F03EFCF4E700BFA8
:107D3000140E002010B5074907483F233E22FFF7E5
:107D4000F7F9BDE810400549054818231922FFF747
:107D5000EFB900BFAC160020E00B0020D0160020C9
:107D6000140E0020002210B4FF244FF44071047060
:107D700081805DF8044B427042808260C260026183
:107D8000704700BF38B52C4C23684BB9EFF3108215
:107D9000002A3FD172B6BFF35F8F284B01221A70C1
:107DA0002368274A274901332360138C03F01F03FC
:107DB00051F8230090B102EB031393F84E30D9B27F
:107DC00013F0010318D00378816802EB0312012538
:107DD000042382F84E50437001B18847236853B1A1
:107DE0002368013B236023682BB9144B1B7813B124
:107DF000BFF35F8F62B638BD8D070ED50178C568B9
:107E000002EB0112022182F84E104370002DE5D0E2
:107E1000A847E3E7094A1370C2E74B07DED50178AC
:107E2000036902EB01120425072182F84E504170CC
:107E3000002BD3D09847D1E74C10002048100020E9
:107E400000A0004150100020704700BF10B5FF2374
:107E5000074A01600446C0F80720C37283810549C0
:107E6000103007F0E9F80023C4E90B33204610BDB9
:107E7000003131FFE45C0100F0B52DED028B0446CA
:107E8000C06983B008B105F071FE206A08B105F041
:107E90006DFE05F07FFA002642F20F739FED388ADF
:107EA000A36235466FF0604705E005F073FAA36AF8
:107EB000B6EB430F2DDC206803681B699847002848
:107EC000F3D0206803685B69984702AB2B44013507
:107ED000042D03F8040CE8D10136012EDDED017A02
:107EE0002DD0B0EEE77AB4EEC87A7310F1EE10FA46
:107EF00003F1FF3212DC16F0010539D1E36903EB1F
:107F00008202C2ED007A05F045FAA36AB6EB430F90
:107F1000D1DD012003B0BDEC028BF0BDD4E9071226
:107F200003F18043023B9B00C8180568181D0144FB
:107F300013440D6002441B6813600025B5E7FDEE95
:107F4000E77A002517EE900AB842C4ED0A7A34BFEA
:107F500080004FF0FF3005F005FEA36AE061BB42F0
:107F600034BF98004FF0FF3005F0FCFD20629CE725
:107F7000236A03EB8202C2ED007A002595E700BF79
:107F8000002474492DE9F04704460068DFF80082B8
:107F900003687E4F1B6984B098470028D4BF002631
:107FA0000126206803681B69984700284CDD20687B
:107FB00003685B699847C1B2FB296AD0FC297DD070
:107FC000FD2900F0B980FE2908D0F42940D0F92914
:107FD000E7D120680A2206F04FF8E2E7394601A807
:107FE00007F02AF805F0D6F905F0D4F904F1100AE3
:107FF000054641F2873904E0206803681B69984709
:10800000B8B905F0C7F9431B4B45F5D901A950464E
:1080100007F034F801A807F029F8E27932B1013A03
:10802000D2B20132FF21201D0BF008FE0023E371C4
:10803000B7E7206803685B699847C1B2FA2901A8CD
:10804000E4D007F03DF8DCE7304604B0BDE8F08747
:10805000236B03B198472046FFF70EFFF5216073AD
:10806000206805F0F7FD20680368DB68434540F0B1
:108070008A80E27932B1013AD2B20132FF21201D69
:108080000BF0DCFDE36A0022E271002B89D09847F7
:1080900087E705F07FF9054604E0206803681B695F
:1080A000984738BB05F076F9401BB0F5FA7FF4D35A
:1080B000E279A3882381002AB1D1B7E705F06AF9F4
:1080C000054604E0206803681B69984718BB05F063
:1080D00061F9401BB0F5FA7FF4D3E379227922737A
:1080E000002BA3D0013BDAB20132FF21201D0BF09F
:1080F000A5FD9BE7206803685B699847C0B2FA2832
:10810000D6D0E379022B04EB030203F10103C9D0BB
:108110001071E371C6E7206803685B699847C0B2D5
:10812000FA28DAD0E379022B04EB030203F101030E
:10813000CDD01071E371CAE705F02CF9054604E0D3
:10814000206803681B69984760B905F023F9401B54
:10815000B0F5FA7FF4D3A288E37952BA6281002B9A
:10816000C0D163E7206803685B699847C0B2FA280A
:10817000F1D0E379022B04EB030203F10103E4D015
:108180001071E371E1E7984773E700BFE45C010019
:10819000497E000010B50446FFF7F4FE207BFF2364
:1081A0009842237308BF4FF0FF3010BD10B504464E
:1081B000FFF7E8FE207A10BD10B50446FFF7E2FE97
:1081C000607A10BD006A10B103689B681847704759
:1081D000006A38B1C269006947F6FF73101A984205
:1081E00028BF1846704700BF10B50446006A40B16A
:1081F0000023436092B201F0B5F9236A5B6803B9CA
:1082000010BD01236360002010BD00BF006A78B17B
:1082100000B583B001220DF1070100F005FF012830
:108220000CBF9DF807004FF0FF3003B05DF804FB72
:108230004FF0FF30704700BF10B50446006A82B0AF
:1082400080B101220DF1070100F0EEFE01280DD1F1
:10825000206A9DF807400169013900F09FFF204620
:1082600002B010BD0446204602B010BD4FF0FF34EE
:10827000F5E700BF006A10B1012101F033B9704782
:1082800010B50368104A5B6882B093428DF80710FE
:1082900013D10446006A58B10023436001220DF156
:1082A000070101F05FF9236A5B680BB902B010BDEA
:1082B00001230020636002B010BD01220DF107010F
:1082C000984702B010BD00BFE9810000F8B506462E
:1082D000144B33604FF47A700024C6E90140282023
:1082E0000D4617460BF072FC3062C8B1044605F12A
:1082F000200E28686968AA68EB68A446ACE80F00FD
:10830000103575456446F4D128686968634603C32F
:108310000C22394606F110000BF099FD002333774B
:108320003046F8BD505D010004494FF47A72826016
:108330000022C0E90012026202747047505D010021
:10834000006A18B108B500F06FFE08BD704700BFA5
:10835000006A30B108B500F021FF003818BF0120D5
:1083600008BD7047036A0BB1186970474FF0FF30C2
:10837000704700BF10B50446006A30B100F0A2FD9E
:10838000206A0BF02BFC0023236210BD006A18B199
:10839000407A003818BF0120704700BF30B590F810
:1083A000413083B004460D463BB90121204600F020
:1083B000B9F968B9002003B030BD3830019200F03F
:1083C00081FD019A0121204600F0ACF90028F1D08E
:1083D0002946204600F01CFC0028EBD004F11005D3
:1083E00028460122214601F06DFD40B1294604F1E5
:1083F000380000F0F1FD003818BF0120DBE702462D
:108400002146284601F05EFD0028D3D0EEE700BFEC
:108410002DE9F04F9BB00024DFF8D8B0079410315D
:10842000814606A8924601938DF8214011948DF85B
:108430004940CDF818B0CDF840B000F0CDFD06AE03
:10844000A046554610AF2F2128460BF0D1FC03461D
:108450005C1B294602A8E4B20BB32B782F2B1CD04F
:108460000C2C28BF0C2422460BF0F1FC1AAB234441
:10847000384603F8608C00F025FD012302AA31463E
:10848000384601F023F8034630465BB300F01AFD8E
:10849000334625443E461F46D5E70135D3E7019BC9
:1084A00072683189307EF468A5EB0A051D60D6E953
:1084B0000435C9F80420A9F80810F269316AC9F82E
:1084C0001030736A89F818004846C9E90721C9F8CD
:1084D00000B0C9F81450C9F80C40C9F824301BB0DA
:1084E000BDE8F08F4846C9E900B389F809301BB0F0
:1084F000BDE8F08F885D0100F0B5A1B005461E46CD
:1085000002A801AB1446FFF783FF019AA15C144453
:10851000002931D09DF811302A4F0C9700220D927E
:108520008DF839202BB92846FFF7FEFE284621B0EA
:10853000F0BD0CA83346224602A900F0C7FF002870
:10854000F1D002A806F0060600F0BCFC062E33D0DF
:108550000D9BBDF838101098179322460F9B119C65
:10856000ADF860101A901B9419939DF84810149858
:10857000139C159B169713E0DDE90643039A1149F6
:10858000BDF810001792059A1691ADF860001A9484
:108590001B9319929DF820100A98099C0B9B0A4A7C
:1085A0008DF870101E9016A928461D941F93FFF792
:1085B0008DFE284621B0F0BD13990CA800F0EEFD09
:1085C000C6E700BF885D01006C5D0100074B084AEB
:1085D0009A630221002219615A719A719A721A7370
:1085E00083F83020DA6383F841207047D0100020F0
:1085F000885D0100013A18BF0122012B4271016020
:1086000005D0032B06D043B1002303717047032329
:108610000371704702230371704701230371704790
:108620002DE9F041837905460F461646002B45D1CA
:10863000394C2378002B5BD02879DFF8E0800021CB
:1086400005F0C4F904F0A6FE044605E004F0A2FE1D
:10865000031BB3F5967F05D2FF21404601F0AEFD26
:10866000FF28F3D12D4847F04001804601F0A6FDD8
:10867000182426FA04F1C9B2083C404601F09EFDD8
:1086800014F1080FF5D1BFB1082F14BFFF218721C6
:1086900022480024064601F091FD02E0B4F5807FF7
:1086A00008D0FF21304601F089FD030604F10104E2
:1086B000E872F3D4BDE8F0819521E9E7038940F23F
:1086C00001245A1CA34202810AD8DFF85080FF21FE
:1086D000404601F073FD2B895A1CA3422A81F6D92A
:1086E0000D4C2879012105F071F923784BB9AB7154
:1086F0000B4B0A4893E806000123237001F01AFD92
:108700009AE74FF00008054884F8008001F046FD24
:10871000237885F806808DE7341100209813002017
:10872000381100202DE9F04F002383B0027103734C
:1087300083728371437105460E4604F02BFE0121BE
:1087400007462879DFF8348205F0F2F8012128790C
:1087500005F03CF9E946814801F0AAFC8049022372
:1087600001224846FFF746FF99E80300C8F80000D9
:10877000A8F80410794898E80600824601F0DAFC6F
:108780000A24FF21504601F019FD631E13F0FF0477
:10879000F7D1DFF8ECA1714801F000FD9AF8003044
:1087A000002B68D02879002105F010F905E004F0CD
:1087B000F1FDC01BB0F5FA6F5AD8002211462846C9
:1087C000FFF72EFF01280446E872F0D14FF4D5726E
:1087D00008212846FFF724FF43072BD52C734FF0C1
:1087E000000B05E004F0D6FDC01BB0F5FA6F59D8B8
:1087F000002237212846FFF713FF5A462921284631
:10880000FFF70EFFE8720028ECD12B7B022B4BD038
:108810002879012105F0DAF89AF80030002B50D1C0
:10882000062E4AD8052E00F29580DFE806F0786A19
:1088300066625E51494B4FF0040B1846FF2101F070
:10884000BDFC0BF1FF3B1BF0FF0B444BE872F4D176
:10885000AA284FF0020321D06B712879012105F07D
:10886000B5F89AF800407CB9204603B0BDE8F08F17
:1088700001236B71F1E7012398E8060037488AF875
:10888000003001F057FC8DE7002434488AF800409E
:1088900001F084FC204603B0BDE8F08F2B734FF04D
:1088A000804BA5E70823D7E702463A212846FFF781
:1088B000B7FEC0B306236B71CFE716236B7100249C
:1088C000D2E7002325488AF8003001F067FCA7E7CB
:1088D0002349022301224846FFF78CFE99E8030052
:1088E000C8F80000A8F80410BEE71E4902230122C0
:1088F000F1E71D4902230122EDE71C490223012271
:10890000E9E71B49022301224846FFF773FE99E875
:1089100003003446C8F80000A8F80410A4E715497D
:1089200002230122D7E7FF210C4801F047FC00F0A9
:10893000C000C02804BF03232B73FF21074801F0A8
:108940003DFCFF21054801F039FCFF21034801F0FF
:1089500035FC5DE7084902230122BCE7981300209B
:1089600090D0030020A1070040420F0080841E0029
:1089700000093D0040787D0148E8010038110020E1
:1089800034110020F8B583790446154613B1036805
:1089900099423FD0237B2160032B18BF49020A462E
:1089A00020461121FFF73CFE48B103233D4D637182
:1089B0002079012105F00AF8287820BBF8BD04F0E1
:1089C000E9FC394F064605E004F0E4FC831BB3F5EF
:1089D000967F5ED8FF21384601F0F0FBFF28E07259
:1089E000F2D0FE2831D00D2363712E4D2079012164
:1089F00004F0ECFF2B78002BDAD000232A482B70F0
:108A000001F0CCFBD4E7002427482C7001F0C6FB12
:108A10002046F8BD0389002BBCD1234F6E1E05F202
:108A2000FF15FF21384601F0C9FB06F8010FB542DA
:108A3000F7D12289A17A02F500739BB2238149B153
:108A4000B3F5007F06D20120F8BD00220123228168
:108A5000A371E2E7A1790029F5D040F2012502F2E5
:108A60000122AB42228109D80F4EFF21304601F08E
:108A7000A5FB23895A1CAB422281F6D9207901211A
:108A800004F0A4FF074B1A7832B90023A371012028
:108A9000F8BD0F236371A8E7002203481A7001F0A4
:108AA0007DFBF2E73411002098130020002B00F02A
:108AB0009B802DE9F0411D461344B3F5007F044629
:108AC000164612DC837913B10368994217D0237BD1
:108AD0002160032B18BF49020A4620461121FFF7E7
:108AE0009FFD002853D003236371474D2079012156
:108AF00004F06CFF287800286ED1BDE8F08103896E
:108B00009A42E4D39E420AD9404FFF21384601F0F1
:108B100055FB2189013189B28E422181F5D8069B0E
:108B2000DFF8E8806F1E13FA87F75E1EFF214046CC
:108B300001F044FB06F8010FB742F7D12289A37A6E
:108B40001544ADB2258113B1B5F5007F1CD3A379CF
:108B5000D3B140F201236A1C9D4222810AD82B4ED8
:108B60001D46FF21304601F029FB23895A1CAB42E8
:108B70002281F6D92079012104F028FF224B1A78AE
:108B8000002A3BD10023A3710120BDE8F08104F04D
:108B900001FCDFF87880074605E004F0FBFBC01B12
:108BA000B0F5967F27D8FF21404601F007FBFF284C
:108BB000E072F2D0FE2819D00D236371124D207996
:108BC000012104F003FF2B78002B8FD000230F48E6
:108BD0002B7001F0E3FA89E700240C482C7001F0B7
:108BE000DDFA2046BDE8F081012070470023012214
:108BF0002381A27186E70F236371DFE70022034818
:108C00001A7001F0CBFABDE7341100209813002050
:108C100010B582B06C46204602230122FFF7EAFC21
:108C200094E80300024B18600120998002B010BD47
:108C3000381100202DE9F0410446002953D01F4689
:108C4000037B032B16460A4618BF4A021821FFF77A
:108C5000E7FC58B104233F4D63712079012104F0F2
:108C6000B5FE2878002842D1BDE8F0813A48FE21BF
:108C7000804601F0A3FA751E06F2FF1615F8011FD3
:108C8000404601F09BFAAE42F8D1FF21324801F094
:108C900095FAFF21304801F091FA2F48FF2101F0A9
:108CA0008DFA00F01F03052BE07237D16FB304F08B
:108CB00071FB294F064605E004F06CFB801BB0F504
:108CC000167F3BD2FF21384601F078FAFF2805468F
:108CD000F2D100220D212046FFF7A2FC78B1142327
:108CE0001C4D6371B9E712231A4D4371B5E7002497
:108CF00019482C7001F052FA2046BDE8F081164860
:108D0000294601F05BFA0028E9D12079012104F01D
:108D10005DFE104B1A78AAB90120A5E711230D4D6D
:108D200063712079012104F051FE2B78002B94D03F
:108D3000002309482B7001F031FA8EE71523054D09
:108D400063718AE7044800221A7001F027FA0120B3
:108D50008AE700BF341100209813002038B5164D63
:108D60002B780446A3B12079002104F02FFEFF21C7
:108D7000124801F023FA0121034620791C4604F031
:108D800025FE2B786BB9B4F1FF0018BF012038BD68
:108D90000B4B0A4893E8060001232B7001F0CAF937
:108DA000E1E7002305482B7001F0F8F9B4F1FF006A
:108DB00018BF012038BD00BF3411002098130020D7
:108DC00038110020024B034A1A6000229A80704733
:108DD0003811002000093D0070B590F90820037A91
:108DE000002A04460D4608DB15B923F01003237250
:108DF0002846BDE8704000F089BD4069012100F0BF
:108E0000CBFDF0B1637A227E0E4E012B06EB4216AB
:108E100098BFE3690C4A98BFF361236A12687383B1
:108E20001B0CB38232B106F1160106F1180090470F
:108E3000338B7382237A03F07F032372002DD7D103
:108E4000D3E770BD481100204011002070B500F13B
:108E50000C0206460121406A00F0E6FDF0B1336ADB
:108E6000F3B1F268337A716A43F020033372087CFD
:108E70004B690D79023A02FA00F42344C5B16C1E25
:108E8000E2B2023DAD1A1D441C4401E0A5420DD0E2
:108E90002046013C00F06EFE0028F7D1002070BD96
:108EA000337AF268326243F08003DCE7736A187C3D
:108EB000F3694FF4007202FA00F00344F3610120F9
:108EC00070BD00BF38B5437A63B190F90830002B0C
:108ED000044609DB012000F019FD18B1002363727C
:108EE000012038BD002038BD4069012100F054FD4B
:108EF0000028F7D0637A227E0F4D012B05EB421537
:108F000098BFE3690D4A98BFEB61236A12686B83CF
:108F10001B0CAB8232B105F1160105F11800904728
:108F20002B8B6B82237A03F07F032372012000F0E6
:108F3000EDFC0028D2D1D5E74811002040110020D7
:108F40002DE9F0414FF0203305464B600B60C1F82E
:108F5000073015F8014B84B08C4694B11D4F4FF08B
:108F6000000E4FF007086E462E2C10D1B8F10A0FF4
:108F70002CD04FF0080E4FF00A0815F8014B002CCA
:108F8000F2D19CF80000203818BF01201FE097E8BC
:108F90000F0086E80F00324601E0A34216D012F817
:108FA000013B002BF9D1C64510D8A4F121035D2B5C
:108FB0000CD8A4F16103192B9CBF203CE4B20EF144
:108FC00001030CF80E405FFA83FED6E7002004B0E0
:108FD000BDE8F081705D010038B5437A3BB991F886
:108FE0002020102A04460D4603D0202A10D000204D
:108FF00038BD022242724A8C03625201C2610023D0
:10900000012020722376C4E903336562636138BDB1
:1090100003234372496A016200F11C02284600F0F2
:10902000E1FD0028EBD1E2E72DE9F04F064685B0DF
:10903000407A0392002800F0A080337ADC0740F1E8
:109040009C80F3690F46114632699B1A994284BF8E
:109050009BB20393039D002D00F09480DFF83081D4
:10906000DFF83091DFF830A138E0706A0479013C14
:1090700004EA5224E4B2BBF1000F40D1002C3ED1EF
:10908000002A34D1316AF16090F810C04069023989
:1090900001FA0CF104442144CBF50074327AA54264
:1090A000CCBFA4B22C46530602D4B4F5007F28D11D
:1090B000D9F800208A4224D0DAF8000000975A46F6
:1090C0002346FFF7F3FC002857D031692D1B6218A7
:1090D000ADB227443261002D54D0707A0228C2F319
:1090E000080BC2D1716A496A01EB5221D4E7F168D9
:1090F00006F10C0200F0F8FD00283ED0706AF1681D
:10910000C2E70846002100F047FCB0B30BF10401B0
:109110000BEB080341443A1D934238BF8F4203EBE7
:10912000040E22D3621E072A1FD924F0030CBC446C
:109130003A46194651F8040B42F8040B6245F9D13E
:1091400024F00302944207EB020003EB0201BCD0BF
:109150009B5CBB544B1C9E45B7D04B7843708B1C1B
:109160009E45B2D08B788370AFE77A1E13F8011B4F
:1091700002F8011F9E45F9D1A7E74FF0FF3005B077
:10918000BDE8F08FBDF90C0005B0BDE8F08F00BF61
:10919000481100204C0000204C130020F8B5437A01
:1091A0001BB3C2698A4204460F461ED3022B19D054
:1091B00009B3436A01691D7C4A1E05F109037D1E3E
:1091C000DA40DD40AA4212D9236AE36004F10C06BA
:1091D00005E0E168606A00F087FD013D28B1324694
:1091E000002DF6D127610120F8BD0020F8BD00292F
:1091F000EAD0AD1AEAE7E16027610120F4E700BF99
:1092000038B5437A012B29D1037A9A07044625D52C
:109210005B0703D5C16903698B4221D1154B1868DF
:10922000FFF79CFD0146C8B9237A13F020050CD145
:10923000114A1268CAB9206943F01003C0F308004C
:10924000C0F50070237280B238BD627A1AB1204630
:10925000FFF7C2FD237A23F020032372002038BDDC
:10926000FFF79CFF0028D9D1F8E700F07DFB2846E6
:1092700038BD00BF4C13002048130020F8B52D4B1B
:1092800003EB41130446DE7A16F0110F154602D0A7
:1092900012F0420F1BD12176988A598B264A41EA57
:1092A0000041126821626261DA7A12F018070CD16B
:1092B000DA69E261012605F00F036806C4E9037765
:1092C0006672237218D43046F8BD102F01D00020EA
:1092D000F8BD606A04F11C0200F084FC0028F6D09E
:1092E00005F00F020421002322726A06C4E9033349
:1092F0006172ECD40120F8BDAB07E8D5002AE2D0BA
:10930000606A00F05BFD0028E1D0237A627A276270
:1093100063F07F03E7612372002AD8D031462046EC
:10932000FFF75AFD0028D2D039462046BDE8F84064
:10933000FFF734BF481100204C0000202DE9F04F0A
:1093400085B00DF1040807460C46104641469A4682
:10935000FFF7F6FD002878D0E369626A7A6200269A
:10936000C4E90366002B6CD0DFF850B1DFF85891E8
:1093700032460AE0E5296CD05BF80310D8F80030DB
:109380008B4269D0E369934225D9637A012BC2F3FA
:1093900043155AD901220DF103012046FFF744FE7F
:1093A000012852D122696B011F3222611BF8031080
:1093B0000BEB45100029DDD1002E68D1D9F8001043
:1093C0003D7679611BF80330002B60D0E36993424E
:1093D0004FF00106D9D80AF01203122B35D1002E16
:1093E00059D1637A022B30D02046FFF72FFD60B3AE
:1093F0000023324C3B7698E80700314D23462E6817
:109400000025C4E90255C4E90455C4E9065503C35F
:10941000130C2281A372002E47D004F10E0104F137
:109420001000B047238AE289638201202383E2820D
:1094300000F06CFA48B1397E52463846FFF71EFFFD
:1094400004E00AF01203122BCBD0002005B0BDE8D7
:10945000F08F002EBAD1B1E74168029B8B4200F138
:1094600004008FD1BDF80C1030F8043F994289D127
:1094700083789DF80E10994284D10AF03003302B86
:10948000E3D0524629463846FFF7F8FEDEE70AF0F9
:109490001203122BD9D17869012100F07DFA00283E
:1094A000D3D03C7E0BEB4414A5E7064BC4F80E303A
:1094B0004FF4006242F62103B6E700BF48110020D6
:1094C00040110020000821284C00002010B4447AEC
:1094D0001CB100205DF8044B70475DF8044BFFF7AA
:1094E0002DBF00BF437A002B36D070B590F908200D
:1094F000037A002A04460D4608DB15B923F0100351
:1095000023722846BDE8704000F000BA406901218E
:1095100000F042FAF0B1637A227E104E012B06EB86
:10952000421698BFE3690E4A98BFF361236A126836
:1095300073831B0CB38232B106F1160106F11800D9
:109540009047338B7382237A03F07F032372002DBD
:10955000D7D1D3E7002070BD00207047481100200C
:10956000401100202DE9F04F437A85B0012B0746CA
:10957000019240F0A880047AA50740F1A480620718
:109580000E4600F19580019B3A69002B7AD0019D2F
:10959000DFF87082DFF870A284F01004C4F30019C1
:1095A000AB46786A0179013901EA522111F0FF01D5
:1095B000C2F3080540F08D80002D40F0C880F968A6
:1095C000002940F0DC803B6A002B00F0EA80FB6061
:1095D000047C4269BBF5007FA3F1020101FA04F1AA
:1095E0005C4628BF4FF40074BBF5007F114480F047
:1095F00099803A69FB69934240F2858008460121CF
:1096000000F0CAF900285ED0291D41444544331DAD
:109610009D4238BF8E4205EB040E2246C0F0A68064
:10962000631E072B40F2A2804FEA940C05EB8C0CD2
:109630002B46314651F8040B43F8040B6345F9D12E
:1096400024F003018C4206EB010305EB01000ED070
:1096500016F801C005F801C0411C8E4506D05978A6
:109660004170811C8E451CBF9B78837033191E4648
:109670003B69ABEB040B1A441FFA8BFB3A61BBF15D
:10968000000F8ED1FB69934280F0A6803C7AFA618C
:1096900044F080043C72230706D57B7A9BB10121FC
:1096A0003846FFF799FB70B1019805B0BDE8F08F1F
:1096B000C2690369934200F08A801146FFF76EFD8C
:1096C00000287FF460AF01237B60002005B0BDE877
:1096D000F08FFB6890F810C04069C5F50074A4B223
:1096E0005C45A3F1020303FA0CF328BF5C46034474
:1096F000B4F5007F194415D0002D7FF47FAFFB69CE
:1097000093423FF67BAF0120009100F0FFF8002864
:10971000D9D0384A00991378CAF8001043F00103F1
:10972000137071E7DAF800308B4204BF4FF0FF335B
:10973000CAF80030304B324618684B46FFF77AFAC9
:109740000028C0D04FF400721644144690E7FB681E
:1097500090F810C04269C5F50074A4B2991E01FAD0
:109760000CF15C45114428BF5C4647E7013D3319C5
:1097700016F8011B05F8011FB342F9D177E703AAD8
:1097800000F0B2FA0028A1D0786A1C4990F8204075
:10979000039B4FF6F872102C18BF0A469342FFF451
:1097A00016AF07F10C02012100F03EF900288AD023
:1097B0003B6A33B1FB683A7A786A42F020023A7227
:1097C00006E73A7AFB683B6242F08002F4E7019BCD
:1097D000002B7FF4DCAE5EE7094B1B6843B1019BB5
:1097E0003C7A002B3FF457AF44F080043C7252E7C0
:1097F0003C7A50E7441100204C130020F8FFFF0F83
:1098000040110020481100204C00002000B583B01A
:109810000B4601220DF107018DF80730FFF7A2FE7C
:1098200003B05DF804FB00BF2DE9F84F90F820303D
:10983000DFF8CC90C669102B0D460446D9F800100D
:1098400017461AD006EBD516B1421AD1DFF8B4800C
:10985000294B05F07F0543F82570227E98F80030EB
:10986000012A43F0010388F8003081BFA368234A2E
:10987000F61816600120BDE8F88F06EB1526B142F8
:1098800014D0DFF88080DFF880A098F80030A3B90A
:10989000DAF80000184A3146FFF774F8E8B194F896
:1098A0002030C9F80060102BD2D101E0DFF85480DD
:1098B000114BEDB223F81570CFE70F4ADAF800002C
:1098C0000123FFF7B7F940B1DFF830B0DBF8001043
:1098D00029B9002388F80030DAE70020CBE7064AF0
:1098E000DAF800000123FFF7A5F90028F5D00023DE
:1098F000CBF80030EDE700BF4811002048130020EE
:109900004C000020441100204C130020F8B5114DEC
:109910002B780BB90120F8BD0F4B104E1968104A77
:10992000044623463068FFF785F938B1002CF1D0A2
:109930000C4F396821B900232B70EBE70020F8BDEC
:109940003068074A2346FFF775F90028F6D0002350
:109950003B60F0E7441100204C0000204C13002035
:10996000481100204813002010B5084C216809B99F
:10997000012010BD03460648064A0068FFF75AF961
:109980000028F6D000232360012010BD48130020DA
:109990004C130020481100202DE9F8431D4F3B686F
:1099A00083420C4606D11C4E317821433170012090
:1099B000BDE8F883184EDFF86880327805465AB95A
:1099C000D8F80000154A2946FEF7DCFF08B13D60D3
:1099D000EAE70020BDE8F8831946104AD8F80000ED
:1099E0000123FFF727F90028F3D0DFF83890D9F8E2
:1099F000001011B900233370E2E7084AD8F80000DC
:109A00000123FFF717F90028E3D00023C9F800303D
:109A1000F0E700BF4C000020441100204811002056
:109A20004C130020481300202DE9F04F176883B035
:109A3000054601920091002F51D001374FF0000BE5
:109A4000E968481C8046A9B33C46A0453CBF0224B7
:109A500027468442DFF814A1DFF814914FF0000686
:109A600028D895F82010E8691029D9F800102ED0D0
:109A700000EBD410814207D00021FFF78DFFC8B161
:109A800095F82010102926D004F07F015AF82110F3
:109A900021F07041A1B101342746E9680136B14295
:109AA00008D9A04538BF022401F1010038BF27467C
:109AB0008442D6D94FF0000B584603B0BDE8F08F72
:109AC000009B611CC81B984211D00C46E5E700EBD7
:109AD00014208842D0D1E1B23AF81110DAE7A1F1AE
