:104000000000042071D000005DD000005DD00000F1
:104010005DD000005DD000005DD000000000000019
:104020000000000000000000000000005DD0000063
:104030005DD00000000000005DD0000005D1000050
:104040005DD000005DD000005DD000005DD00000BC
:104050005DD000005DD000005DD000005DD00000AC
:104060005DD000005DD000005DD000005DD000009C
:104070005DD000005DD000005DD000005DD000008C
:104080005DD000005DD000005DD000005DD000007C
:104090005DD000005DD000005DD000005DD000006C
:1040A0005DD000005DD000005DD000005DD000005C
:1040B0005DD000005DD000005DD00000457B0000B9
:1040C000457B0000457B0000457B0000457B0000F0
:1040D0005DD000005DD000005DD000005DD000002C
:1040E0005DD000005DD000005DD000005DD000001C
:1040F000000000005DD0000091CF00009DCF0000C7
:10410000A9CF0000B5CF00005DD000005DD0000059
:104110005DD000005DD000005DD000005DD00000EB
:104120005DD000005DD00000D57000001972000065
:104130005D730000A17400005DD000005DD0000040
:104140005DD000005DD000005DD000005DD00000BB
:104150005DD000005DD00000E5750000297700000B
:104160006D780000B17900005DD000005DD00000E6
:104170005DD000005DD000000000000000000000E5
:1041800061D0000029D1000039D1000019D1000010
:10419000000000005DD000005DD000005DD0000098
:1041A0005DD000005DD000005DD000005DD000005B
:1041B0005DD000005DD000005DD000005DD000004B
:1041C0005DD000005DD000005DD000005DD000003B
:1041D0005DD000005DD000005DD000005DD000002B
:1041E0005DD000005DD000005DD00000CDCB0000B0
:1041F0005DD00000000000005DD000005DD0000038
:104200005DD000005DD000005DD000005DD00000FA
:104210005DD000005DD000005DD000005DD00000EA
:104220005DD000005DD000005DD000005DD00000DA
:104230005DD000005DD000005DD000005DD00000CA
:104240005DD000005DD000005DD000005DD00000BA
:104250005DD000005DD000005DD000005DD00000AA
:104260005DD0000010B5054C237833B9044B13B171
:104270000448AFF300800123237010BDE00200204A
:10428000000000008C74010008B5034B1BB103490A
:104290000348AFF3008008BD00000000E4020020E6
:1042A0008C74010010B5044610300AF0B7FD2046AA
:1042B00010BD00BF000000002DE9F843424CD4EDD2
:1042C000007A60EE277A054617EE900A14461E46DD
:1042D0000F460EF077FF36A3D3E9002380468946C8
:1042E0000FF058FA002848D033A3D3E90023404602
:1042F00049460FF04FFA40B3404631A3D3E90023BB
:1043000049460FF047FA8046002839D00823336029
:10431000A078002109F03AFAE078002109F036FA95
:104320002B68002B1EDC36D1032008F049FF2078D3
:10433000012109F02BFA052008F042FF2078002126
:1043400009F024FA0020BDE8F88302233360014617
:10435000A07809F01BFAE078012109F017FA2B6820
:10436000002BE0DD32689B1A2B603B6813443B60F6
:104370006078012109F00AFAD6E701213160E7E708
:1043800004233360A078012109F000FAE078414667
:1043900009F0FCF9C4E7326813442B603B689B1AB0
:1043A0003B606078002109F0F1F9BDE7AFF30080D0
:1043B000D318308D01D3683FD318308D01D3783FA7
:1043C000D318308D01D3883F3000002070B52DED1B
:1043D000028B044684B0002840F0B580B84802F053
:1043E00087FC002840F08680B64B1B685A1C05D01D
:1043F000002C71D104B0BDEC028B70BDB24D2B68A6
:10440000312B00F0C980002CF4D0B04EA3F11D0276
:10441000282A306840F2F681312B40F3CA80313BC4
:1044200003FB03F3313800FB10300028B8BF4042D3
:104430000EF0B6FE41EC100B0CF0D0FAA44B51EC90
:10444000100B00220EF060FD0FF0C4F928603368F5
:10445000DFEDA05AA3F1310206EE902AA0F131025D
:1044600007EE902A4042B8EEE66AF8EEE76A07EEF9
:10447000900AB8EEE77A07EE903AF8EEE77A76EE31
:10448000666A77EE677AF5EEC06A77EEA57AF1EEA6
:1044900010FAF5EEC07AD4BFB1EE667AB0EE667A65
:1044A000F1EE10FAD4BFB1EE676AB0EE676AB4EE0F
:1044B000467AF1EE10FA48BFB0EE467A87EE876A88
:1044C000854A864BC6EE877A82ED006AC3ED007A94
:1044D00004B0BDEC028B70BD082B00F29C81DFE8BC
:1044E00013F08100880033013A01900047009E00DC
:1044F000A000E0007249002202A802F0DDFB0024C7
:10450000F0231A462146BDF908000094BDF90A605F
:104510000AF05CFC4FF4A073054600942146304637
:104520001A460AF053FC00B263282DB227DCAF2DE7
:104530006B4B5FDC4A2D56DC6A4A1A606A4B49F2C3
:10454000D4421A6056E7694803F004FD5D4B024609
:1045500066481A6003F00AFD5B4B024663481A6026
:1045600003F00AFD594B186038E7AF2D40F3F58092
:104570005B4B5F4A1A605F4B01221A703AE7DC28F6
:10458000F3DDAF2D564B40F30C815B4A1A60524B62
:104590004FF07E521A602DE74C4E306831283FF4C0
:1045A00029AF002C3FF426AFA0F11D02282A7FF688
:1045B00021AF313B03FB03F3313800FB10300028FF
:1045C000B8BF40420EF0ECFD41EC100B0CF006FAC7
:1045D0003F4953EC102B00200EF094FC0FF0FAF83A
:1045E000286034E73E4B454A1A603C4B444A1A6007
:1045F00000E73B4B434A1A60384B4FF07E521A603B
:10460000F8E6374B404A1A60404B41494148012285
:104610001A7009F073FA374B00221A70EAE6304B31
:104620008AE72F4B3C4A1A603C4A2F4B49F2D4414F
:10463000186811600EF0B4FD394B00220EF044FFF3
:104640000FF010F99FED370A08EE100AA8EE080ADD
:10465000B5EE400AF1EE10FAF1EEC08A00F1D88012
:10466000314C32492B48FDEEE88AC4ED008A09F04E
:10467000A3F918EE100A0EF0A5FD41EC100B022173
:10468000244809F035FD2A49224809F095F92168A6
:1046900020480A2204B0BDEC028BBDE8704009F04E
:1046A0002FBB0F4B234A1A6023491A4809F026FAF8
:1046B00022482349234A012303600B60137099E6C3
:1046C0007408002064080020940B00200C0B0020CC
:1046D000008048400000C442E8090020E4090020AE
:1046E000680800205DA2FF0028000020000A0020CA
:1046F0004FB0FF00700800206F90FF00DD22FF0028
:10470000000080BF1FE0FF009768FF00100B002033
:1047100030590100A81600201DE2FF002C000020E7
:104720000000494040C20DC9340000203C5901003E
:104730004859010057A8FF0024590100340A0020FD
:104740008C080020380A0020564B574A1A60574BF5
:10475000574A1A604EE6534B17E74A2D514CD5BFC6
:10476000544B554B554956495648236009F0C6F9F4
:104770002368504A93429BD020DD534A93423FF432
:104780004AAF3FF737AE484A9342E0D00CDD4F4A7C
:1047900093423FF431AF02F5FF7293423FF444AFCE
:1047A00028E64A2DD1DC3DE7A2F58F520E3A93421E
:1047B0003FF4E1AE04B0BDEC028B70BDA2F57F52B8
:1047C000934206D14249434B0120002208701A70DF
:1047D00010E609DCA2F58B423A3A93423FF405AF6A
:1047E00004B0BDEC028B70BD3B4A93423FF4CFAEA8
:1047F00002F58F520E3293423FF4A0AE04B0BDECEE
:10480000028B70BDA0F11D02282A3FF605AEF1E52E
:104810000CF0A2F924E7234B2B4A1B6893423FF488
:10482000FAAE3FF7E7AD2D4A93423FF4FDAE3FF7B6
:10483000E1ADA2F5FF7293423FF4DEAE3FF7DAAD91
:10484000A2F5EF52023A934281D03FF7D3ADA2F5E1
:104850008F520E3A93423FF48EAE3FF7CBADA2F5A6
:10486000FF6293423FF420AF3FF7C4ADA2F2FA5289
:1048700093423FF463AE3FF7BDADA2F58F520E3ABF
:1048800093423FF484AE3FF7B5ADA2F5DB42123A56
:1048900093423FF4AAAE02F58B423A3293427FF440
:1048A000A9ADB1E6680800203DC2FF00E80900207C
:1048B000000080BF57A8FF009768FF00245901003F
:1048C00030590100A8160020DEC0AD0B1FE0FF002C
:1048D000100B0020700800206F90FF001DE2FF0009
:1048E0002DE9F04726212948294C08F02BFA2948C0
:1048F000272108F027FA2768274B00226E2F1A700D
:1049000014D02248254D6E2108F0FAFA462121489C
:1049100008F0F6FA142008F061FC08F021FC6E2380
:104920002860236008F01CFC2768286030220021E2
:104930001B48164D174C0FF059F81A483022002129
:104940000FF054F807F1050AC7F1AF09C7F1B40831
:10495000022600E001265146284608F0D1FA4946D1
:10496000204608F0CDFA642008F038FC3946284685
:1049700008F0C6FA4146204608F0C2FA642008F062
:104980002DFC012EE6D1BDE8F08700BFEC09002028
:1049900020080020F0090020040800201009002051
:1049A000CC080020980800202DE9F04F564ADFED92
:1049B000577A1668564B2DED028B0028DFED558A8D
:1049C000187014BF3C226E2283B008BFF0EE678AD5
:1049D00014BF782546259642019276D0002979D1D8
:1049E000002877D04C4BDFF83C91DFF83C81002267
:1049F00092469B46002433250EE00EF0E3FB3EA3D7
:104A0000D3E900230EF036FC41EC100B0BF000FF55
:104A10003D4B1E6853EC102B504659460EF072FA6F
:104A200000223E4B0EF026FC0EF01CFF03463046E3
:104A300008EE103A0EF0B4FB064618EE100A0F46C8
:104A40000EF0C0FB02460B46504659460EF05AFA8D
:104A500002460B46304639460EF00CFC68EE287ACA
:104A6000064617EE900A0F460EF0ACFB02460B46C8
:104A7000304639460EF048FA0EF0F4FE07EE900A82
:104A8000FDEEE77A484617EE906A17EE901A08F0A6
:104A900037FAC6F1B401404608F032FA042008F0B3
:104AA0009DFB20460EF08EFB15A3D3E900230EF0EC
:104AB0002BFA0EF0D7FE013D04469ED1184C124B46
:104AC000019A1A6008F04CFB206003B0BDEC028B29
:104AD000BDE8F08F01991348114C08F011FA2946EE
:104AE000114808F00DFA142008F078FB08F038FBA4
:104AF0002060E4E7AFF300801F85EB51B81E09404A
:104B00007B14AE47E17A943F200800200000DC428D
:104B100004080020000070420000F03F0000E03F69
:104B200010090020EC090020F00900202DE9F84FC1
:104B30002DED028BDFF864B1DFF874914D4E4E4DD0
:104B4000DFF850814D4F4FF0000A08F009FB99ED56
:104B5000008AD5ED007A336868EE277A044617EEAE
:104B6000900AE41A0EF02EFB0B46024659465046B8
:104B70000EF0AAFC0EF056FED8F8003003FB00F051
:104B800084421ED208F0ECFA3D4BD5ED007A93ED4D
:104B9000008A3B6868EE277A044617EE900AE41A0A
:104BA0000EF010FB0B460246594650460EF08CFCA8
:104BB0000EF038FE334B1B6803FB00F08442C4D375
:104BC00038E0314C314B207893F80080002108F018
:104BD000DDFD2F480368002B0BD0CCBF0123002341
:104BE000434506D02B4B2C49B0EE480A2246FFF72E
:104BF00063FB08F0B5FA306008F0B2FA204BD5ED4F
:104C0000007A93ED008A3B6868EE277A044617EE37
:104C1000900AE41A0EF0D6FA0B4602461F4900200D
:104C20000EF052FC0EF0FEFD164B1B6803FB00F36A
:104C30009C4219D31A4C1B4B20781D78002108F098
:104C4000A5FD19480368002B0BD0CCBF012300231E
:104C5000AB4206D00B4B1549B0EE480A2246FFF78F
:104C60002BFB08F07DFA3860BDEC028B0120BDE81B
:104C7000F88F00BF14090020300000201809002020
:104C80003C0A00204000002038000020410600209F
:104C9000500800203C000020840800200000F03F65
:104CA0004800002004000020080800208808002098
:104CB0001C090020000000002DE9F04F2DED048BB1
:104CC00085B00192F2B9BC4ADFF844B3BB4BDFF8C0
:104CD00044A3D2F8BC00D3F8BC40DBF80020DAF8DB
:104CE0000030B74902442344D1F8BC80CBF80020FF
:104CF000CAF80030B8F1000F1DDC05B0BDEC048B24
:104D0000BDE8F08FDFF80CA3DFF804B3DAF8004059
:104D1000DBF80020002980EAE07801EB0403A8EB2F
:104D2000E078B8BF494202448845CBF80020CAF871
:104D30000030DFDA884682EAE271A1EBE27106EE2A
:104D4000901A83EAE371A1EBE37107EE101A07EE04
:104D5000908AF8EEE66AF8EEE77AB8EEC77A86EE61
:104D6000A76A9849984D0968984F994C9948C1F19C
:104D70003001D20F55F82110974D3960D90FC7EE89
:104D8000276A2A700A4695490A70DFED958A9FEDD9
:104D9000959A84ED006AC0ED006A1C4624B18F4BE1
:104DA0001B78B3EBD47F0AD0DBF80030002B00F087
:104DB0008D80894A1278B2EBD37F40F08780019BC7
:104DC00063BB854B1B78002B41D064424FF0FF3210
:104DD000DBF80030844E854903FB02F39C42B8BFE8
:104DE0001C463B6832780C60A8EB0408A3EB080370
:104DF0003B6032B17E4A7F4B4FF068511160002218
:104E00001A707D4D08F0ACF92B68C01A362820D8EE
:104E1000A046FFF78BFEDAF80040BFE7764C08F0BB
:104E20009FF92368C01A3628F3D908F099F96E4E15
:104E300008F096F96E4A714BC2ED008A3578206011
:104E400000221A70002DE4D000233370E1E7012224
:104E5000BEE708F085F92B68C31A039308F080F9C0
:104E6000644B28601B78002B3AD0614B029393ED82
:104E7000008A634A002318EE100A13700EF0A2F99C
:104E8000357880468946002D40F0838003980EF0E7
:104E900077F943A3D3E900230EF0ECF942464B46E1
:104EA0000EF032F840A3D3E90023804689460EF085
:104EB00071FC00286AD1404649460EF0D3FC029AA4
:104EC0004E4B10600022A0461A70BBE74D4A0023EB
:104ED00013604B4A137005B0BDEC048BBDE8F08F36
:104EE000434B029393ED008A68EE087A17EE900A1E
:104EF0000EF068F9444B00220EF004F88046386842
:104F000089460EF04DF926A3D3E900230EF0B2F93D
:104F100002460B460DF0F8FF02460B464046494656
:104F20000EF038FC0028A4D0344ADFED387A012393
:104F30001370B4EEE78A324AF1EE10FA18EE100A56
:104F4000137069DC0EF03EF9357880468946002DF5
:104F50007FD103980EF014F911A3D3E900230EF0CA
:104F600089F942464B460DF0CFFF0FA3D3E900234A
:104F7000804689460EF00EFC002867D1404649461F
:104F80000EF070FC029BA04618605BE719EE100A59
:104F900095E707A1D1E9000180E700BFAFF30080EA
:104FA0001F5E73A99B0F573E081F7CF0C1077F3F10
:104FB000E3249FC569D1B33E20090020400A0020A8
:104FC00044060020FC020020400700203C0700208F
:104FD0001C0900203C0A002041060020040000209B
:104FE0006F12033B103EF83BFD080020F40900203F
:104FF00030000020C90800201009002061080020AE
:10500000900800206C0800200000903E0000003A4C
:1050100050080020080800200EF0D4F835788046AB
:105020008946D5B903980EF0ABF80FA3D3E9002356
:105030000EF020F902460B46404649460DF062FF4D
:105040000EF010FC029BA0461860FBE619EE100A59
:1050500098E707A1D1E9000183E705A3D3E900237D
:10506000EAE700BFAFF300801F5E73A99B0F573EB6
:10507000E3249FC569D1B33E2DE9F84F55EC104BA1
:105080002DED028B10EE100A2946002200235BEC66
:1050900011AB0EF07FFB002800F0838026462F46E0
:1050A00000220023504659460EF074FB002800F001
:1050B0008F80D046D94642464B46304639460EF0A0
:1050C0004BFB00283BD049EC188B42464B46304600
:1050D00039460EF05FFB08B146464F4653EC182B9D
:1050E000304639460EF0F0F90022002306460F46FE
:1050F000204629460EF04EFB00220023002854D003
:10510000504659460EF046FBE0B152465B462046FB
:1051100029460EF03FFB002840F08A807E4B00229B
:10512000304639460EF0A6F873A3D3E900230EF0FB
:10513000A1F841EC100BBDEC028BBDE8F88F47ECF9
:10514000186BC2E700220023504659460EF0FAFAC7
:10515000002840F0AD8050460BF1004122462B461E
:105160000EF0FAFA002800F0A6806B4B00223046C1
:1051700039460EF07FF802460B46002067490DF0D5
:10518000C1FE5DA3D3E900230EF074F85AA3D3E95E
:1051900000230DF0B9FEBDEC028B41EC100BBDE815
:1051A000F88F264605F100477AE7204629460EF09B
:1051B000C9FA88B150465946002200230EF0EAFA97
:1051C000002872D0BDEC028B9FED4D0BBDE8F88F2F
:1051D000D0460BF100496EE70022002350465946A5
:1051E0000EF0D8FA00283AD0204605F10041524688
:1051F0005B460EF0CFFA002864D0474B00223046C1
:1052000039460EF037F802460B46002043490DF0B0
:1052100079FE39A3D3E900230EF02CF8BDEC028B04
:1052200001F1004300EE100A00EE903ABDE8F88F5D
:10523000394B0022304639460EF01CF802460B4628
:10524000002036490DF05EFE2BA3D3E900230EF0BB
:1052500011F8BDEC028B41EC100BBDE8F88F002279
:105260000023504659460EF06DFA00283ED15246B2
:105270005B46204629460EF06FFA50BB264B30465F
:10528000394600220DF0F6FF1BA3D3E900230DF0F1
:10529000F1FF19A3D3E900230DF036FE01F100431D
:1052A00000EE100A00EE903A45E79FED170B42E73B
:1052B0009FED110B3FE7184B3046394600220DF0A9
:1052C000D9FF5EE7144B3046394600220DF0D2FF7D
:1052D0009FE7114B3046394600220DF0CBFF0246C6
:1052E0000B4600200D490DF00DFECDE79FED080B9C
:1052F00021E700BFAFF30080182D4454FB21F93F94
:105300000000000000000000182D4454FB2109405B
:10531000182D4454FB21F9BF0000E03F0000F03F8E
:105320002DE9F04F1446C64A00252DED048B15607B
:10533000C44A1570C44A8BB01570C44A9DF860A069
:105340000793CDE902011570002B6BD0C04BDFF83D
:105350004C93DFF81883BF4FDFF80CB3BE4E1946ED
:10536000181DBC220EF028FB4946BC2209F104009E
:105370000EF022FB41462F2208F101000EF01CFB2B
:1053800039462F22781C0EF017FB59464FF4BC7299
:105390000BF108000EF010FBB049BC22081D0EF006
:1053A0000BFB3146BC22301D0EF006FBAC494FF41E
:1053B000BC7201F108000EF0FFFA029AA44B0398A8
:1053C0001A601346034388F80040C9F8000087F8C4
:1053D00000A03560144610D00DF0E2FE41EC180B31
:1053E00020460DF0DDFEB0EE481AF0EE681A41ECF2
:1053F000100BFFF741FE8BED000B0299039A9748C3
:10540000984B0029B8BF4942002AB8BF5242914286
:10541000B8BF1146012201601A700BB0BDEC048BBD
:10542000BDE8F08FDFF82892DFF87082894E8E4F4A
:10543000894D4946BC2209F104000EF0BDFA4146EF
:10544000BC2208F104000EF0B7FA88492F22481C4C
:105450000EF0B2FA31462F22701C0EF0ADFA39462A
:105460004FF4BC7207F108000EF0A6FA7B49BC228B
:10547000081D0EF0A1FA2946BC22281D0EF09CFA48
:1054800077494FF4BC7201F108000EF095FA029BC7
:10549000039A7649C9F800300C700799C8F80020C3
:1054A0001C46134386F800A0296040F01181029B3E
:1054B00003996A4A6E4E002BB8BF5B420029B8BF01
:1054C00049428B42D7E900ABB8BF0B46644F13602B
:1054D0004FF000084FF0000950465946F6E802AB7D
:1054E00052465B460DF00EFD42464B4604460D46C5
:1054F0000EF050F928B905F1004300940193DDE95D
:1055000000455C4BB342E7E80245E5D15A4B5B4AA4
:10551000196812685A4B04925A4A5B4E92ED008AFF
:105520005A4ADFF87CB1099193ED007B00208A464E
:10553000CDF800B0CDF820B01268DFED558A07999C
:1055400006900546804605902E24B346B0EE479A55
:10555000F0EE679A3FE0012305939946404B03EB39
:10556000C403D3E900010EF07DF908EE100A0DF036
:1055700029FE2DA3D3E9002306460F460EF00AF9B3
:1055800050B132463B462AA1D1E900010DF0BAFCE8
:105590000EF068F908EE100A78EE888A18EE900A84
:1055A0000DF010FE24A3D3E900230EF0F3F8002839
:1055B00078D12E4B1B5D002B40F0868098464BF82F
:1055C000045D002C00F0E880013C0121B9F1000FDE
:1055D00040F091802A465346C4F12F0AB8F1000FDB
:1055E00040F0C180009A52F8043D04931D442846BF
:1055F00000920DF0D5FD274B06460F46002251ECD8
:10560000190B0DF081FC244B00220DF033FE0246F5
:105610000B46304639460EF0BDF800289BD1C146F6
:105620009CE700BFAFF30080182D4454FB210940D4
:10563000182D4454FB2119405069EB31C728DE3F37
:105640003C070020FE080020C90800206008002058
:105650002009002008070020400700204406002001
:1056600000030020FD080020880400201006002010
:105670009004002008060020FC020020F809002009
:10568000000900209408002000080020FC090020E8
:10569000000000000000F03F00004940400A0020E8
:1056A00004070020B9F1000F89D14C4B069A1B5D0D
:1056B000002B18BF1A4613464FF001080693CDF889
:1056C00014804FF000097AE7B9F1000FF4D076E7C3
:1056D00010460DF065FD41EC180B20460DF060FD05
:1056E000B0EE481AF0EE681A41EC100BFFF7C4FC5C
:1056F00087ED000BDBE6059BDDF820B01BB1384BD6
:105700004FF001021A70B8F1000F02D0354A0123A0
:105710001370354B049A1A60344B83ED008A069B54
:1057200013B1334A01231370324B1D60324BC3F85F
:1057300000A0324A0023BAF1010F136009DD304A9C
:10574000A2EB8A0A5BF8042DDA451344FAD12B4AFE
:105750001360DDE9020100220BB0BDEC048BBDE853
:10576000F04FFFF7A9BADDF820B0079100292ED03D
:105770000599D1B11A4C002020701A4801210170FE
:105780000799A9B9069921B1194801210170079912
:10579000B9B9DDF824A0CCE7059BDDF820B0002BDB
:1057A000B1D00F4B83F80090ADE70E480121017096
:1057B0000D49049808600D4981ED008A0699002979
:1057C000E2D10C490A600C4A9A461360B1E7059988
:1057D0000029CFD1034801210170D3E71006002032
:1057E000C908002060080020F80900209408002063
:1057F000FE080020FC090020FC0200203C070020DD
:105800000807002010B50F480F4C02F06DFC0F4840
:1058100001F0FCF94FF0FF33072209210C4807F093
:10582000C3F90C49204602F0F1F90B4A0B49204616
:105830000AF0E8FF0A4807F05FFABDE8104009489F
:1058400007F05ABA2C080020000A00207408002033
:105850001C0B00200414002000000020A5420000C2
:10586000EC090020F00900202DE9F04F2DED048B0C
:1058700000279FED629A624CDFED628ADFED629A4B
:10588000DFF8909187B080463D463E46B7EE008AED
:105890000DF1040B4FF0000A19E0002D68D1B4EEB1
:1058A000E88AF1EE10FA0DD5303B07EE903AF8EEAB
:1058B000E77AB2EE047AE9EE077AB0EE679A0EB1B3
:1058C00028EE078A0AF1010ABAF1140F1DD020460A
:1058D00002F07CFBC3B2092B0BF8013B7AD91A2BDF
:1058E00078D0242B76D0A3F13002D1B20929D4D9B3
:1058F0002E2B3BD02D2B66D0652B06D10AF1010A49
:10590000BAF1140F4FF00105E1D101A80DF0FAFF33
:1059100051EC100B0DF0A6FF07EE900AB5EE409A81
:10592000F1EE10FAF5EE407A08BF0127F1EE10FA19
:10593000C8F8000055D0F4EEE87AF1EE10FA04DC75
:10594000F4EEE97AF1EE10FA56D549462F4808F000
:10595000D5F801A92D4808F0D1F8204602F0E2FB65
:10596000A0EB0A01204602F0D3FB91E70126A9E74C
:10597000002A94D0F2EE047A312B88EE278A8ED05A
:10598000322B88EE278A8AD0332B88EE278A86D05E
:10599000342B88EE278A82D0352B88EE278A3FF475
:1059A0007EAF362B88EE278A3FF479AFB3F137020A
:1059B00088EE278A3FF473AF012A88EE278A18BF42
:1059C00088EE278A6BE7002DFFEE007A08BFB0EE65
:1059D000678A77E70027384607B0BDEC048BBDE83F
:1059E000F08F002FF7D101A9084808F087F808497F
:1059F000064807F0E1FFEEE70127ECE700000000B2
:105A00002C08002000401C4600401CC6A8160020A0
:105A100054590100605901002DE9F04F2DED048B20
:105A200087B0CDE901014FF000099FED938A934FB4
:105A30009FED939ADFED938A03921D46C846CA46AE
:105A40005DB19149914A924B8DED058A81ED008AB5
:105A500082ED008A83ED008A01258E4802F0B6FAB5
:105A6000C4B2242C41D0472C47D0582C6ED0592C8E
:105A700000F086805A2C00F09D80462C2DD0412CC1
:105A800029D0A4F12003DBB2192B00F2C880824A8E
:105A900022FA03F3DB07D3D4282C00F0D780502C54
:105AA00000F0D4807B4D47263C46284602F08EFA13
:105AB000C0B2092819D9242817D0B042F3D166788A
:105AC0000134002EF1D1734802F02CFBC11E714845
:105AD00002F01EFBB5E74FF0010A6E4802F076FABD
:105AE00005A8FFF7C1FE0028AAD14FF000094846DB
:105AF00007B0BDEC048BBDE8F08F664802F066FA93
:105B0000302879D0634EBB46304602F05FFAC0B20F
:105B1000092895D9242893D0A04209D0304602F014
:105B200055FAC0B209284FF04704BB46F2D887E7C0
:105B30009BF801400BF1010B002CE5D1554802F018
:105B4000F1FAC11E534802F0E3FA79E7534C514889
:105B500002F03CFA2046FFF787FE80460028C4D0BA
:105B6000D4ED007A4A4BF4EEE87AF1EE10FA3DD427
:105B7000019A4FF0000AC2ED007AC3ED007A5FE7A8
:105B8000474C444802F022FA2046FFF76DFE81465A
:105B90000028AAD0D4ED007A3C4BF4EEC97AF1EE9D
:105BA00010FA36DC029A4FF0000AC2ED007AC3ED1B
:105BB000007A45E7344C374802F008FA2046FFF7F0
:105BC00053FE002891D0D4ED007AF5EEC07AF1EEC4
:105BD00010FA30D4039A00231370B8F1000F27D0C5
:105BE000B9F1000F40D1C846CA4629E7019A1B689F
:105BF00013604FF0000A23E7264802F0E7F9C0B22D
:105C000030281FD031287FF41BAF039A0123137073
:105C100016E7029A1B6813604FF0000A10E70A2C7F
:105C200002D00D2C7FF438AF1A4802F0CFF907E705
:105C3000C146C24604E7BAF1000FCED1039A012350
:105C40001370CAE7039A00231370F9E6114C20463B
:105C500002F0BCF9C0B209287FF647AF24283FF410
:105C600044AF4728F3D1EBE60A4802F05BFA411E45
:105C7000084802F04DFA3AE7000000006C590100B4
:105C80000AD723BC0AD7233C5C0800205808002010
:105C9000540800202C0800200120FF0308090020E0
:105CA0000C090020000000002DE9F04F2DED048BC1
:105CB00085B01E46129F904B00911546002951D089
:105CC00001931C46009A23689342104620D18B4BC7
:105CD000D3ED007AF5EE407AF1EE10FA0BD0884B56
:105CE00093ED007AB5EE407AF1EE10FA1CBFC5EDE7
:105CF000007A86ED007A834B1B68003B18BF0123B6
:105D00003B700124204605B0BDEC048BBDE8F08F4C
:105D1000B2FA82F320605B093A4631462846FFF723
:105D20007BFE0446002800F0D080D5ED007AF5EE29
:105D3000407AF1EE10FA0CD096ED007AB5EE407A8A
:105D4000F1EE10FA05D06D4A6D4BC2ED007A83ED8D
:105D5000007A6C4B3A781A60204605B0BDEC048B93
:105D6000BDE8F08F1A46684801934FF0FF33DFF823
:105D7000C0911360824602F0CBF9C84647245046D2
:105D800002F024F9C0B209280CD924280AD0A04274
:105D900013D0504602F01AF9C0B20928C1464FF09C
:105DA0004704F2D859495A4807F0A8FE0024204673
:105DB00005B0BDEC048BBDE8F08F99F8014009F106
:105DC0000109002CDBD15048DFF844A1DFF86491D1
:105DD000DFF86481DFF864B102F0A4F9C11E4A481B
:105DE00002F096F94B49504607F088FE464802F00B
:105DF00099F9DFED497A494ACDED027A09EE100AA8
:105E0000B0EE678ACDED037AF0EE678AC9F800201C
:105E1000C8F8002032E007F0CFFDD5ED007AD9EDCB
:105E2000006A98ED007AF4EEE67AF1EE10FA58BFC7
:105E3000F0EE667AC9ED007AD5ED006AD6ED007A0B
:105E4000F4EE486AF1EE10FAF4EEC77AC8BFB0EE8D
:105E5000668AF1EE10FA58BFF0EE477AC8ED007A84
:105E6000D6ED007A8DED028AF4EE687AF1EE10FA42
:105E7000C8BFF0EE678A0134CDED038AB4FA84F32B
:105E80005B0931463A462846FFF7C6FD03465946A8
:105E90005046002BBFD122491D4807F08DFD0A2234
:105EA00021461B4807F02CFF1E49194807F084FDC6
:105EB0009FED0F0B0221164808F01AF919EE101A7F
:105EC000114802F025F9019CFCE6174A0B491368BA
:105ED0000B4D0C4E0C483460013313604FF07E5272
:105EE000124B0A6021462B6002F012F90AE700BF4C
:105EF000000000000000F03F080000201008002013
:105F000014080020240800202C08002088590100D3
:105F1000A81600209859010020BCBECC20BCBE4C65
:105F200074590100805901006C080020000080BFF6
:105F30006C59010014000020180000207059010065
:105F40002DE9F04FDFF85CA1DAF800408FB0844211
:105F500005460391904699462CD0484C204602F0C5
:105F6000F5F800283CD10DF1140B09AE444A45491F
:105F70005846012302F0A0F996E80F00424E069F12
:105F8000676007C6089A07993046C4E9021200F80C
:105F90001C390D9B236202F0D9F8044600283CD03E
:105FA0003A493B4807F008FD3549394807F0A6FD56
:105FB000CAF80050314802F0C9F8044618B9204622
:105FC0000FB0BDE8F08F189B009303994B464246F3
:105FD0002846FFF769FE044620460FB0BDE8F08F63
:105FE00020460DF1140B02F0A5F809AE294A254907
:105FF0005846012302F060F996E80F0004F1100CF6
:10600000ACE80700DDE907028CF8003006990D9B2B
:106010006160C4E902022362A8E71F4BDFF888B081
:106020001F681E4E07F1050AC7F1AF09C7F1B40892
:1060300003255146584606F063FF4946304606F0B0
:106040005FFF642007F0CAF83946584606F058FF4B
:106050004146304606F054FF642007F0BFF8013D8A
:10606000E7D10F490A4807F0A7FC0549084807F09F
:1060700045FD20460FB0BDE8F08F00BF2C08002082
:10608000BC590100881000203C080020C4590100C0
:10609000A8160020A459010020080020F0090020C3
:1060A000CC59010010000020EC0900202DE9F04F30
:1060B000DFF82C832DED088BD8F8003089B053BB66
:1060C000DFF82083DFF820930120FEF77FF9D8ED79
:1060D000007A99ED008AF5EE407AF1EE10FA40F080
:1060E000BB80B5EE408AF1EE10FA40F0B580A24ECA
:1060F000337823B9A14B1B78002B40F08C80002310
:106100000022C9F80030C8F80030327009B0BDEC88
:10611000088BBDE8F08F9A4D9A4CDFF8D0920020A2
:10612000FEF754F92B682268D9F800600133511C3E
:106130009E42216074D1904E0232337822606FF01B
:1061400009022A60002B40F084808F4C8F49904ACE
:10615000DFF888C28F4F0B600025156021462F2283
:10616000601C8CF80050C9F80050C8F800500DF0C1
:1061700023FC2F223946781C0DF01EFC97F82E10B8
:1061800094F82E0025703D70FEF70EFC824A0095B3
:106190002B46294628461278FFF7C2F83578DDB934
:1061A0002F267E4B7E4A13F8010D12F8011D587000
:1061B000A3425170F7D197F82E1094F82E00257055
:1061C0003D70FEF7F1FB002300951A46194618466C
:1061D000FFF7A6F8013EE4D1724C734A2368002110
:1061E0006E2B117013D07148714D6E2106F088FE30
:1061F0004621704806F084FE142006F0EFFF06F0FA
:10620000AFFF6E232860236006F0AAFF28606A496A
:106210006A4807F073FC09B0BDEC088BBDE8F08F4D
:10622000674A0DF117031068009306AA07AB3146C1
:10623000FFF786FE28B900238DF817002E6007931C
:1062400006934D4E3378002B00F0DA80236801333B
:106250002360D9F8003078E717EE900A0CF0B2FF0F
:10626000584BDFF88CB1DFF88CA100220DF002F85A
:1062700004460D46DBF800000CF092FF22462B4648
:106280000CF042FE0DF0A6FACBF8000018EE100A52
:106290000CF098FF4B4B00220CF0ECFF06460F462B
:1062A000DAF800000CF07CFF32463B460CF02CFE86
:1062B0000DF090FA444ADFF840E1DFF840C1CAF837
:1062C000000000231370414ACEF800308CF80030F3
:1062D0001370304639460DF07DFA294606462046B1
:1062E0000DF078FA01223146FEF7E6FCDBF80000FB
:1062F0000CF056FF0022334B0DF0E6F80DF0B2FA29
:106300000346DAF8000008EE103A0CF049FF2D4B76
:1063100000220DF0D9F80DF0A5FA2D4B1B6803FBF8
:1063200003F207EE902A07EE100AF8EEE77AB8EECD
:10633000000AD7EE077A07EE103AE8EE487AB8EE90
:10634000C77A28EE000A20EE070A87EE800A0AF0D4
:10635000A3FBF0EE408A0AF0AFFA1E4B68EE007A1B
:10636000B0EE680AC3ED007A0AF0EEFA1A4B28EE96
:10637000000A83ED000ABAE6100B00207008002026
:106380000C0000206C08002098080020140B00204E
:10639000080B0020CC08002028080020C708002097
:1063A000FB0800202008002004080020EC09002041
:1063B00010090020F0090020DC590100A816002077
:1063C0008C08002000004940C90800206008002017
:1063D000340000202000002024000020380A002083
:1063E000340A0020E4090020E8090020040B002002
:1063F000280000202C0000203C070020FE08002080
:10640000DDED067A964AF5EE407AF1EE10FA137059
:106410000DD09DED077AB5EE407AF1EE10FA06D078
:10642000904B93ED000A67EE808A27EE008AD9F838
:1064300000309DF81760002B64DC2568DFF8588277
:10644000894F8A4AC8ED008A01332E2B05F10105D8
:10645000CCBF00210121C9F80030256087ED008AFA
:106460001170834A834B92ED000AD3ED007A824B80
:1064700038EE000A78EEA77A20EE008AD3ED008A83
:10648000B0EE480AA7EEA70AF8EEE88AB1EEC07AA5
:10649000B5EE400AF1EE10FA17EE100A77EEE88A30
:1064A00000F1D780A8EEA88A0CF08CFE734B002276
:1064B0000CF0E0FE0DF08EF9F1EEC87A0135804661
:1064C0002560B5EE408AF1EE10FA17EE900A00F161
:1064D000B7800CF077FE694B00220CF0CBFE0DF07C
:1064E00079F9674B674A19681768C3F80080C71BBA
:1064F0006B1CA8EB0105236055EA0703106046D129
:10650000236088E6584FDFF8908197ED00AAD8ED18
:1065100000AA78EE4A9A38EEEA9A29EEA90AA9EE7C
:10652000090AB5EE400AF1EE10FAB1EEC0BA00F178
:106530008480256801352560B2EE067AB4EEC7BACC
:10654000F1EE10FA76DDCBEE077A4F494F480A6834
:10655000FDEEE77A17EE903A01339342036067D07D
:10656000013207EE902A07EE103AF8EEE77AB8EE1D
:10657000C77A67EEA99A27EE899A89EE870A0A6098
:10658000C9EE077A30EE0A8A77EEAA8A69E7404AAE
:10659000364C1368DFF8048101332E2B1360D4BF0F
:1065A0000123002398F80090237022DCDFF8F0A08C
:1065B000384C51462F220AF101000DF0FDF9214619
:1065C000601C2F220DF0F8F9002323708AF8009048
:1065D00001232E4A1468012CD4BF0024012486EA2A
:1065E0000902394628460094FEF79AFE88F80060B2
:1065F00011E6DFF8ACB0DFF89CA059462F220BF172
:1066000001000DF0D9F951462F220AF101000DF0D9
:10661000D3F900239BF82E009AF82E108BF80090E7
:106620008AF80030FEF7C0F9237898F80090D0E798
:1066300000230B60D9F8003003E70AF08DFA78E701
:10664000B0EE480ACDED037A0AF086FA2568039881
:106650003FE78DED037A0AF07FFA2568039821E77A
:10666000380A0020440000201C0800201C000020E4
:1066700024000020200000203400002000004940B9
:10668000280000202C0000200C080020180B0020FF
:10669000080B0020CC080020180800202808002043
:1066A000980800202DE9F04F304F9FB0804606A893
:1066B0000C46154601F018FD06F04CFDB7F90C30FC
:1066C0009C4203DAB7F90E309D4202DB1FB0BDE8F1
:1066D000F08F0646264807F0F1F92649244807F0CE
:1066E0003DF94146224807F067F92721204807F085
:1066F00055FA424620490FA8012301F0DDFD13ABF6
:106700000FCB0DF1280CACE807008CF80030119B82
:106710001099129A089306A8179B079109920E9355
:1067200001F014FD8046D0B106A801F04FFC0346ED
:1067300006A88DF83C3001F049FC8DF83D00BDF80D
:106740003C2044F642539A421CD006A801F0F2FCC9
:106750000A49074807F062F91FB0BDE8F08F084901
:10676000034807F0FBF81FB0BDE8F08F1C0B0020BA
:10677000A8160020E859010088100020085A0100DE
:10678000F8590100CB49CC4807F0E8F806A801F019
:106790001DFC034606A88DF83C3001F017FC0346AB
:1067A00006A88DF83D3001F011FC034606A88DF8CF
:1067B0003E3001F00BFC8DF83F000A220F99BE48D5
:1067C00007F000FB06A801F001FC06A801F0FEFBA3
:1067D00006A801F0FBFB06A801F0F8FB06A801F0F3
:1067E000F5FB034606A88DF83C3001F0EFFB0346AD
:1067F00006A88DF83D3001F0E9FB034606A88DF8A8
:106800003E3001F0E3FB8DF83F00DDF83CB0AB49D2
:10681000A94807F0A3F80A225946A74807F0D2FA78
:10682000A749A54807F09AF806A801F0CFFB034650
:1068300006A88DF83C3001F0C9FB034606A88DF888
:106840003D3001F0C3FB034606A88DF83E3001F051
:10685000BDFB8DF83F000F9997480A2207F0B2FA66
:1068600006A801F0B3FB034606A88DF83C3001F002
:10687000ADFB034606A88DF83D3001F0A7FB0346AB
:1068800006A88DF83E3001F0A1FB8DF83F0006A868
:10689000DDF83CA001F09AFB034606A88DF83C30D9
:1068A00001F094FB034606A88DF83D3001F08EFB05
:1068B000034606A88DF83E3001F088FB8DF83F00B6
:1068C00006A8DDF83C9001F081FB034606A88DF890
:1068D0003C3001F07BFB8DF83D00BDF83C30012BD6
:1068E0007FF433AF06A801F071FB034606A88DF8CC
:1068F0003C3001F06BFB9DF83C207249029203464C
:106900006D488DF83D3007F029F80A2202996A484F
:1069100007F028FA029A182A7FF417AF06A801F0A8
:1069200055FB034606A88DF83C3001F04FFB0346AB
:1069300006A88DF83D3001F049FB034606A88DF806
:106940003E3001F043FB8DF83F000F9B002B7FF49E
:10695000FCAE5D495848049307F000F80A225146FE
:10696000554807F061FA7821534807F053F80A2296
:106970005148494607F09EF90AF1010202EB420232
:1069800022F00303B9F1000FCDE902A303DA049B5F
:10699000C9F100099846B7F90C30B7F90E704B48A9
:1069A000A2449A45C4BF1B1B029305EB0903BB42DB
:1069B0000299CCBF7F1B4F466A1E3A44631E92B2B7
:1069C0000B4400929BB22A46214606F0C3F8002FE2
:1069D0005CDD039B059609F1FF3903FB09B9DFF87C
:1069E000ECA0029E002304933C2406A801F09AFB2D
:1069F000B8F1000F0CBF59464946884203D006A89B
:106A000001F086FB3C24002E36DD00253C223B2C89
:106A10000DEB020106A813D901F072FB9DF83C3082
:106A20009DF83D209DF83E10504605F0C9FB01350C
:106A30000146504605F0A8FAAE424FF003041BD0C1
:106A40001EAB2046621CA11C23441EAC54FA82F2E9
:106A500054FA81F113F83C3C12F83C2C11F83C1C20
:106A6000C41C504605F0ACFB01350146504605F00C
:106A70008BFAAE42E4B2C9D1049B039A01339F4220
:106A80000493A9EB02099344AFD1059E10490A482B
:106A900006F064FF06F05EFB0A22811B064807F041
:106AA00055F90C49044807F029F806A801F042FB03
:106AB0000CE600BF245A0100A8160020305A01003D
:106AC000405A0100505A01005C5A01001C0B002082
:106AD0006C5A0100785A0100F8B53B484FF47A31FE
:106AE00008F0A6FA3949384807F008F80121532080
:106AF00006F0FEFD36485322002101F02FFB00284E
:106B000058D03448344D354C354E4FF4165107F0BB
:106B1000D1FF3448002105F0AFFF2D21324800F0AD
:106B200003F93048032105F0E9FF2E48002103F066
:106B3000A9FB002211462D48FFF7B4FD224806F0BC
:106B4000BDFF1FA3D3E90023C5E90023271D14F8C7
:106B5000010B012106F0CCFD16F8010B012106F016
:106B6000C7FDA742F3D13022002121480CF03EFF9F
:106B7000C02200211F480CF039FFC02200211E480E
:106B80000CF034FFFDF7ACFE1C490F4806F014FF73
:106B90001B4B0D4819680A2207F0B2F819490A4838
:106BA00006F00AFF95ED000B0748BDE8F84002210A
:106BB00007F09EBA1449044806F0A0FFA1E700BF01
:106BC00000000000809C3A40A8160020845A010072
:106BD0008810002004140020000900203800002044
:106BE000480000201C0B0020740800207C5A010083
:106BF00010060020400A0020200900208C5A0100C5
:106C000034000020985A01001C5901000022027033
:106C1000704700BFF0B50746264885B006463821C4
:106C200000F004FA0021304600F0FEF8304600F093
:106C30004DFA10223821304600F0A8F90DF1FF344A
:106C40000DF10F05304600F0C9F804F8010FA54218
:106C5000F8D19DF802309DF803609DF809109DF869
:106C600004509DF80A009DF806405A1E012A88BF6C
:106C700000239DF805203B7006F00F069DF80B30B1
:106C800045EA062501F00F0140EA01207D809DF8CC
:106C90000C10B88002F00F0512117A8103F00F0278
:106CA00044EA05241B1141EA0222FC80BB813A819F
:106CB00005B0F0BD980B002070B50D46044608469F
:106CC0001646FFF7A7FF2B780BB1012E04D900233E
:106CD0002360A380204670BD05EB46050123B5F96E
:106CE0000210B5F9062021806280A380204670BD85
:106CF00008B50C48382100F099F90221094800F044
:106D000093F8084800F0E2F901223821054800F024
:106D10003DF9044800F062F8C0B2032828BF002003
:106D200008BD00BF980B002010B525480C4600F0A8
:106D30000BF92348382100F079F98021204800F030
:106D400073F821461E4800F06FF81D4800F0BEF9A8
:106D50001B48382100F06AF9A821194800F064F8AE
:106D6000174800F0B3F901223821154800F00EF958
:106D7000134800F033F8C0B2112801D0002010BD34
:106D80000F48382100F052F9A3210D4800F04CF8CB
:106D90000B4800F09BF901223821094800F0F6F871
:106DA000074800F01BF8C0B2062807D0362805D0E7
:106DB000A0F16400B0FA80F0400910BD012010BDC0
:106DC000980B002000207047D0F81831D0F81C0133
:106DD000181A48BF00F58070704700BFD0F81C112A
:106DE000D0F81821914203460AD0D0F81C11D0F8EF
:106DF0001C2101440132D2B2087EC3F81C21704725
:106E00004FF0FF30704700BFD0F81C21D0F8183188
:106E10009A421DBFD0F81C31C018007E4FF0FF30E1
:106E2000704700BF704700BF0346807DD8B1D3F8DC
:106E30002022D3F824020132D2B2824216D0D3F8F3
:106E40002022D3F824020132D2B282420CD010B4F4
:106E5000D3F820421C44012084F820115DF8044B33
:106E6000C3F8202270477047012070470020704708
:106E70002DE9F0471746AAB34D1EDFF8708004468F
:106E8000C1F1010605EB020918E0D4F82032D4F86C
:106E900024220133DBB293421BD0D4F82032D4F841
:106EA00024220133DBB2934206D0D4F820222244BC
:106EB00082F82011C4F82032A94513D023681B683A
:106EC000434506EB050A15F8011F05D1A37D002BEC
:106ED000DBD15046BDE8F087204698470028F8D01F
:106EE000A945EBD1BA465046BDE8F087296E0000AF
:106EF0002DE9F843044600254FF48079114E4FF4F4
:106F00007A77C0E901578846174629464A4640F82D
:106F1000186B1E460CF06AFDC4F818514A46C4F8B6
:106F20001C5104F5907029460CF060FD27756675BC
:106F3000C4F82052C4F81080C4F82452A575204625
:106F4000BDE8F883B05A010038B504460D49006920
:106F50000D4D07F085FC206907F0EAF9207D00EB74
:106F6000400305EBC30393F9081006F03DFC607D78
:106F700000EB400305EBC30595F90810BDE8384068
:106F800006F032BCA0860100A461010070B5154670
:106F90000AB9284670BD0023C0F818310446C0F86D
:106FA0001C310122006907F0F7F910B9054628469F
:106FB00070BD206907F07AFAD4F81831D4F81C2192
:106FC0000133DBB2934205D0D4F818212244107665
:106FD000C4F81831012D26D90126206907F0C4F91B
:106FE0002069022107F0C8F9206907F05FFAD4F898
:106FF0001831D4F81C210133DBB2934206F10106AB
:1070000005D0D4F8182122441076C4F81831B542BE
:10701000E3D1EDB2206907F09FF92069032107F061
:10702000ABF9284670BD0125F4E700BF002301221B
:10703000C0F8203280F828128275C0F824327047D8
:10704000F8B5002204460F46827590F828120069B0
:1070500007F0A2F9A8B932E0D4F82422D4F82032FB
:1070600020699A421AD0D4F82462D4F82422264403
:107070000132D2B296F82011C4F8242207F0CEF9DA
:1070800088B1D4F82032D4F824525D1B48BF05F5EE
:107090008075002DE0D167B93846F8BDFF2107F0B3
:1070A000BDF90028EDD12069032107F065F903201F
:1070B000F8BD2069032107F05FF92846F8BD206973
:1070C000032107F059F90220F8BD00BF0121FFF7A5
:1070D000B7BF00BF10B54F4C206907F0BFF900B92A
:1070E00010BD206907F0CAF958BB206907F0D2F932
:1070F00018B1206907F0C8F9F0B9206907F0CAF99A
:10710000002837D0206907F02FF92069032107F004
:1071100033F9206907F0C4F90028E1D0D4F82C2213
:1071200000230121C4F82032A175C4F82432002ABA
:10713000D6D0BDE810401047206907F0B1F900280B
:10714000DBD1206907F010F92069032107F014F959
:10715000D4F8303243B1D4F81801D4F81C21801A85
:1071600048BF00F5807098470023C4F81831C4F870
:107170001C3110BD206907F07BF90028B0D02069D0
:1071800007F08EF9F0B1D4F82032D4F824229B1AFB
:1071900048BF03F58073BBB3D4F82422D4F820325F
:1071A0009A4231D0D4F82422D4F824322244013334
:1071B000DBB292F82011C4F82432206907F040F9BC
:1071C000A07510BDD4F81831D4F81C212069013302
:1071D000DBB293421AD007F069F9D4F81831D4F829
:1071E0001C210133DBB2934205D0D4F81821C4F836
:1071F0001831A3181876206907F0B6F82069032122
:10720000BDE8104007F0B8B8FF21D6E707F0A4F8B2
:10721000F4E700BF980B002010B54F4C206907F031
:107220001DF900B910BD206907F028F958BB206985
:1072300007F030F918B1206907F026F9F0B9206994
:1072400007F028F9002837D0206907F08DF8206969
:10725000032107F091F8206907F022F90028E1D016
:10726000D4F82C2200230121C4F82032A175C4F8DF
:107270002432002AD6D0BDE810401047206907F01C
:107280000FF90028DBD1206907F06EF8206903218F
:1072900007F072F8D4F8303243B1D4F81801D4F8BA
:1072A0001C21801A48BF00F5807098470023C4F85D
:1072B0001831C4F81C3110BD206907F0D9F8002836
:1072C000B0D0206907F0ECF8F0B1D4F82032D4F84F
:1072D00024229B1A48BF03F58073BBB3D4F8242241
:1072E000D4F820329A4231D0D4F82422D4F824326F
:1072F00022440133DBB292F82011C4F82432206911
:1073000007F09EF8A07510BDD4F81831D4F81C21F0
:1073100020690133DBB293421AD007F0C7F8D4F8E2
:107320001831D4F81C210133DBB2934205D0D4F8D4
:107330001821C4F81831A3181876206907F014F83A
:1073400020690321BDE8104007F016B8FF21D6E7F9
:1073500007F002F8F4E700BF980B002010B54F4C7F
:10736000206907F07BF800B910BD206907F086F8A6
:1073700058BB206907F08EF818B1206907F084F82F
:10738000F0B9206907F086F8002837D0206906F0A8
:10739000EBFF2069032106F0EFFF206907F080F87A
:1073A0000028E1D0D4F82C2200230121C4F8203297
:1073B000A175C4F82432002AD6D0BDE81040104789
:1073C000206907F06DF80028DBD1206906F0CCFFBA
:1073D0002069032106F0D0FFD4F8303243B1D4F84D
:1073E0001801D4F81C21801A48BF00F58070984716
:1073F0000023C4F81831C4F81C3110BD206907F00F
:1074000037F80028B0D0206907F04AF8F0B1D4F876
:107410002032D4F824229B1A48BF03F58073BBB3F3
:10742000D4F82422D4F820329A4231D0D4F824223D
:10743000D4F8243222440133DBB292F82011C4F88C
:107440002432206906F0FCFFA07510BDD4F8183175
:10745000D4F81C2120690133DBB293421AD007F023
:1074600025F8D4F81831D4F81C210133DBB293424B
:1074700005D0D4F81821C4F81831A318187620695B
:1074800006F072FF20690321BDE8104006F074BFCA
:10749000FF21D6E706F060FFF4E700BF980B00205D
:1074A00010B54F4C206906F0D9FF00B910BD206916
:1074B00006F0E4FF58BB206906F0ECFF18B1206924
:1074C00006F0E2FFF0B9206906F0E4FF002837D0AB
:1074D000206906F049FF2069032106F04DFF20696D
:1074E00006F0DEFF0028E1D0D4F82C220023012191
:1074F000C4F82032A175C4F82432002AD6D0BDE8E1
:1075000010401047206906F0CBFF0028DBD120692E
:1075100006F02AFF2069032106F02EFFD4F830324E
:1075200043B1D4F81801D4F81C21801A48BF00F5E3
:10753000807098470023C4F81831C4F81C3110BD7E
:10754000206906F095FF0028B0D0206906F0A8FF5A
:10755000F0B1D4F82032D4F824229B1A48BF03F5A6
:107560008073BBB3D4F82422D4F820329A4231D0AD
:10757000D4F82422D4F8243222440133DBB292F826
:107580002011C4F82432206906F05AFFA07510BDFE
:10759000D4F81831D4F81C2120690133DBB29342AE
:1075A0001AD006F083FFD4F81831D4F81C21013327
:1075B000DBB2934205D0D4F81821C4F81831A318CF
:1075C0001876206906F0D0FE20690321BDE810403E
:1075D00006F0D2BEFF21D6E706F0BEFEF4E700BFFC
:1075E000980B002010B54F4C206906F037FF00B90A
:1075F00010BD206906F042FF58BB206906F04AFF23
:1076000018B1206906F040FFF0B9206906F042FF8A
:10761000002837D0206906F0A7FE2069032106F074
:10762000ABFE206906F03CFF0028E1D0D4F82C2204
:1076300000230121C4F82032A175C4F82432002AA5
:10764000D6D0BDE810401047206906F029FF002879
:10765000DBD1206906F088FE2069032106F08CFE4C
:10766000D4F8303243B1D4F81801D4F81C21801A70
:1076700048BF00F5807098470023C4F81831C4F85B
:107680001C3110BD206906F0F3FE0028B0D020693F
:1076900006F006FFF0B1D4F82032D4F824229B1A69
:1076A00048BF03F58073BBB3D4F82422D4F820324A
:1076B0009A4231D0D4F82422D4F82432224401331F
:1076C000DBB292F82011C4F82432206906F0B8FE2B
:1076D000A07510BDD4F81831D4F81C2120690133ED
:1076E000DBB293421AD006F0E1FED4F81831D4F898
:1076F0001C210133DBB2934205D0D4F81821C4F821
:107700001831A3181876206906F02EFE206903218F
:10771000BDE8104006F030BEFF21D6E706F01CFEA3
:10772000F4E700BFCC0D002010B54F4C206906F0E7
:1077300095FE00B910BD206906F0A0FE58BB206977
:1077400006F0A8FE18B1206906F09EFEF0B9206987
:1077500006F0A0FE002837D0206906F005FE20695B
:10776000032106F009FE206906F09AFE0028E1D008
:10777000D4F82C2200230121C4F82032A175C4F8CA
:107780002432002AD6D0BDE810401047206906F008
:1077900087FE0028DBD1206906F0E6FD2069032181
:1077A00006F0EAFDD4F8303243B1D4F81801D4F829
:1077B0001C21801A48BF00F5807098470023C4F848
:1077C0001831C4F81C3110BD206906F051FE0028A4
:1077D000B0D0206906F064FEF0B1D4F82032D4F8BD
:1077E00024229B1A48BF03F58073BBB3D4F824222C
:1077F000D4F820329A4231D0D4F82422D4F824325A
:1078000022440133DBB292F82011C4F824322069FB
:1078100006F016FEA07510BDD4F81831D4F81C215E
:1078200020690133DBB293421AD006F03FFED4F850
:107830001831D4F81C210133DBB2934205D0D4F8BF
:107840001821C4F81831A3181876206906F08CFDA9
:1078500020690321BDE8104006F08EBDFF21D6E768
:1078600006F07AFDF4E700BFCC0D002010B54F4CB8
:10787000206906F0F3FD00B910BD206906F0FEFD99
:1078800058BB206906F006FE18B1206906F0FCFD21
:10789000F0B9206906F0FEFD002837D0206906F017
:1078A00063FD2069032106F067FD206906F0F8FDFD
:1078B0000028E1D0D4F82C2200230121C4F8203282
:1078C000A175C4F82432002AD6D0BDE81040104774
:1078D000206906F0E5FD0028DBD1206906F044FDB3
:1078E0002069032106F048FDD4F8303243B1D4F8C2
:1078F0001801D4F81C21801A48BF00F58070984701
:107900000023C4F81831C4F81C3110BD206906F0FA
:10791000AFFD0028B0D0206906F0C2FDF0B1D4F868
:107920002032D4F824229B1A48BF03F58073BBB3DE
:10793000D4F82422D4F820329A4231D0D4F8242228
:10794000D4F8243222440133DBB292F82011C4F877
:107950002432206906F074FDA07510BDD4F81831EA
:10796000D4F81C2120690133DBB293421AD006F00F
:107970009DFDD4F81831D4F81C210133DBB29342B9
:1079800005D0D4F81821C4F81831A3181876206946
:1079900006F0EAFC20690321BDE8104006F0ECBCCB
:1079A000FF21D6E706F0D8FCF4E700BFCC0D00209D
:1079B00010B54F4C206906F051FD00B910BD20698B
:1079C00006F05CFD58BB206906F064FD18B1206923
:1079D00006F05AFDF0B9206906F05CFD002837D0AA
:1079E000206906F0C1FC2069032106F0C5FC20696E
:1079F00006F056FD0028E1D0D4F82C220023012106
:107A0000C4F82032A175C4F82432002AD6D0BDE8CB
:107A100010401047206906F043FD0028DBD12069A3
:107A200006F0A2FC2069032106F0A6FCD4F830324F
:107A300043B1D4F81801D4F81C21801A48BF00F5CE
:107A4000807098470023C4F81831C4F81C3110BD69
:107A5000206906F00DFD0028B0D0206906F020FD59
:107A6000F0B1D4F82032D4F824229B1A48BF03F591
:107A70008073BBB3D4F82422D4F820329A4231D098
:107A8000D4F82422D4F8243222440133DBB292F811
:107A90002011C4F82432206906F0D2FCA07510BD74
:107AA000D4F81831D4F81C2120690133DBB2934299
:107AB0001AD006F0FBFCD4F81831D4F81C2101339D
:107AC000DBB2934205D0D4F81821C4F81831A318BA
:107AD0001876206906F048FC20690321BDE81040B3
:107AE00006F04ABCFF21D6E706F036FCF4E700BFFB
:107AF000CC0D002010B5074907483F233E22FFF771
:107B0000F7F9BDE810400549054818231922FFF789
:107B1000EFB900BF64160020980B002088160020E3
:107B2000CC0D0020002210B4FF244FF440710470EB
:107B300081805DF8044B427042808260C2600261C5
:107B4000704700BF38B52C4C23684BB9EFF3108257
:107B5000002A3FD172B6BFF35F8F284B01221A7003
:107B60002368274A274901332360138C03F01F033E
:107B700051F8230090B102EB031393F84E30D9B2C1
:107B800013F0010318D00378816802EB031201257A
:107B9000042382F84E50437001B18847236853B1E3
:107BA0002368013B236023682BB9144B1B7813B166
:107BB000BFF35F8F62B638BD8D070ED50178C568FB
:107BC00002EB0112022182F84E104370002DE5D025
:107BD000A847E3E7094A1370C2E74B07DED50178EF
:107BE000036902EB01120425072182F84E5041700F
:107BF000002BD3D09847D1E70410002000100020BC
:107C000000A0004108100020704700BF10B5FF23FE
:107C1000074A01600446C0F80720C3728381054902
:107C2000103007F0E1F80023C4E90B33204610BD03
:107C3000003131FF685A0100F0B52DED028B04468A
:107C4000C06983B008B105F071FE206A08B105F083
:107C50006DFE05F07FFA002642F20F739FED388A21
:107C6000A36235466FF0604705E005F073FAA36A3A
:107C7000B6EB430F2DDC206803681B69984700288A
:107C8000F3D0206803685B69984702AB2B44013549
:107C9000042D03F8040CE8D10136012EDDED017A44
:107CA0002DD0B0EEE77AB4EEC87A7310F1EE10FA88
:107CB00003F1FF3212DC16F0010539D1E36903EB61
:107CC0008202C2ED007A05F045FAA36AB6EB430FD3
:107CD000D1DD012003B0BDEC028BF0BDD4E9071269
:107CE00003F18043023B9B00C8180568181D01443E
:107CF00013440D6002441B6813600025B5E7FDEED8
:107D0000E77A002517EE900AB842C4ED0A7A34BF2C
:107D100080004FF0FF3005F005FEA36AE061BB4232
:107D200034BF98004FF0FF3005F0FCFD20629CE767
:107D3000236A03EB8202C2ED007A002595E700BFBB
:107D4000002474492DE9F04704460068DFF80082FA
:107D500003687E4F1B6984B098470028D4BF002673
:107D60000126206803681B69984700284CDD2068BD
:107D700003685B699847C1B2FB296AD0FC297DD0B2
:107D8000FD2900F0B980FE2908D0F42940D0F92956
:107D9000E7D120680A2206F047F8E2E7394601A851
:107DA00007F022F805F0D6F905F0D4F904F1100A2D
:107DB000054641F2873904E0206803681B6998474B
:107DC000B8B905F0C7F9431B4B45F5D901A9504691
:107DD00007F02CF801A807F021F8E27932B1013A56
:107DE000D2B20132FF21201D0BF000FE0023E3710F
:107DF000B7E7206803685B699847C1B2FA2901A810
:107E0000E4D007F035F8DCE7304604B0BDE8F08791
:107E1000236B03B198472046FFF70EFFF5216073EF
:107E2000206805F0F7FD20680368DB68434540F0F3
:107E30008A80E27932B1013AD2B20132FF21201DAB
:107E40000BF0D4FDE36A0022E271002B89D0984741
:107E500087E705F07FF9054604E0206803681B69A1
:107E6000984738BB05F076F9401BB0F5FA7FF4D39C
:107E7000E279A3882381002AB1D1B7E705F06AF936
:107E8000054604E0206803681B69984718BB05F0A5
:107E900061F9401BB0F5FA7FF4D3E37922792273BC
:107EA000002BA3D0013BDAB20132FF21201D0BF0E1
:107EB0009DFD9BE7206803685B699847C0B2FA287C
:107EC000D6D0E379022B04EB030203F10103C9D0FE
:107ED0001071E371C6E7206803685B699847C0B218
:107EE000FA28DAD0E379022B04EB030203F1010351
:107EF000CDD01071E371CAE705F02CF9054604E016
:107F0000206803681B69984760B905F023F9401B96
:107F1000B0F5FA7FF4D3A288E37952BA6281002BDC
:107F2000C0D163E7206803685B699847C0B2FA284C
:107F3000F1D0E379022B04EB030203F10103E4D057
:107F40001071E371E1E7984773E700BF685A0100D9
:107F5000097C000010B50446FFF7F4FE207BFF23E8
:107F60009842237308BF4FF0FF3010BD10B5044690
:107F7000FFF7E8FE207A10BD10B50446FFF7E2FED9
:107F8000607A10BD006A10B103689B68184770479B
:107F9000006A38B1C269006947F6FF73101A984247
:107FA00028BF1846704700BF10B50446006A40B1AC
:107FB0000023436092B201F0B5F9236A5B6803B90C
:107FC00010BD01236360002010BD00BF006A78B1BE
:107FD00000B583B001220DF1070100F005FF012873
:107FE0000CBF9DF807004FF0FF3003B05DF804FBB5
:107FF0004FF0FF30704700BF10B50446006A82B0F2
:1080000080B101220DF1070100F0EEFE01280DD133
:10801000206A9DF807400169013900F09FFF204662
:1080200002B010BD0446204602B010BD4FF0FF3430
:10803000F5E700BF006A10B1012101F033B97047C4
:1080400010B50368104A5B6882B093428DF8071040
:1080500013D10446006A58B10023436001220DF198
:10806000070101F05FF9236A5B680BB902B010BD2C
:1080700001230020636002B010BD01220DF1070151
:10808000984702B010BD00BFA97F0000F8B50646B2
:10809000144B33604FF47A700024C6E90140282065
:1080A0000D4617460BF06AFC3062C8B1044605F174
:1080B000200E28686968AA68EB68A446ACE80F003F
:1080C000103575456446F4D128686968634603C372
:1080D0000C22394606F110000BF091FD0023337796
:1080E0003046F8BDD45A010004494FF47A728260D8
:1080F0000022C0E90012026202747047D45A0100E3
:10810000006A18B108B500F06FFE08BD704700BFE7
:10811000006A30B108B500F021FF003818BF012017
:1081200008BD7047036A0BB1186970474FF0FF3004
:10813000704700BF10B50446006A30B100F0A2FDE0
:10814000206A0BF023FC0023236210BD006A18B1E3
:10815000407A003818BF0120704700BF30B590F852
:10816000413083B004460D463BB90121204600F062
:10817000B9F968B9002003B030BD3830019200F081
:1081800081FD019A0121204600F0ACF90028F1D0D0
:108190002946204600F01CFC0028EBD004F1100515
:1081A00028460122214601F06DFD40B1294604F127
:1081B000380000F0F1FD003818BF0120DBE702466F
:1081C0002146284601F05EFD0028D3D0EEE700BF2F
:1081D0002DE9F04F9BB00024DFF8D8B007941031A0
:1081E000814606A8924601938DF8214011948DF89E
:1081F0004940CDF818B0CDF840B000F0CDFD06AE46
:10820000A046554610AF2F2128460BF0C9FC034667
:108210005C1B294602A8E4B20BB32B782F2B1CD091
:108220000C2C28BF0C2422460BF0E9FC1AAB23448B
:10823000384603F8608C00F025FD012302AA314680
:10824000384601F023F8034630465BB300F01AFDD0
:10825000334625443E461F46D5E70135D3E7019B0B
:1082600072683189307EF468A5EB0A051D60D6E995
:108270000435C9F80420A9F80810F269316AC9F870
:108280001030736A89F818004846C9E90721C9F80F
:1082900000B0C9F81450C9F80C40C9F824301BB01C
:1082A000BDE8F08F4846C9E900B389F809301BB032
:1082B000BDE8F08F0C5B0100F0B5A1B005461E468D
:1082C00002A801AB1446FFF783FF019AA15C144496
:1082D000002931D09DF811302A4F0C9700220D92C1
:1082E0008DF839202BB92846FFF7FEFE284621B02D
:1082F000F0BD0CA83346224602A900F0C7FF0028B3
:10830000F1D002A806F0060600F0BCFC062E33D021
:108310000D9BBDF838101098179322460F9B119CA7
:10832000ADF860101A901B9419939DF8481014989A
:10833000139C159B169713E0DDE90643039A114938
:10834000BDF810001792059A1691ADF860001A94C6
:108350001B9319929DF820100A98099C0B9B0A4ABE
:108360008DF870101E9016A928461D941F93FFF7D4
:108370008DFE284621B0F0BD13990CA800F0EEFD4B
:10838000C6E700BF0C5B0100F05A0100074B084A2A
:108390009A630221002219615A719A719A721A73B2
:1083A00083F83020DA6383F841207047881000207A
:1083B0000C5B0100013A18BF0122012B42710160E0
:1083C00005D0032B06D043B100230371704703236C
:1083D00003717047022303717047012303717047D3
:1083E0002DE9F041837905460F461646002B45D10D
:1083F000394C2378002B5BD02879DFF8E08000210E
:1084000005F0C4F904F0A6FE044605E004F0A2FE5F
:10841000031BB3F5967F05D2FF21404601F0AEFD68
:10842000FF28F3D12D4847F04001804601F0A6FD1A
:10843000182426FA04F1C9B2083C404601F09EFD1A
:1084400014F1080FF5D1BFB1082F14BFFF21872108
:1084500022480024064601F091FD02E0B4F5807F39
:1084600008D0FF21304601F089FD030604F1010424
:10847000E872F3D4BDE8F0819521E9E7038940F281
:1084800001245A1CA34202810AD8DFF85080FF2140
:10849000404601F073FD2B895A1CA3422A81F6D96C
:1084A0000D4C2879012105F071F923784BB9AB7196
:1084B0000B4B0A4893E806000123237001F01AFDD4
:1084C0009AE74FF00008054884F8008001F046FD67
:1084D000237885F806808DE7EC10002050130020EB
:1084E000F01000202DE9F04F002383B002710373D8
:1084F00083728371437105460E4604F02BFE012101
:1085000007462879DFF8348205F0F2F8012128794E
:1085100005F03CF9E946814801F0AAFC80490223B4
:1085200001224846FFF746FF99E80300C8F800001B
:10853000A8F80410794898E80600824601F0DAFCB1
:108540000A24FF21504601F019FD631E13F0FF04B9
:10855000F7D1DFF8ECA1714801F000FD9AF8003086
:10856000002B68D02879002105F010F905E004F00F
:10857000F1FDC01BB0F5FA6F5AD80022114628460B
:10858000FFF72EFF01280446E872F0D14FF4D572B0
:1085900008212846FFF724FF43072BD52C734FF003
:1085A000000B05E004F0D6FDC01BB0F5FA6F59D8FA
:1085B000002237212846FFF713FF5A462921284673
:1085C000FFF70EFFE8720028ECD12B7B022B4BD07B
:1085D0002879012105F0DAF89AF80030002B50D103
:1085E000062E4AD8052E00F29580DFE806F0786A5C
:1085F00066625E51494B4FF0040B1846FF2101F0B3
:10860000BDFC0BF1FF3B1BF0FF0B444BE872F4D1B8
:10861000AA284FF0020321D06B712879012105F0BF
:10862000B5F89AF800407CB9204603B0BDE8F08F59
:1086300001236B71F1E7012398E8060037488AF8B7
:10864000003001F057FC8DE7002434488AF80040E0
:1086500001F084FC204603B0BDE8F08F2B734FF08F
:10866000804BA5E70823D7E702463A212846FFF7C3
:10867000B7FEC0B306236B71CFE716236B710024DE
:10868000D2E7002325488AF8003001F067FCA7E70D
:108690002349022301224846FFF78CFE99E8030094
:1086A000C8F80000A8F80410BEE71E490223012202
:1086B000F1E71D4902230122EDE71C4902230122B3
:1086C000E9E71B49022301224846FFF773FE99E8B8
:1086D00003003446C8F80000A8F80410A4E71549C0
:1086E00002230122D7E7FF210C4801F047FC00F0EC
:1086F000C000C02804BF03232B73FF21074801F0EB
:108700003DFCFF21054801F039FCFF21034801F041
:1087100035FC5DE7084902230122BCE75013002025
:1087200090D0030020A1070040420F0080841E006B
:1087300000093D0040787D0148E80100F01000206C
:10874000EC100020F8B583790446154613B1036890
:1087500099423FD0237B2160032B18BF49020A4670
:1087600020461121FFF73CFE48B103233D4D6371C4
:108770002079012105F00AF8287820BBF8BD04F023
:10878000E9FC394F064605E004F0E4FC831BB3F531
:10879000967F5ED8FF21384601F0F0FBFF28E0729B
:1087A000F2D0FE2831D00D2363712E4D20790121A6
:1087B00004F0ECFF2B78002BDAD000232A482B7032
:1087C00001F0CCFBD4E7002427482C7001F0C6FB55
:1087D0002046F8BD0389002BBCD1234F6E1E05F245
:1087E000FF15FF21384601F0C9FB06F8010FB5421D
:1087F000F7D12289A17A02F500739BB2238149B196
:10880000B3F5007F06D20120F8BD002201232281AA
:10881000A371E2E7A1790029F5D040F2012502F227
:108820000122AB42228109D80F4EFF21304601F0D0
:10883000A5FB23895A1CAB422281F6D9207901215C
:1088400004F0A4FF074B1A7832B90023A37101206A
:10885000F8BD0F236371A8E7002203481A7001F0E6
:108860007DFBF2E7EC10002050130020002B00F0FD
:108870009B802DE9F0411D461344B3F5007F04466B
:10888000164612DC837913B10368994217D0237B13
:108890002160032B18BF49020A4620461121FFF729
:1088A0009FFD002853D003236371474D2079012198
:1088B00004F06CFF287800286ED1BDE8F0810389B0
:1088C0009A42E4D39E420AD9404FFF21384601F034
:1088D00055FB2189013189B28E422181F5D8069B51
:1088E000DFF8E8806F1E13FA87F75E1EFF2140460F
:1088F00001F044FB06F8010FB742F7D12289A37AB1
:108900001544ADB2258113B1B5F5007F1CD3A37911
:10891000D3B140F201236A1C9D4222810AD82B4E1A
:108920001D46FF21304601F029FB23895A1CAB422A
:108930002281F6D92079012104F028FF224B1A78F0
:10894000002A3BD10023A3710120BDE8F08104F08F
:1089500001FCDFF87880074605E004F0FBFBC01B54
:10896000B0F5967F27D8FF21404601F007FBFF288E
:10897000E072F2D0FE2819D00D236371124D2079D8
:10898000012104F003FF2B78002B8FD000230F4828
:108990002B7001F0E3FA89E700240C482C7001F0F9
:1089A000DDFA2046BDE8F081012070470023012256
:1089B0002381A27186E70F236371DFE7002203485A
:1089C0001A7001F0CBFABDE7EC1000205013002024
:1089D00010B582B06C46204602230122FFF7EAFC64
:1089E00094E80300024B18600120998002B010BD8A
:1089F000F01000202DE9F0410446002953D01F4615
:108A0000037B032B16460A4618BF4A021821FFF7BC
:108A1000E7FC58B104233F4D63712079012104F034
:108A2000B5FE2878002842D1BDE8F0813A48FE2101
:108A3000804601F0A3FA751E06F2FF1615F8011F15
:108A4000404601F09BFAAE42F8D1FF21324801F0D6
:108A500095FAFF21304801F091FA2F48FF2101F0EB
:108A60008DFA00F01F03052BE07237D16FB304F0CD
:108A700071FB294F064605E004F06CFB801BB0F546
:108A8000167F3BD2FF21384601F078FAFF280546D1
:108A9000F2D100220D212046FFF7A2FC78B1142369
:108AA0001C4D6371B9E712231A4D4371B5E70024D9
:108AB00019482C7001F052FA2046BDE8F0811648A2
:108AC000294601F05BFA0028E9D12079012104F060
:108AD0005DFE104B1A78AAB90120A5E711230D4DB0
:108AE00063712079012104F051FE2B78002B94D082
:108AF000002309482B7001F031FA8EE71523054D4C
:108B000063718AE7044800221A7001F027FA0120F5
:108B10008AE700BFEC1000205013002038B5164D36
:108B20002B780446A3B12079002104F02FFEFF2109
:108B3000124801F023FA0121034620791C4604F073
:108B400025FE2B786BB9B4F1FF0018BF012038BDAA
:108B50000B4B0A4893E8060001232B7001F0CAF979
:108B6000E1E7002305482B7001F0F8F9B4F1FF00AC
:108B700018BF012038BD00BFEC10002050130020AA
:108B8000F0100020024B034A1A6000229A807047BE
:108B9000F010002000093D0070B590F90820037A1C
:108BA000002A04460D4608DB15B923F01003237292
:108BB0002846BDE8704000F089BD4069012100F001
:108BC000CBFDF0B1637A227E0E4E012B06EB4216EE
:108BD00098BFE3690C4A98BFF361236A12687383F4
:108BE0001B0CB38232B106F1160106F11800904752
:108BF000338B7382237A03F07F032372002DD7D146
:108C0000D3E770BD00110020F810002070B500F10E
:108C10000C0206460121406A00F0E6FDF0B1336A1D
:108C2000F3B1F268337A716A43F020033372087C3F
:108C30004B690D79023A02FA00F42344C5B16C1E67
:108C4000E2B2023DAD1A1D441C4401E0A5420DD024
:108C50002046013C00F06EFE0028F7D1002070BDD8
:108C6000337AF268326243F08003DCE7736A187C7F
:108C7000F3694FF4007202FA00F00344F36101203B
:108C800070BD00BF38B5437A63B190F90830002B4E
:108C9000044609DB012000F019FD18B100236372BE
:108CA000012038BD002038BD4069012100F054FD8D
:108CB0000028F7D0637A227E0F4D012B05EB421579
:108CC00098BFE3690D4A98BFEB61236A12686B8312
:108CD0001B0CAB8232B105F1160105F1180090476B
:108CE0002B8B6B82237A03F07F032372012000F029
:108CF000EDFC0028D2D1D5E700110020F8100020AB
:108D00002DE9F0414FF0203305464B600B60C1F870
:108D1000073015F8014B84B08C4694B11D4F4FF0CD
:108D2000000E4FF007086E462E2C10D1B8F10A0F36
:108D30002CD04FF0080E4FF00A0815F8014B002C0C
:108D4000F2D19CF80000203818BF01201FE097E8FE
:108D50000F0086E80F00324601E0A34216D012F859
:108D6000013B002BF9D1C64510D8A4F121035D2B9E
:108D70000CD8A4F16103192B9CBF203CE4B20EF186
:108D800001030CF80E405FFA83FED6E7002004B022
:108D9000BDE8F081F45A010038B5437A3BB991F847
:108DA0002020102A04460D4603D0202A10D000208F
:108DB00038BD022242724A8C03625201C261002312
:108DC000012020722376C4E903336562636138BDF4
:108DD00003234372496A016200F11C02284600F035
:108DE000E1FD0028EBD1E2E72DE9F04F064685B022
:108DF000407A0392002800F0A080337ADC0740F12B
:108E00009C80F3690F46114632699B1A994284BFD0
:108E10009BB20393039D002D00F09480DFF8308116
:108E2000DFF83091DFF830A138E0706A0479013C56
:108E300004EA5224E4B2BBF1000F40D1002C3ED131
:108E4000002A34D1316AF16090F810C040690239CB
:108E500001FA0CF104442144CBF50074327AA542A6
:108E6000CCBFA4B22C46530602D4B4F5007F28D15F
:108E7000D9F800208A4224D0DAF8000000975A4638
:108E80002346FFF7F3FC002857D031692D1B6218E9
:108E9000ADB227443261002D54D0707A0228C2F35B
:108EA000080BC2D1716A496A01EB5221D4E7F1681B
:108EB00006F10C0200F0F8FD00283ED0706AF1685F
:108EC000C2E70846002100F047FCB0B30BF10401F3
:108ED0000BEB080341443A1D934238BF8F4203EB2A
:108EE000040E22D3621E072A1FD924F0030CBC44AF
:108EF0003A46194651F8040B42F8040B6245F9D181
:108F000024F00302944207EB020003EB0201BCD001
:108F10009B5CBB544B1C9E45B7D04B7843708B1C5D
:108F20009E45B2D08B788370AFE77A1E13F8011B91
:108F300002F8011F9E45F9D1A7E74FF0FF3005B0B9
:108F4000BDE8F08FBDF90C0005B0BDE8F08F00BFA3
:108F5000001100204C00002004130020F8B5437AD3
:108F60001BB3C2698A4204460F461ED3022B19D096
:108F700009B3436A01691D7C4A1E05F109037D1E80
:108F8000DA40DD40AA4212D9236AE36004F10C06FC
:108F900005E0E168606A00F087FD013D28B13246D6
:108FA000002DF6D127610120F8BD0020F8BD002971
:108FB000EAD0AD1AEAE7E16027610120F4E700BFDB
:108FC00038B5437A012B29D1037A9A07044625D56F
:108FD0005B0703D5C16903698B4221D1154B186822
:108FE000FFF79CFD0146C8B9237A13F020050CD188
:108FF000114A1268CAB9206943F01003C0F308008F
:10900000C0F50070237280B238BD627A1AB1204672
:10901000FFF7C2FD237A23F020032372002038BD1E
:10902000FFF79CFF0028D9D1F8E700F07DFB284628
:1090300038BD00BF0413002000130020F8B52D4BED
:1090400003EB41130446DE7A16F0110F154602D0E9
:1090500012F0420F1BD12176988A598B264A41EA99
:109060000041126821626261DA7A12F018070CD1AD
:10907000DA69E261012605F00F036806C4E90377A7
:109080006672237218D43046F8BD102F01D000202C
:10909000F8BD606A04F11C0200F084FC0028F6D0E0
:1090A00005F00F020421002322726A06C4E903338B
:1090B0006172ECD40120F8BDAB07E8D5002AE2D0FC
:1090C000606A00F05BFD0028E1D0237A627A2762B3
:1090D00063F07F03E7612372002AD8D0314620462F
:1090E000FFF75AFD0028D2D039462046BDE8F840A7
:1090F000FFF734BF001100204C0000202DE9F04F95
:1091000085B00DF1040807460C46104641469A46C4
:10911000FFF7F6FD002878D0E369626A7A620026DC
:10912000C4E90366002B6CD0DFF850B1DFF858912A
:1091300032460AE0E5296CD05BF80310D8F800301D
:109140008B4269D0E369934225D9637A012BC2F33C
:1091500043155AD901220DF103012046FFF744FEC1
:10916000012852D122696B011F3222611BF80310C2
:109170000BEB45100029DDD1002E68D1D9F8001085
:109180003D7679611BF80330002B60D0E369934290
:109190004FF00106D9D80AF01203122B35D1002E58
:1091A00059D1637A022B30D02046FFF72FFD60B3F0
:1091B0000023324C3B7698E80700314D23462E6859
:1091C0000025C4E90255C4E90455C4E9065503C3A2
:1091D000130C2281A372002E47D004F10E0104F17A
:1091E0001000B047238AE289638201202383E28250
:1091F00000F06CFA48B1397E52463846FFF71EFF40
:1092000004E00AF01203122BCBD0002005B0BDE819
:10921000F08F002EBAD1B1E74168029B8B4200F17A
:1092200004008FD1BDF80C1030F8043F994289D169
:1092300083789DF80E10994284D10AF03003302BC8
:10924000E3D0524629463846FFF7F8FEDEE70AF03B
:109250001203122BD9D17869012100F07DFA002880
:10926000D3D03C7E0BEB4414A5E7064BC4F80E307C
:109270004FF4006242F62103B6E700BF0011002060
:10928000F8100020000821284C00002010B4447A77
:109290001CB100205DF8044B70475DF8044BFFF7EC
:1092A0002DBF00BF437A002B36D070B590F908204F
:1092B000037A002A04460D4608DB15B923F0100393
:1092C00023722846BDE8704000F000BA40690121D1
:1092D00000F042FAF0B1637A227E104E012B06EBC9
:1092E000421698BFE3690E4A98BFF361236A126879
:1092F00073831B0CB38232B106F1160106F118001C
:109300009047338B7382237A03F07F032372002DFF
:10931000D7D1D3E7002070BD002070470011002096
:10932000F81000202DE9F04F437A85B0012B074655
:10933000019240F0A880047AA50740F1A48062075A
:109340000E4600F19580019B3A69002B7AD0019D71
:10935000DFF87082DFF870A284F01004C4F3001903
:10936000AB46786A0179013901EA522111F0FF0117
:10937000C2F3080540F08D80002D40F0C880F968E8
:10938000002940F0DC803B6A002B00F0EA80FB60A3
:10939000047C4269BBF5007FA3F1020101FA04F1EC
:1093A0005C4628BF4FF40074BBF5007F114480F089
:1093B00099803A69FB69934240F285800846012111
:1093C00000F0CAF900285ED0291D41444544331DF0
:1093D0009D4238BF8E4205EB040E2246C0F0A680A7
:1093E000631E072B40F2A2804FEA940C05EB8C0C15
:1093F0002B46314651F8040B43F8040B6345F9D171
:1094000024F003018C4206EB010305EB01000ED0B2
:1094100016F801C005F801C0411C8E4506D05978E8
:109420004170811C8E451CBF9B78837033191E468A
:109430003B69ABEB040B1A441FFA8BFB3A61BBF19F
:10944000000F8ED1FB69934280F0A6803C7AFA61CE
:1094500044F080043C72230706D57B7A9BB101213E
:109460003846FFF799FB70B1019805B0BDE8F08F61
:10947000C2690369934200F08A801146FFF76EFDCE
:1094800000287FF460AF01237B60002005B0BDE8B9
:10949000F08FFB6890F810C04069C5F50074A4B265
:1094A0005C45A3F1020303FA0CF328BF5C460344B6
:1094B000B4F5007F194415D0002D7FF47FAFFB6910
:1094C00093423FF67BAF0120009100F0FFF80028A7
:1094D000D9D0384A00991378CAF8001043F0010334
:1094E000137071E7DAF800308B4204BF4FF0FF339E
:1094F000CAF80030304B324618684B46FFF77AFA0C
:109500000028C0D04FF400721644144690E7FB6860
:1095100090F810C04269C5F50074A4B2991E01FA12
:109520000CF15C45114428BF5C4647E7013D331907
:1095300016F8011B05F8011FB342F9D177E703AA1A
:1095400000F0B2FA0028A1D0786A1C4990F82040B7
:10955000039B4FF6F872102C18BF0A469342FFF493
:1095600016AF07F10C02012100F03EF900288AD065
:109570003B6A33B1FB683A7A786A42F020023A7269
:1095800006E73A7AFB683B6242F08002F4E7019B0F
:10959000002B7FF4DCAE5EE7094B1B6843B1019BF7
:1095A0003C7A002B3FF457AF44F080043C7252E702
:1095B0003C7A50E7FC10002004130020F8FFFF0F56
:1095C000F8100020001100204C00002000B583B0EE
:1095D0000B4601220DF107018DF80730FFF7A2FEBF
:1095E00003B05DF804FB00BF2DE9F84F90F8203080
:1095F000DFF8CC90C669102B0D460446D9F8001050
:1096000017461AD006EBD516B1421AD1DFF8B4804E
:10961000294B05F07F0543F82570227E98F800302D
:10962000012A43F0010388F8003081BFA368234A70
:10963000F61816600120BDE8F88F06EB1526B1423A
:1096400014D0DFF88080DFF880A098F80030A3B94C
:10965000DAF80000184A3146FFF774F8E8B194F8D8
:109660002030C9F80060102BD2D101E0DFF854801F
:10967000114BEDB223F81570CFE70F4ADAF800006E
:109680000123FFF7B7F940B1DFF830B0DBF8001085
:1096900029B9002388F80030DAE70020CBE7064A32
:1096A000DAF800000123FFF7A5F90028F5D0002320
:1096B000CBF80030EDE700BF0011002000130020C0
:1096C0004C000020FC10002004130020F8B5114DC0
:1096D0002B780BB90120F8BD0F4B104E1968104ABA
:1096E000044623463068FFF785F938B1002CF1D0E5
:1096F0000C4F396821B900232B70EBE70020F8BD2F
:109700003068074A2346FFF775F90028F6D0002392
:109710003B60F0E7FC1000204C0000200413002008
:10972000001100200013002010B5084C216809B971
:10973000012010BD03460648064A0068FFF75AF9A3
:109740000028F6D000232360012010BD0013002064
:1097500004130020001100202DE9F8431D4F3B6841
:1097600083420C4606D11C4E3178214331700120D2
:10977000BDE8F883184EDFF86880327805465AB99C
:10978000D8F80000154A2946FEF7DCFF08B13D6015
:10979000EAE70020BDE8F8831946104AD8F800002F
:1097A0000123FFF727F90028F3D0DFF83890D9F824
:1097B000001011B900233370E2E7084AD8F800001E
:1097C0000123FFF717F90028E3D00023C9F8003080
:1097D000F0E700BF4C000020FC100020001100202A
:1097E00004130020001300202DE9F04F176883B008
:1097F000054601920091002F51D001374FF0000B28
:10980000E968481C8046A9B33C46A0453CBF0224F9
:1098100027468442DFF814A1DFF814914FF00006C8
:1098200028D895F82010E8691029D9F800102ED012
:1098300000EBD410814207D00021FFF78DFFC8B1A3
:1098400095F82010102926D004F07F015AF8211035
:1098500021F07041A1B101342746E9680136B142D7
:1098600008D9A04538BF022401F1010038BF2746BE
:109870008442D6D94FF0000B584603B0BDE8F08FB4
:10988000009B611CC81B984211D00C46E5E700EB19
:1098900014208842D0D1E1B23AF81110DAE7A1F1F0
:1098A000010BBBFA8BFB07684FEA5B1BA8E7012C97
:1098B000E0D9EA6801329442DCD86FF07042214668
:1098C0002846FFF791FE0028D4D0661EA742224604
:1098D0002846314610D2022CCCD0EC680134A64286
:1098E000C8D8FFF781FE0028C4D03446661EA742C0
:1098F000224628463146EED3019B196851B1012911
:10990000B8D9EA6801329142B4D83A46FFF76CFE02
:109910000028AFD0019B1F60BBF1000F02D14FF0B8
:10992000010BA9E701372F60A6E700BF0011002057
:109930004C0000202DE9F041154E164C33780546B9
:109940005BB94FF40072002113480AF04FF801236D
:10995000256033701846BDE8F081104F21683868E3
:109960000D4A0123FFF746F878B1DFF83480D8F8C4
:1099700000100029E5D03868074A0123FFF73AF8BC
:1099800018B10023C8F80030DBE70020BDE8F08103
:10999000FC1000204C0000200011002004130020C7
:1099A000001300202DE9F04FC36883B001339942C2
:1099B000019238D80646DFF8E08090F82000DFF802
:1099C000DCB0DFF8DC900C4600271028F569D8F8E9
:1099D00000102CD005EBD415A94212D02C4BDFF887
:1099E000C4A01B78002B38D1DAF800005A4629466B
:1099F000FEF7A8FEB8B196F82000C8F8005010286D
:109A000019D004F07F04327C5BF824404FF40073DB
:109A1000934024F070441F444B46A34217D9F36887
:109A20000133A342D1D2002003B0BDE8F08F05EB93
:109A300014258D42D2D1327CE4B24FF400739340AE
:109A40003BF814401F444FF6F873A342E7D8019B3C
:109A500001201F6003B0BDE8F08FDAF80000012399
:109A60005A46FEF7C7FF0028DDD00A4B196819B91E
:109A7000074A00231370B7E7DAF8000001235A46BB
:109A8000FEF7B8FF0028CED0024A00231360EFE7AC
:109A9000FC100020001300204C00002000110020CA
:109AA000F8FFFF0F041300202DE9F84FC3680133BE
:109AB0008B4241D390F82030DFF8B080C569102B7D
:109AC0000C460646D8F80010174622D005EBD415F0
:109AD000A94213D0DFF89890DFF898A099F80030E9
