:104000000000042061E600004DE600004DE60000DF
:104010004DE600004DE600004DE600000000000007
:104020000000000000000000000000004DE600005D
:104030004DE60000000000004DE60000DDE6000057
:104040004DE600004DE600004DE600004DE60000A4
:104050004DE600004DE600004DE600004DE6000094
:104060004DE600004DE600004DE600004DE6000084
:104070004DE600004DE600004DE600004DE6000074
:104080004DE600004DE600004DE600004DE6000064
:104090004DE600004DE600004DE600004DE6000054
:1040A0004DE600004DE600004DE600004DE6000044
:1040B0004DE600004DE600004DE6000029970000A7
:1040C00029970000299700002997000029970000F0
:1040D0004DE600004DE600004DE600004DE6000014
:1040E0004DE600004DE600004DE600004DE6000004
:1040F000000000004DE6000081E500008DE50000B5
:1041000099E50000A5E500004DE600004DE6000041
:104110004DE600004DE600004DE600004DE60000D3
:104120004DE600004DE6000085D70000C9D800002C
:104130000DDA000051DB00004DE600004DE6000006
:104140004DE600004DE600004DE600004DE60000A3
:104150004DE600004DE6000095DC0000D9DD0000D2
:104160001DDF000061E000004DE600004DE60000AC
:104170004DE600004DE600000000000000000000D9
:1041800051E6000001E7000011E70000F1E6000041
:10419000000000004DE600004DE600004DE6000086
:1041A0004DE600004DE600004DE600004DE6000043
:1041B0004DE600004DE600004DE600004DE6000033
:1041C0004DE600004DE600004DE600004DE6000023
:1041D0004DE600004DE600004DE600004DE6000013
:1041E0004DE600004DE600004DE60000D5E1000080
:1041F0004DE60000000000004DE600004DE6000026
:104200004DE600004DE600004DE600004DE60000E2
:104210004DE600004DE600004DE600004DE60000D2
:104220004DE600004DE600004DE600004DE60000C2
:104230004DE600004DE600004DE600004DE60000B2
:104240004DE600004DE600004DE600004DE60000A2
:104250004DE600004DE600004DE600004DE6000092
:104260004DE6000010B5054C237833B9044B13B16B
:104270000448AFF300800123237010BDD00200205A
:10428000000000001C86010008B5034B1BB1034968
:104290000348AFF3008008BD00000000D4020020F6
:1042A0001C86010010B5044610300CF083F820463F
:1042B00010BD00BF000000002DE9F843464CD4EDCE
:1042C000007A60EE277A054617EE900A14461F46DC
:1042D0000E4610F0A3F93AA3D3E90023804689469D
:1042E00010F084FC002848D037A3D3E900234046CF
:1042F000494610F07BFC40B34046494634A3D3E91D
:10430000002310F073FC8046002843D008233B6054
:10431000A07800210AF01AFD0021E0780AF016FDCD
:104320002B68002B1EDC40D103200AF035FA012156
:1043300020780AF00BFD05200AF02EFA20780021E3
:104340000AF004FD0020BDE8F88302233B6001462B
:10435000A0780AF0FBFC0121E0780AF0F7FC2B685A
:10436000002BE0DD3A689B1A2B60336813443360FE
:10437000607801210AF0EAFCD6E74FF00108C7F89F
:104380000080A07841460AF0E1FC4146E0780AF05E
:10439000DDFCC5E704233B60A07801210AF0D6FCD0
:1043A0004146E0780AF0D2FCBAE73A6813442B6041
:1043B00033689B1A3360607800210AF0C7FCB3E7CA
:1043C000D318308D01D3683FD318308D01D3783F97
:1043D000D318308D01D3883F3000002010B503681A
:1043E00082B004465B69984723688DF804005B69D6
:1043F0002046984723688DF805005B69204698475A
:1044000023688DF806005B69204698478DF8070001
:10441000019802B010BD00BF70B52DED028B0446AF
:1044200084B0002862D1A54805F08CFA002834D168
:10443000A34B1B685A1C0ED06CB1082B00F2808174
:10444000DFE813F0D200E3001501CB001D01DC0012
:1044500028012A012C019B4B9B4A1D681368312DB2
:1044600000F09B80A5F12702142A40F2B080312D84
:1044700005EB030240F39B80312B40F3D18093493D
:1044800093484FF0FF345B1B623A046093FBF2F3F6
:104490000B6004B0BDEC028B70BD884902A805F02A
:1044A0003DFA0024F0231A462146BDF90800009485
:1044B000BDF90A600BF04AFF4FF4A07305B20094F7
:1044C000214630461A460BF041FF00B263281DDC3E
:1044D000AF2D804B00F39A804A2D00F386807E4AF0
:1044E0001A607E4B49F2D4421A60D2E77C4802F04F
:1044F0001DFE734B18607A4802F024FE714B186061
:10450000774802F025FE704B18608CE7DC2873DDDD
:10451000AF2D704B62DC4A2D00F3AA80714A1A60FD
:10452000714A6E4B49F2D4411160186810F064F87A
:1045300000226E4B10F0F4F910F0C0FB9FED6C0AF6
:1045400008EE100AA8EE080AB5EE400AF1EE10FADD
:10455000F1EEC08A00F12A81664C67496748FDEE9A
:10456000E88AC4ED008A0AF0E5FC18EE100A10F0A3
:1045700055F841EC100B022160480BF051F86049EE
:104580005E480AF0D7FC21685C480A2204B0BDEC02
:10459000028BBDE870400AF079BE312B3FF479AF51
:1045A000A3F12702142A7FF674AF03F13102312BF5
:1045B00032DD474945480124C2F16202EB1A04602A
:1045C00092FBF3F30B6004B0BDEC028B70BDA3F162
:1045D0002702142A7FF65DAF49E73E4B494A1A602D
:1045E0003B4B01221A6054E73A4B474A1A60374B5B
:1045F0004FF0FF321A604CE7AF2D16DD354B434AC2
:104600001A60434B01221A7043E7324B414A1A6049
:104610002E4B01221A603CE72C492D48012432E739
:104620002B492A484FF0FF34C6E74A2D294CD5BF05
:10463000394B3A4B3A493B49304823600AF04CFD2C
:104640002368354A934230D040F38D80314A9342FB
:10465000DED040F39380234A93423FF461AF324A65
:1046600093427FF416AF2A4B00221A7011E7194BC0
:104670002E4A1A60164B4FF0FF321A6009E7154BAD
:10468000264A1A602A4B27491C4801221A700AF050
:1046900023FDE8E70F4B22E70E4B3FE70D4B1E4A89
:1046A0001A601F4915480AF017FD22482249234A7B
:1046B000012303600B601370EBE600BF6408002069
:1046C00054080020680B0020FC0A0020D4090020B8
:1046D000D8090020580800205DA2FF002800002013
:1046E000F00900201DE2FF002C00002000004940DE
:1046F00040C20DC934000020646C0100781600200F
:10470000706C01006F90FF00DD22FF004FB0FF00D2
:10471000600800201FE0FF0057A8FF009768FF0017
:104720004C6C0100586C0100DEC0AD0B3DC2FF00B7
:10473000000B0020240A00207C080020280A00200A
:104740001C4B1D4A1B689342ABD03FF77FAFA2F5CD
:104750007F52934296D01EDCA2F58B423A3A9342A6
:104760007FF497AE43E7A2F57F529342F3D113490A
:10477000134B0120002208701A708AE6A2F53F52FE
:10478000103A93423FF43DAF02F58F520E329342FE
:104790007FF47FAE6EE70B4A93423FF421AF02F500
:1047A0008F520E3293427FF474AE9AE60DF0DCFC29
:1047B000D2E600BF5808002057A8FF00000B0020D9
:1047C000600800206F90FF002DE9F047262129485E
:1047D000294C09F0B7FD2721284809F0B3FD2768C7
:1047E000274B00226E2F1A7014D06E212148254DC0
:1047F00009F082FE4621214809F07EFE142009F0CE
:10480000D9FF09F099FF6E232860236009F094FF17
:1048100027682860302200211B48164D174C10F0E5
:104820001FFB30220021194810F01AFB07F1050A7E
:10483000C7F1AF09C7F1B408022600E001265146CE
:10484000284609F059FE4946204609F055FE6420E5
:1048500009F0B0FF3946284609F04EFE4146204691
:1048600009F04AFE642009F0A5FF012EE6D1BDE85B
:10487000F08700BFDC09002010080020E0090020BC
:10488000F407002000090020BC0800208808002050
:104890002DE9F04FDFF87881DFED557AD8F8006028
:1048A000544B2DED028B0028DFED538A18700CBF9E
:1048B0006E223C2283B018BFF0EE678A0CBF4625FB
:1048C00078259642019273D0002976D1002874D0C1
:1048D0004A4BDFF83891002292469B46002533244C
:1048E0000EE00FF09BFE3EA3D3E900230FF0EEFE97
:1048F00041EC100B0DF0ECFAD8F8006053EC102BE3
:10490000504659460FF02AFD00223D4B0FF0DEFEC7
:1049100010F0D4F908EE100A30460FF06DFE06468E
:1049200018EE100A0F460FF079FE02460B4650466D
:1049300059460FF013FD02460B46304639460FF03C
:10494000C5FE68EE287A064617EE900A0F460FF06D
:1049500065FE02460B46304639460FF001FD10F069
:10496000ADF907EE900AFDEEE77A264817EE906A59
:1049700017EE901A09F0C0FDC6F1B401484609F0DF
:10498000BBFD042009F016FF28460FF047FE16A3D2
:10499000D3E900230FF0E4FC10F090F9013C054648
:1049A0009FD1194C019BC8F8003009F0C5FE20606A
:1049B00003B0BDEC028BBDE8F08F01991148124C99
:1049C00009F09AFD2946114809F096FD142009F0D6
:1049D000F1FE09F0B1FE2060E4E700BFAFF3008014
:1049E0001F85EB51B81E09407B14AE47E17A943F16
:1049F00000007042F40700200000DC420000F03F9D
:104A00000000E03FDC09002000090020E009002050
:104A1000100800202DE9F84F2DED028BDFF868918A
:104A20004B4E4C4DDFF84481DFF860B14A4FDFF860
:104A300050A109F081FE99ED008AD5ED007A346825
:104A400068EE277A041B17EE900A0FF0E7FD0B467D
:104A50000246424900200FF063FF10F00FF9D8F82A
:104A6000003003FB00F084421CD209F065FE9BED90
:104A7000008AD5ED007A3C6868EE277A041B17EEB1
:104A8000900A0FF0CBFD0B460246344900200FF090
:104A900047FF10F0F3F8DAF8003003FB00F084422F
:104AA000C7D336E02E4C2F4B207893F8008000219E
:104AB0000AF04CF92C480368002B0BD0CCBF012323
:104AC0000023434506D0B0EE480A2246274B28492A
:104AD000FFF7F2FB09F030FE306009F02DFE9BED90
:104AE000008AD5ED007A3B6868EE277AC41A17EE83
:104AF000900A0FF093FD0B460246184900200FF074
:104B00000FFF10F0BBF8DAF8003003FB00F084422E
:104B100019D3184C184B20781D7800210AF016F98B
:104B200016480368002B0BD0CCBF01230023AB42F7
:104B300006D0B0EE480A2246114B1249FFF7BCFBE3
:104B400009F0FAFD3860BDEC028B0120BDE8F88F5A
:104B50000409002030000020080900200000F03F78
:104B60003800002031060020400800203C000020D2
:104B7000740800204800002004000020F8070020EE
:104B800040000020780800200C0900202C0A00209A
:104B90002DE9F04F2DED028BDFF834B3DFF834A3AD
:104BA000DBF80060DAF8004089B0002A40F0E780C6
:104BB000B549B64BD1F8BC00D3F8BC30B449064473
:104BC0002344D1F8BC80CBF80060CAF80030B8F1BB
:104BD000000F76DD019286EAE672A2EBE67206EE3F
:104BE000902A83EAE372A2EBE37207EE102A07EE43
:104BF000908AF8EEE66AF8EEE77AB8EEC77A86EEC3
:104C0000A76AA44AA44D1168A44FDFF8CC92A44C23
:104C1000A448C1F13001F20F55F821103960D90FC5
:104C2000C7EE276A89F800200A469F4945460A7060
:104C3000DFED9E8A84ED006AC0ED006A23B19A4AD6
:104C40001278B2EBD37F08D0DBF80020002A33D0F3
:104C500099F80010B1EBD27F2ED1019A002A35D1FC
:104C600099F80020002A4DD05B424FF0FF32DBF86C
:104C70000040DFF868828E4904FB02F49C42B8BF12
:104C80001C463B6898F800200C602D1B5B1B3B60AA
:104C90002AB1884A8849894B116000221A70884DD0
:104CA00009F04AFD2B68C01A4A282DD82546FFF77F
:104CB000B1FEDAF80030C1E7824A00231360824A6D
:104CC000137009B0BDEC028BBDE8F08F7C4C09F08D
:104CD00033FD2368C01A4A28E9D909F02DFDDFF811
:104CE000FC8109F029FD734A784BC2ED008A98F8DF
:104CF0000060206000221A70002ED8D0002388F8AF
:104D00000030D4E70122B2E709F016FD2B68C31A80
:104D1000059309F011FD694B28601B78002B41D0E9
:104D2000644B049318680FF079FCCDE9020198F800
:104D30000060654A00231370002E40F090800598B3
:104D40000FF04AFC48A3D3E900230FF0BFFCDDE9D4
:104D500002230FF005FB00224FF07E53CDE9020144
:104D60000FF044FF002877D1DDE902010FF0A6FF24
:104D7000049A564B1060002225461A70BCE70029A1
:104D800080EAE07804EB0103A8EBE078B8BF494281
:104D900006448845CBF80060CAF80030BFF617AF6C
:104DA000884617E7434A049292ED008A18EE100AEB
:104DB0000FF034FC68EE087ACDE9020117EE900A94
:104DC0000FF02CFC2AA3D3E900230FF0C7FACDE99A
:104DD0000601386898F800600FF00EFC22A3D3E9B2
:104DE00000230FF073FC02460B460FF0B9FA02469F
:104DF0000B46DDE906010FF0F9FE002899D0334A91
:104E000001231370304ADDE9020113701AA3D3E9BC
:104E100000230FF0EBFE002862D1002E78D1059818
:104E20000FF0DAFB10A3D3E900230FF04FFCDDE90C
:104E300002230FF095FA00224FF07E53CDE90201D4
:104E40000FF0D4FE002860D1DDE902010FF036FF3B
:104E5000049B254618604FE74FF0705088E708A183
:104E6000D1E9000173E700BF4F3A964CAE3C593E82
:104E7000D64EB46EF796923E2447348D0E3F413F96
:104E8000550CC0411C93BD3E10090020300A002083
:104E900034060020EC020020300700202C07002000
:104EA0000C0900202C0A0020040000206F12033B94
:104EB000E40900203000002074F8093AB908002005
:104EC000000900205C080020800800205108002014
:104ED00040080020F807002031060020ED080020DF
:104EE000D6B905980FF078FB0DA3D3E900230FF096
:104EF000EDFB02460B46DDE902010FF02FFA0FF041
:104F0000DDFE049B25461860F6E64FF070509FE7E3
:104F100005A1D1E900018AE703A3D3E90023EAE769
:104F20004F3A964CAE3C593E550CC0411C93BD3E89
:104F30002DE9F04FA84BDFF8E4A2DFF8E492DFF8A8
:104F4000E482A64FA64D00262DED028B1E60A54BD8
:104F50001E70A54B1E70A54B89B051468346BC22DE
:104F60000AF104001E700FF062FF4946BC2209F1ED
:104F700004000FF05CFF9E492F22481C0FF057FFE2
:104F800041462F2208F101000FF051FF39464FF43E
:104F9000BC7207F108000FF04AFF9649BC22081DB9
:104FA0000FF045FF94490846BC2204300FF03FFF44
:104FB00029464FF4BC7205F108000FF038FF8E4807
:104FC0008B4B8C4ACAF80060066007F1080483F82E
:104FD00000B0C9F8006088F800601660D7E90001E9
:104FE00007F5C07A05E05445E5E8028917D0304658
:104FF0003946F4E8026732463B460FF0AFF900222B
:105000000023804689460FF0F1FD0028EBD109F11D
:1050100000435445C5E9008305F10805E7D1774A07
:10502000774B12680492774ADFF8FCB1D2ED008A20
:10503000754A9FED768A1168754A93ED007B0020D2
:105040001268079005468DED027B06900746059095
:10505000064603462F24DA4640E0B1467AE90201CB
:105060000FF02CFE08EE900A0FF0D8FA54A3D3E903
:105070000023CDE900010FF0B9FD50B1DDE90023B7
:1050800051A1D1E900010FF069F90FF017FE08EE08
:10509000900A38EE288A18EE100A0FF0BFFA4CA3D7
:1050A000D3E900230FF0A2FD00283CD1504B23444C
:1050B00013F8013C002B58D0B9F1000F3DD1CDE9D8
:1050C00006334D4B013C43F8085000F0DF800127C8
:1050D0000597B9465A464E4601232946C4F1300B7E
:1050E000002E5ED1434B53F8243004931D442846D0
:1050F0000FF082FA002280468946464BDDE9020124
:105100000FF02EF90022444B0FF0E0FA02460B4656
:10511000404649464FEA84080FF068FD00289CD0BD
:105120000127B9469AE7B9F1000F06D1304B234465
:1051300013F8013C002BC4D0C1E72F4B012C59467A
:1051400043F808501BD1A246059B002B40F0AA80D3
:105150002C4BC3ED008A2C4B1D602D4B1960002F8A
:105160006FD0214B83F800A06BE0234B013C43F848
:10517000085000F09A80B9F1000FABD05946059B5A
:1051800013B11A4A002313701E4BC3ED008A1E4B45
:105190001D601F4B1960002F53D0134A0123137059
:1051A0004FE00598002B41D1002875D1002F4BD03E
:1051B0000D4900220A70002B46D042E0AFF3008078
:1051C000182D4454FB210940182D4454FB2119404B
:1051D0005069EB31C728DE3F2C07002078040020FF
:1051E000F0020020EE080020B9080020500800203E
:1051F000000600203406002030070020E8090020C7
:10520000F008002084080020EC09002000000000C5
:10521000EC0200200000F03F00004940100900208F
:10522000300A0020F806002068040020002833D14E
:105230002048C0ED008A2048016020490A60002F04
:10524000B6D11F4B049A1A60079B1BB11D4B9DF8EA
:1052500018201A70194B19681B4B002201291A607B
:105260000ADD1A4B181DA0EB810053F8041D98426B
:105270000A44FAD1144B1A6000221146104609B0B4
:10528000BDEC028BBDE8F04FFFF782BC0127594609
:10529000A24605973E4657E70D4C01202070002B93
:1052A00084D0C5E70A4B1E7052E75946CA462646C7
:1052B0004AE700BF84080020EC090020EC0200202F
:1052C000E8090020EE0800202C070020F40600204A
:1052D00050080020000000002DE9F04F57EC106B43
:1052E00083B00022002310EE100A394659EC118BCE
:1052F0000FF07CFCB246002800F09A80BB460022EA
:105300000023404649460FF071FC4446002800F057
:105310008C804D4622462B46504659460FF048FC9D
:10532000002841D1CDE900AB22462B4650465946D4
:105330000FF05CFC08B954465D46DDE900232046C9
:1053400029460FF0EDFA0022002304460D463046B0
:1053500039460FF04BFC00220023002851D0404674
:1053600049460FF043FC10B32046294600227E4BED
:105370000FF0ACF9424604460D464B4630463946DE
:105380000FF034FC002856D022462B4600207749E7
:105390000EF0E4FF6EA3D3E900230FF097F941EC80
:1053A000100B03B0BDE8F08FCDE90045BCE700224B
:1053B0000023404649460FF0F1FB002876D12046F5
:1053C00029460022684B0FF081F9324604460D460B
:1053D000404609F100413B460FF0EAFB002871D03E
:1053E00022462B46002061490EF0B8FF58A3D3E9AE
:1053F00000230FF06BF956A3D3E900230EF0B0FFA2
:10540000CDE7304639460FF0C9FB00B34046494668
:10541000002200230FF0EAFB00284FD000200021DB
:1054200041EC100B03B0BDE8F08F09F1004571E7C6
:1054300007F1004B63E72046294645A3D3E9002343
:105440000FF044F941EC100B03B0BDE8F08F0022DF
:105450000023304639460FF0ABFB00289FD00022D6
:105460000023404649460FF0C1FB002837D02046B4
:10547000294600223C4B0FF029F9424604460D46CE
:10548000304607F100414B460FF0B0FB00284DD0ED
:1054900022462B46002035490EF060FF2CA3D3E9AD
:1054A00000230FF013F901F1004178E728A1D1E9B9
:1054B000000141EC100B03B0BDE8F08F26A1D1E94B
:1054C00000016CE72046294621A3D3E900230FF011
:1054D000FDF81FA3D3E900230EF042FF5FE700228F
:1054E0000023404649460FF059FB38BB2046294669
:1054F00000221D4B0FF0EAF8424604460D464B468B
:10550000304639460FF054FBE0B122462B460020CE
:1055100016490EF023FF0EA3D3E900230FF0D6F8AF
:105520000BA3D3E900230EF01BFFBCE7204629465E
:1055300007A3D3E900230FF0C9F8B4E708A1D1E924
:1055400000012CE720462946E5E700BFAFF30080C5
:10555000182D4454FB21F93F182D4454FB210940D8
:10556000182D4454FB21F9BF0000E03F0000F03F3C
:105570002DE9F04F2DED028B8DB092469DF86040E5
:105580008B4A0894002414608A4A9DF86490147031
:10559000894A01901470894A04911470002B68D0D4
:1055A000DFF838B2DFF83882854F864E864D59468F
:1055B000BC220BF104000FF03AFC4146BC2208F17A
:1055C00004000FF034FC39462F22781C0FF02FFC1A
:1055D00031462F22701C0FF02AFC7C494FF4BC721C
:1055E00001F108000FF023FC7949BC22081D0FF0DF
:1055F0001EFC2946BC22281D0FF019FC75494FF4EA
:10560000BC7201F108000FF012FC019B049ACBF868
:105610000030C8F8002087F800A086F800902C60C1
:10562000002B00F0978104980EF0E6FFCDE902010F
:1056300001980EF0E1FF9DED021B41EC100BFFF70E
:105640004BFE624B83ED000B019B04996048624A5C
:10565000002BB8BF5B420029B8BF49428B42B8BF9C
:105660000B460121036011700DB0BDEC028BBDE84B
:10567000F08F089F002F40F06381584E584D514CD9
:105680003146BC22301D0FF0D2FB2946BC22281D1A
:105690000FF0CDFB4A492F22481C0FF0C8FB2146D2
:1056A0002F22601C0FF0C3FB48494FF4BC7201F17C
:1056B00008000FF0BCFB4649BC22081D0FF0B7FBE9
:1056C0004149BC22081D0FF0B2FB42494FF4BC72A5
:1056D00001F108000FF0ABFB394B019983F800A0F2
:1056E000394B04983160286084F800901F600029CD
:1056F00000F034810EF080FFCDE9020101980EF038
:105700007BFF9DED021B41EC100BFFF7E5FD2F4ADF
:10571000019B82ED000B0499324C2E4D002BB8BF3B
:105720005B420029B8BF49428B42B8BF0B462849AB
:1057300004F5BC7A0B60D2E9000105E05445E5E8C8
:10574000028917D030463946F4E8026732463B46B4
:105750000EF004FE00220023804689460FF046FA30
:105760000028EBD109F100435445C5E9008305F158
:105770000805E7D11C4A1D4B126805921C4A1D49B9
:10578000D2ED008ADFF878B01B4A096812689FEDF5
:105790001B8A93ED007B002005460B908DED067B68
:1057A0000A9007460990064603462F24DA466CE025
:1057B0002C070020EE080020B90800205008002027
:1057C00000060020F80600203007002078040020A2
:1057D00034060020F0020020ED080020100900200F
:1057E000300A002080040020E8090020F008002092
:1057F00084080020EC020020EC09002000000000DA
:1058000068040020B1467AE902010FF057FA08EE69
:10581000900A0EF003FF87A3D3E90023CDE902012C
:105820000FF0E4F950B1DDE9022384A1D1E90001D0
:105830000EF094FD0FF042FA08EE900A38EE288A36
:1058400018EE100A0EF0EAFE7EA3D3E900230FF053
:10585000CDF9002840F08880674B234413F8013CC1
:10586000002B38D0B9F1000F40F08980CDE90A3320
:10587000624B013C43F8085000F0A68001270997CD
:10588000B94659464E4601232A46C4F1300B002E34
:1058900040F08A805A4B53F8243005931D44284623
:1058A0000EF0AAFE002280468946564BDDE906012D
:1058B0000EF056FD0022544B0EF008FF02460B4638
:1058C000404649464FEA84080FF090F9002899D0E5
:1058D0000127B94697E7494B013C43F8085000F0CF
:1058E0008580B9F1000FCCD05946099B13B1474AC6
:1058F00000231370464B1D60464B196017B1464A92
:10590000012313700B9B1BB1444B9DF828201A7088
:10591000434B059A1A60434BC3ED008A3D4B19680F
:10592000414B002201291A600ADD404B181DA0EBF3
:10593000810053F8041D98420A44FAD13A4B1A6088
:10594000089A049901980DB0BDEC028BBDE8F04FA8
:10595000FFF71EB9002A3FF478AE64E600287FF412
:10596000C9AE334A0B46D6E6B9F1000F07D1224B38
:10597000234413F8013C002B3FF47AAF76E71F4B2A
:10598000012C594643F80850AFD1A246099B0BB1F0
:105990001E4B1E701E4B1D601E4B1960002FB1D098
:1059A0001D4B83F800A0ADE70998A3B9A0B917B1C2
:1059B000194900220A700B9A1AB1184A9DF828104A
:1059C0001170002BAAD0A3E7012359460993A246E0
:1059D0001F461E46DAE720B10C4C01202070002B38
:1059E000E5D00B4802600B4A1160E0E75946CA4611
:1059F0002646CBE7AFF300800006002030070020EA
:105A0000340600200000F03F00004940500800200C
:105A1000EC090020EC020020B9080020EE0800206C
:105A2000E8090020840800202C070020F40600204C
:105A300078040020182D4454FB210940182D4454AB
:105A4000FB2119405069EB31C728DE3F10B50F48E4
:105A50000F4C01F035FC0F4803F0C8FE4FF0FF3348
:105A6000072209210C4804F091FE20460B4901F061
:105A7000BDF920460A4A0B490CF024FA0A4808F0FE
:105A80003BFC0A48BDE8104008F036BC1C0800206A
:105A9000F0090020640800200C0B0020D413002023
:105AA00000000020A5420000DC090020E0090020E1
:105AB0002DE9F04F2DED048B89B04FF00008DFED9C
:105AC000538A534D9FED539ADFED539A0190474609
:105AD000C146B7EE008A03AC08AEA24618E0002F1C
:105AE00069D1B4EEC98AF1EE10FA0FD5303807EE5D
:105AF000900AF8EEE77AB2EE047AE8EE877AF0EEF2
:105B0000678AB9F1000F01D028EE078A56451ED0EA
:105B1000284601F047FBC0B20928AAEB040B0AF89B
:105B2000010B5BD91A2859D0242857D0A0F1300195
:105B30005FFA81FCBCF1090FD1D92E2844D02D2861
:105B400045D0652805D156454FF00107E0D14FF00B
:105B5000140B20460FF002F951EC100B0FF0AEF8C9
:105B600007EE900AF5EE408AF1EE10FA019BF5EE91
:105B7000407A08BF4FF00108F1EE10FA186038D0F3
:105B8000F4EEC97AF1EE10FA04DCF4EEE97AF1EE03
:105B900010FA2BD52149224809F09EFA21462048C7
:105BA00009F09AFA284601F0A9FBA0EB0B01284660
:105BB00001F09AFB90E70B1E93DDF2EE047A013BB5
:105BC00088EE278AFBD18CE74FF001099EE7002F72
:105BD000FFEE007A08BFB0EE678A97E74FF0000843
:105BE000404609B0BDEC048BBDE8F08F4FF00108D2
:105BF000F6E7B8F1000FF3D12146094809F06CFA35
:105C00000849074809F096F9EAE700BF00000000DC
:105C10001C08002000401C4600401CC6246D0100EA
:105C200078160020186D01002DE9F04F2DED048B42
:105C300087B0CDE9010100279FEDA28A9FEDA29ACE
:105C4000DFEDA28A03921D46B946BA465DB1A0496E
:105C5000A04AA14B8DED058A81ED008A82ED008A74
:105C600083ED008A01259D4801F09CFAC4B2242CE2
:105C700022D0472C27D0582C4ED0592C66D05A2CE5
:105C80007ED0462C10D0412C0CD0A4F12003DBB2E6
:105C9000192B40F2AC800A2C40F0AF808F4801F005
:105CA00081FAD3E74FF0010A8C4801F07BFA05A88E
:105CB000FFF7FEFE0028C9D10027384607B0BDEC2B
:105CC000048BBDE8F08F854801F06CFA30287AD05B
:105CD000834EDFF80882B346404601F063FAC0B253
:105CE0000928B3D92428B1D0A04209D0404601F0F8
:105CF00059FAC0B209284FF047045E46F2D8A5E72A
:105D000074780136002CE7D1744801F0F7FAC11E0F
:105D1000724801F0E9FA99E7724C704801F042FAD2
:105D20002046FFF7C5FE81460028C5D0D4ED007A95
:105D3000F4EEE87AF1EE10FA3ED4019BC3ED007A5E
:105D4000654B22681A604FF0000A7FE7664C634893
:105D500001F028FA2046FFF7ABFE07460028ABD03B
:105D6000D4ED007AF4EEC97AF1EE10FA38DC029B39
:105D7000C3ED007A574B22681A604FF0000A65E7BE
:105D8000534C564801F00EFA2046FFF791FE0028CA
:105D900092D0D4ED007AF5EEC07AF1EE10FA50D43C
:105DA000039A00231370B9F1000F47D0002F40F081
:105DB0008180B946BA4649E7474B019A1B68136090
:105DC0004FF0000A42E7454801F0ECF9C0B2302834
:105DD0003ED031287FF43AAF039A0123137035E7A0
:105DE0003C4B029A1B6813604FF0000A2EE73F4AB3
:105DF00022FA03F3DB073FF529AF0D2C3FF44EAF3A
:105E0000282C01D0502C2CD1394EDFF8D0804724DB
:105E1000404601F0C7F9C0B209287FF64DAF2428EB
:105E20003FF44AAFA04217D0404601F0BBF9C0B2E0
:105E300009284FF047042E4EF1D83DE74F46CA4699
:105E400004E7BAF1000FAED1039A01231370AAE759
:105E5000039A00231370F9E674780136002CD7D129
:105E6000F4E61F4C1D4D26464FF04708284601F02A
:105E700099F9C0B209287FF61FAF24283FF41CAF60
:105E8000404509D0284601F08DF9C0B209284FF0ED
:105E900047083446F1D80FE794F801800134B8F18F
:105EA000000FE3D10D4801F029FAC11E0B4801F0A3
:105EB0001BFACCE6094801F021FA411E074801F01F
:105EC00013FAFAE6000000000AD723BC0AD7233CE5
:105ED0004C08002048080020440800201C0800202E
:105EE000446C0100F8080020FC0800200120FF039A
:105EF000486C0100000000002DE9F04F2DED028BF1
:105F0000154685B01E460F46DFF87082002951D035
:105F1000D8F80030BB4221D1894BD3ED007AF5EEA1
:105F2000407AF1EE10FA0BD0864B93ED007AB5EE85
:105F3000407AF1EE10FA1CBFC5ED007A86ED007ACA
:105F4000814B109A1B680124003318BF012320469F
:105F5000137005B0BDEC028BBDE8F08FB7FA87F384
:105F60005B09109AC8F8007031462846FFF75CFEBE
:105F70000446002800F0C980D5ED007AF5EE407A9D
:105F8000F1EE10FA0CD096ED007AB5EE407AF1EE13
:105F900010FA05D06A4A6B4BC2ED007A83ED007AA5
:105FA000109A694B12781A60204605B0BDEC028B3E
:105FB000BDE8F08F6548664C4FF0FF338146C8F866
:105FC000003001F091F9A2464FF0470B484601F02E
:105FD000E9F8C0B209280CD924280AD0584513D0B2
:105FE000484601F0DFF8C0B209284FF0470B54468D
:105FF000F2D85849584809F06FF80024204605B0F7
:10600000BDEC028BBDE8F08F94F801B00134BBF118
:10601000000FDBD14D48DFF868A1DFF8689101F08F
:106020006DF9C11E494801F05FF94C494A4809F031
:1060300053F8464801F062F9DFED497A494A019088
:10604000CDED027AB0EE678A5C46CDED037AF0EED4
:10605000678ACAF80020C9F8002033E03E4808F0FB
:1060600069FFD5ED006A9AED007AD9ED007AF4EE79
:10607000476AF1EE10FA48BFB0EE667A8AED007A10
:10608000D5ED006A96ED007AF4EE486AF1EE10FA6A
:10609000B4EE677AC8BFB0EE668AF1EE10FA48BF78
:1060A000F0EE477AC9ED007AD6ED007A8DED028ADE
:1060B000F4EE687AF1EE10FAC8BFF0EE678A0134A8
:1060C000CDED038AB4FA84F331465B09109A284671
:1060D000FFF7AAFD24490028C0D124491E4808F032
:1060E00029FF0A2221461C4809F0D0F820491A4805
:1060F00008F020FF02219FED100B174809F090FADD
:106100000199124801F0F0F802E71A4A0C491368A5
:106110000C4D0D4E0D483460013313604FF07E522C
:10612000154B0A6021462B6001F0DEF8204605B0D1
:10613000BDEC028BBDE8F08F000000000000F03FD6
:106140000008002004080020140800201C0800207B
:10615000446C0100F06B010078160020006C010017
:1061600020BCBECC20BCBE4CD86B0100DC6B010057
:10617000E86B01005C080020000080BF08000020E0
:1061800014000020180000202DE9F04F4C4C24682A
:1061900084428DB00646884691469A462CD0494C9A
:1061A000204601F0C1F800283CD10DF10C0B07ADE1
:1061B00058460123444A454901F05EF995E80F002D
:1061C000434D049F676007C5059A06992846C4E9B0
:1061D000022100F81C390B9B236201F0A5F805464B
:1061E00000283CD03B493C4808F0A4FE36493A48D8
:1061F00008F072FF324B1E60324801F095F80546F8
:1062000018B928460DB0BDE8F08F169B00934A469A
:10621000534641463046FFF76FFE054628460DB00F
:10622000BDE8F08F20460DF10C0B01F06FF807ADC3
:1062300058460123294A254901F01EF995E80F0027
:1062400004F1100CACE80700DDE904018CF8003023
:10625000069A0B9BE260C4E901012362A8E7204B88
:10626000204FD3F80080204E08F1050BC8F1AF0A8B
:10627000C8F1B40903245946384608F03DF951469F
:10628000304608F039F9642008F094FA414638465F
:1062900008F032F94946304608F02EF9642008F03B
:1062A00089FA013CE7D111490B4808F043FE064941
:1062B000094808F011FF28460DB0BDE8F08F00BF77
:1062C000100000201C080020246C01006C0B002032
:1062D0002C0800202C6C0100781600200C6C0100AA
:1062E00010080020DC090020E0090020346C0100C7
:1062F0002DE9F04FDFF8D4922DED088BD9F800305E
:1063000087B0002B40F0AB80DFF8C4B2DFF8C4A246
:106310000120FEF781F8DBF80000DAF8006010B920
:10632000002E00F08B800EF067F900228C4BDFF816
:106330009492DFF894820EF0C9F904460D46D9F81C
:1063400000000EF059F922462B460EF009F80EF027
:106350006DFCC9F8000030460EF04EF90022804B6B
:106360000EF0B4F906460F46D8F800000EF044F9D6
:1063700032463B460DF0F4FF0EF058FCDFF858E2D1
:10638000DFF858C2774AC8F800003046764E00233E
:106390008EF800308CF800303360137039460EF000
:1063A00045FC2946064620460EF040FC01223146B7
:1063B000FEF7EEFBD9F800000EF01EF90022684B44
:1063C0000EF0AEFA0EF07AFC08EE100AD8F80000D3
:1063D0000EF012F90022624B0EF0A2FA0EF06EFCE3
:1063E000624B1B6803FB03F207EE902A07EE100ACC
:1063F000F8EEE77AB8EE000AD7EE077A07EE103A21
:10640000E8EE487AB8EEC77A28EE000A20EE070ACE
:1064100087EE800A0BF04EFEF0EE408A0BF0B8FDDE
:10642000534B68EE007AB0EE680AC3ED007A0BF0C9
:10643000F7FD504B28EE000A83ED000A4E4C2378FE
:1064400013B94E4B1B782BB90023CAF80030CBF898
:106450000030237007B0BDEC088BBDE8F08F484ECC
:10646000484DDFF87C810020FDF7D6FF33682A68AD
:10647000D8F800400133511C9C42296040F0B280A2
:106480003D4C023223782A606FF009023260002B03
:1064900040F07F813C4F3D493D4ADFF824C13D4EED
:1064A0000B60002539461560781C2F228CF80050AF
:1064B000C8F80050C9F800500EF0B9FC2F22314640
:1064C000701C0EF0B4FC96F82E1097F82E003D705C
:1064D0003570FEF7DDF9304B1878FEF729FD23788B
:1064E000D3B92F25B946B0462F2249462B480EF086
:1064F0009EFC2F2241462A480EF099FC002496F873
:106500002E1097F82E003C703470FEF7C1F920462B
:10651000FEF70EFD013DE7D1224D234A2B680021F5
:106520006E2B117013D06E212048214C07F0E4FF30
:106530004621204807F0E0FF142008F03BF908F05E
:10654000FBF86E2320602B6008F0F6F820601A49F3
:106550001A4808F0C1FD07B0BDEC088BBDE8F08F0C
:1065600000004940500800202C0700203400002083
:106570002000002024000020000B002060080020E4
:106580000C0000205C08002088080020040B00207C
:10659000F80A0020BC080020180800208908002004
:1065A000BD08002010080020F4070020DC090020AE
:1065B00000090020E0090020386D01007816002055
:1065C000280A0020280000202C000020240A002097
:1065D000D4090020D8090020EE080020B9080020C6
:1065E000F40A0020A54B18680DF10F03009304AACC
:1065F00005AB2146FFF7C8FD28B900238DF80F0031
:106600003460059304939E4C2378002B40F0BE80A9
:106610009DED047A9B4AB5EE407AF1EE10FA1370C4
:1066200040F0BA80D8F800309DF80F60002B00F3DE
:10663000C3802C68DFF88492934F944A89ED00BAA6
:1066400001332E2B04F10104CCBF00210121C8F835
:1066500000302C6087ED008A11708D4A8D4B92EDD1
:10666000007AD3ED007A8C4B38EE078A7BEE277ADE
:1066700028EE088AD3ED008AB0EE480AA7EEA70AF2
:10668000F8EEE88AB5EE400AF1EE10FAB1EEC09AE3
:1066900077EEE88A00F1EC8019EE100A0DF0BEFFEB
:1066A00000227E4B0EF012F80EF0C0FAB0EE480A4F
:1066B000A8EEA80A013480462C60B5EE400AF1EE3F
:1066C00010FAB1EEC08A00F1CF80013418EE100A42
:1066D0000DF0A4FF0022714B0DF0F8FF0EF0A6FAAA
:1066E0006F49704A0B6817682C60B8EB0304C1F857
:1066F0000080A0EB0707106002D1002F00F0BC80E3
:10670000694ADFF8BC811368DFF880A1DFF8B49133
:10671000664D99F800B001332E2B1360D4BF0123CE
:106720000023414608F101008AF800304FF02F02A3
:1067300040F386800EF07BFB2946681C2F220EF06A
:1067400076FB002398F82E0095F82E1088F800B0FC
:106750002B70FEF79DF8564A9AF80030156899F8A4
:106760000020012DD4BF002501254FF0000C394633
:10677000204601957240CDF800C0FEF7F9FE89F879
:10678000006007B0BDEC088BBDE8F08F2B680133CB
:106790002B60D8F800307DE6DDED057AF5EE407A25
:1067A000F1EE10FA3FF43EAF424B93ED008A27EE34
:1067B00008BA27EE888A35E7334FDFF80091D7ED26
:1067C000009A99ED00AA38EE699A7BEE4A8A29EE82
:1067D000090AA8EEA80AB5EE400AF1EE10FAF1EEA9
:1067E000C0AA3ED42C6801342C60B2EE067AF4EED6
:1067F000C7AAF1EE10FA31DDCAEE877A2E492C488D
:106800000A68FDEEE77A17EE903A0133934203608F
:1068100022D0013207EE902AB8EEE77A07EE903ADE
:1068200067EE288AF8EEE77A27EE097A88EEA7BAAB
:106830000A6087EE278A3BEE0ABA38EE298A0CE70F
:106840000EF0F5FA2946681C2F220EF0F0FA00230C
:1068500088F800B02B707EE700230B60D8F800307A
:10686000EBE60BF081FCBDE70BF07EFC2C682CE71F
:106870000BF07AFC2C680FE72F60EBE57C0800201A
:10688000000B0020280A00200C0800201C0000201B
:106890002400002020000020340000200000494097
:1068A000280000202C000020F80A0020BC0800204E
:1068B000080B002044000020FC07002008080020EE
:1068C00088080020180800202DE9F04F9FB00746E7
:1068D00006A80C46154600F0F3FC07F027FF064615
:1068E000294803F077FE844202DB1FB0BDE8F08F39
:1068F000254803F073FE8542F7DA244808F0E4FBEC
:106900002349224808F004FB3946204808F012FBCE
:1069100027211E4808F0F8FB3A460FA801231D491D
:1069200000F0AAFD13AB0FCB0DF1280CACE807006B
:10693000DDE910718CF80030129A179B099206A8B5
:10694000CDE907710E9300F0EFFC074620B912491C
:106950000E4808F0DDFAC8E706A800F023FC8DF821
:106960003C0006A800F01EFC8DF83D00BDF83C2060
:1069700044F642539A4213D006A800F0C7FC0749D8
:10698000024808F089FBB0E70C0B002078160020C5
:106990007C6C01006C0B00208C6C01009C6C010075
:1069A000BE49BF4808F0B4FA06A800F0FBFB8DF81A
:1069B0003C0006A800F0F6FB8DF83D0006A800F0AC
:1069C000F1FB8DF83E0006A800F0ECFB8DF83F00CF
:1069D0000A220F99B24808F0D1FC06A800F0E2FBA9
:1069E00006A800F0DFFB06A800F0DCFB06A800F01C
:1069F000D9FB06A800F0D6FB8DF83C0006A800F0F5
:106A0000D1FB8DF83D0006A800F0CCFB8DF83E00D0
:106A100006A800F0C7FB8DF83F00DDF83C80A149D7
:106A20009F4808F075FA0A2241469D4808F0A6FCE6
:106A30009D499B4808F06CFA06A800F0B3FB8DF85E
:106A40003C0006A800F0AEFB8DF83D0006A800F063
:106A5000A9FB8DF83E0006A800F0A4FB8DF83F00CE
:106A60000F998F480A2208F089FC06A800F09AFBCB
:106A70008DF83C0006A800F095FB8DF83D0006A8B7
:106A800000F090FB8DF83E0006A800F08BFB8DF81F
:106A90003F0006A8DDF83CA000F084FB8DF83C0028
:106AA00006A800F07FFB8DF83D0006A800F07AFBF9
:106AB0008DF83E0006A800F075FB8DF83F0006A893
:106AC000DDF83CB000F06EFB8DF83C0006A800F04D
:106AD00069FB8DF83D00BDF83C30012B7FF44CAFD5
:106AE00006A800F05FFB8DF83C0006A800F05AFBFA
:106AF0009DF83C908DF83D006C49694808F008FA13
:106B000049460A22664808F00FFBB9F1180F7FF4D6
:106B100033AF06A8FDF762FC00287FF42DAF039089
:106B200063495F4808F0F4F90A2251465C4808F0CE
:106B300017FA78215A4808F00FFA59460A2258489D
:106B400008F02CFB0AF1010202EB420222F00303DF
:106B50000593039B5748BBF1000FBCBFCBF1000B63
:106B60001F4603F037FDD146A244824500F38F80D3
:106B7000504803F033FD05EB0B0A824500F381809A
:106B8000DA46A1B26A1E4B1E524492B24B440092A6
:106B90009BB22A46474804F0C3F9BAF1000F5DDD05
:106BA000059A0BF1FF3302FB03830393DFF804B173
:106BB000002304933C24039B06A8002F08BF4346F0
:106BC0001D4600F09BFBA84204D0294606A800F011
:106BD0008BFB3C24B9F1000F36DD00253C223B2C19
:106BE0000DEB020106A813D900F076FB9DF83C30AE
:106BF0009DF83D209DF83E10584606F055FB0135A6
:106C00000146584606F0C0F9A9454FF003041BD0D1
:106C10001EAB2046621CA11C23441EAC54FA82F217
:106C200054FA81F113F83C3C12F83C2C11F83C1C4E
:106C3000C41C584606F038FB01350146584606F09C
:106C4000A3F9A945E4B2C9D1049B0399059A01337C
:106C5000891A9A45049303919044ACD1164910487F
:106C600008F056F907F062FD0A22811B0C4808F073
:106C7000E5F912490A4808F02FFA06A800F046FB89
:106C800033E60C4803F0AAFCA0EB050A79E70948B3
:106C900003F0A0FCA0EB04096AE700BFB86C010098
:106CA00078160020C46C0100D46C0100E46C010073
:106CB000F06C01000C0B0020006D01000C6D010058
:106CC000F8B54FF47A31384809F080FC3749364836
:106CD00008F002FA0121532007F0ECFF5321344859
:106CE00000F02AFB18B933492F4808F0F5F94FF4A2
:106CF00016513148314F324C324D09F0A9F9324822
:106D000003F0D8FE2821314802F072FD03212E48FD
:106D100006F0D6FA00212C4803F064FC002211464C
:106D20002B48FFF7D1FD204808F0CEF91CA3D3E98A
:106D30000023C7E90023261D14F8010B012107F0E9
:106D4000B9FF012115F8010B07F0B4FFA642F3D1FA
:106D5000302200211F480EF083F8C02200211E4877
:106D60000EF07EF8C02200211C480EF079F8FDF7E5
:106D70002BFD1B490C4808F0DDF81A4B0A4819682E
:106D80000A2208F083FA1849074808F0D3F897ED6B
:106D9000000B02210448BDE8F84008F041BC00BFE8
:106DA0001ACA6B28AFD9394078160020446D01000B
:106DB0006C0B0020306D0100D4130020F00800207F
:106DC00038000020480000200C0B00206408002040
:106DD000106D010000060020300A0020100900207C
:106DE0004C6D010034000020586D010038B5094A8F
:106DF0000160FF2300250446C0F80720C372037317
:106E000045730549103009F0AFFAC4E90B55204627
:106E100038BD00BF003131FFFC6C0100F0B52DED35
:106E2000028B0446C06983B008B108F059F8206AA3
:106E300008B108F055F807F079FC002642F20F730C
:106E40009FED358A354FA362354605E007F06EFCAD
:106E5000A36AB6EB430F33DC206803681B699847CD
:106E60000028F3D0206803685B69984702AB2B4485
:106E70000135042D03F8040CE8D10136012EDDEDB7
:106E8000017A2AD0B0EEE77A7310B4EEC87A013BEB
:106E9000F1EE10FA4FEA830317DDE269191F50186B
:106EA0001A4400681060226A11441344096819608A
:106EB00007F03CFCA36AB6EB430F4FF00005CBDDB7
:106EC000012003B0BDEC028BF0BD16F001051DD111
:106ED000E2691344C3ED007AB8E7FDEEE77A0025D6
:106EE00017EE900AB842C4ED0A7A94BF80004FF0C2
:106EF000FF3007F0F1FFA36AE061BB4294BF980046
:106F00004FF0FF3007F0E8FF20629FE7226A13444A
:106F1000C3ED007A002599E700247449FEFFFF1FA6
:106F20002DE9F043044600687F4E036885B01B6975
:106F3000984723680028D4BF002501251A68184601
:106F400013699847002819DD206803685B69984732
:106F5000C1B2FB294DD0FC2900F08A80FD2900F048
:106F6000BA80FE290ED0F42962D0F9292368E5D130
:106F700018460A2207F0F4FF2368DFE7284605B029
:106F8000BDE8F083314601A809F0EEF907F0CEFB29
:106F900007F0CCFB04F1100941F28738074604E002
:106FA000206803681B699847C0B907F0BFFBC01B86
:106FB0004045F5D901A9484609F004FA01A809F0AD
:106FC000F9F9E27932B1013AD2B20132FF21201D42
:106FD0000DF046FF0023E3712368AFE720680368E4
:106FE0005B699847C1B2FA2901A8E3D009F00CFA0D
:106FF000DBE707F09BFB074605E0206803681B6999
:107000009847002849D107F091FBC01BB0F5FA7FE3
:10701000F3D3E3792179627921726272002BD9D09E
:10702000013BDAB20132FF21201D0DF019FFD1E73B
:10703000236B03B198472046FFF7F0FEF5216073FC
:10704000206807F089FF20680368DB689847E379C8
:1070500033B1013BDAB20132FF21201D0DF000FFF8
:10706000E36A0022E271002B5BD09847236865E752
:1070700007F05CFB074604E0206803681B6998473B
:10708000D0B907F053FBC01BB0F5FA7FF4D3E37916
:1070900022792273002BC3D19CE7206803685B69C7
:1070A0009847C0B2FA28B4D0E379022BABD0E218EB
:1070B00001331071E371A6E7206803685B699847A4
:1070C000C0B2FA28E3D0E379022BDAD0E218013318
:1070D0001071E371D5E707F029FB074604E020684B
:1070E00003681B69984768B907F020FBC01BB0F51F
:1070F000FA7FF4D3E37921796279E172A272002BED
:107100008ED167E7206803685B699847C0B2FA28A8
:10711000F0D0E379022BE7D0E21801331071E3716C
:10712000E2E723680AE700BFFC6C010010B50446E3
:10713000FFF7F6FE207BFF239842237308BF4FF032
:10714000FF3010BD10B50446FFF7EAFE207A10BDEF
:1071500010B50446FFF7E4FE607A10BD006A10B176
:1071600003689B6818477047006A38B1C2690069B4
:1071700047F6FF73101A984228BF1846704700BFA1
:1071800010B5036A044643B10020586092B2206AE9
:1071900001F01CFB236A5B6813B1012363600020CC
:1071A00010BD00BF006A78B100B583B001220DF1B7
:1071B000070100F0D3FF01280CBF9DF807004FF036
:1071C000FF3003B05DF804FB4FF0FF30704700BFA5
:1071D00010B5036A82B0BBB10446012218460DF116
:1071E000070100F0BBFF012804D04FF0FF34204618
:1071F00002B010BD206A9DF807400169013901F015
:10720000C3F8204602B010BD1C46204602B010BD97
:10721000006A10B1012101F09DBA704710B50368F2
:107220000F4A5B6882B093428DF8071012D1036A4F
:10723000044653B100225A60006A01220DF1070191
:1072400001F0C4FA236A5B6813B101236360002074
:1072500002B010BD01220DF10701984702B010BD28
:10726000817100002DE9F041064600244FF47A7048
:10727000124B3360C6E9014028200C4690460DF0C1
:10728000A9FD3062B8B1054604F1200C20686168A0
:10729000A268E3682F460FC7103464453D46F5D118
:1072A000206861680C2203C5414606F110000DF00C
:1072B000CEFE002333773046BDE8F081706D0100CB
:1072C0004FF47A72034982600022C0E90012026220
:1072D00002747047706D0100006A18B108B500F0C3
:1072E0003DFF08BD704700BF006A30B108B501F02E
:1072F0004BF8003018BF012008BD7047036A0BB17E
:10730000186970474FF0FF30704700BF036A53B1F0
:1073100010B50446184600F0BFFE206A0DF062FD6D
:107320000023236210BD7047006A18B1407A003014
:1073300018BF0120704700BF38B590F841300446AF
:107340000D46C3B92A460121204600F0B3F908B919
:10735000002038BD04F1100528460122214601F025
:10736000DDFF60B1294604F1380000F0CFFE0030A7
:1073700018BF012038BD383000F08EFEE2E702462B
:107380002146284601F0CAFF0028E1D0EAE700BF05
:107390002DE9F04F9BB00024DFF8D8A00794814678
:1073A000103106A8934601938DF8214011948DF871
:1073B0004940CDF818A0CDF840A000F0A7FE06AED9
:1073C000A0465D4610AF2F2128460DF011FE441B4C
:1073D000E4B2294608B32B782F2B02A81BD00C2C23
:1073E00028BF0C2422460DF032FE1AAB2344384647
:1073F00003F8608C00F050FE012302AA31463846A3
:1074000001F09CF968B3304600F046FE334625444F
:107410003E461F46D7E70135D5E7019B7268307AB3
:10742000717A7469A5EB0B051D60F368C9F8042037
:10743000C9F80C30D6E90823356989F8080089F8BD
:107440000910307EF16989F818004846C9F800A093
:10745000C9E90454C9E90712C9F824301BB0BDE8D2
:10746000F08FC9E900A089F8090048461BB0BDE8C3
:10747000F08F00BFA86D0100F0B5A1B005461E4613
:1074800002A801AB1446FFF783FF019BE25C1C449A
:10749000002A40D09DF811202E4F0C9700230D9309
:1074A0008DF83930002A30D00CA83346224602A984
:1074B00001F044F948B302A806F0060600F0ECFD1E
:1074C000062E41D09DF838309DF839100F988DF870
:1074D000603022460D9C119B1794109C8DF8611012
:1074E00019901A941B939DF848101398149C159B9F
:1074F00016978DF870101D9016A92846CDE91E43E9
:10750000FFF7B0FE284621B0F0BD2846FFF7D8FEB1
:10751000284621B0F0BD039B0E4A9DF810109DF83F
:107520001100059C17931692069B079A8DF8601020
:107530008DF8610019941A931B929DF820100998F8
:107540000A9C0B9B044AD4E70CA8139900F01CFF7B
:10755000B8E700BFA86D01008C6D0100074B084A19
:107560009A630221002219615A719A719A721A73F0
:1075700083F83020DA6383F8412070476C0B0020D9
:10758000A86D010012F1FF3218BF0122012B01602A
:10759000427108D00AD3032B02D102230371704732
:1075A00000230371704703230371704701230371A4
:1075B000704700BF2DE9F04183790546884617469C
:1075C000002B47D1384C2378002B5CD00021287940
:1075D000364C07F0BBFB07F0A9F8064605E007F0BC
:1075E000A5F8801BB0F5967F05D2FF21204602F05A
:1075F00043F8FF28F3D12D4848F04001064602F039
:107600003BF8182427FA04F1C9B2083C304602F0CE
:1076100033F814F1080FF5D1B8F1000F18D0B8F114
:10762000080F0CBF8721FF2120480024064602F0E6
:1076300023F802E0B4F5807F08D0FF21304602F045
:107640001BF8030604F10104E872F3D4BDE8F081ED
:107650009521E9E7038940F201245A1CA3420281E3
:1076600009D8124EFF21304602F006F82B895A1C29
:10767000A3422A81F6D90C4C2879012107F066FB38
:1076800023784BB9AB710A4B084893E806000123F5
:10769000237001F085FF99E700260448267001F069
:1076A000B3FF2378AE718FE7D00B0020300E00209F
:1076B000D40B00202DE9F04F002383B00271037337
:1076C0008372837143710546894607F02FF80121C3
:1076D000064628797E4F07F0EDFA0121287907F058
:1076E00035FBE8467B4801F017FF022301227A4967
:1076F0004046FFF747FF98E803003860B9807548B7
:1077000097E80600824601F04BFF0A24FF2150460D
:1077100001F0B2FF631E13F0FF04F7D1DFF8D4A12C
:107720006C4801F071FF9AF800303BB9012397E8EB
:10773000060068488AF8003001F032FF00212879FD
:1077400007F004FB05E006F0F1FF801BB0F5FA6FCF
:1077500061D8002211462846FFF72CFF0128044675
:10776000E872F0D14FF4D57208212846FFF722FFC6
:1077700043072DD52C734FF0000B05E006F0D6FF24
:10778000801BB0F5FA6F4DD8002237212846FFF74D
:1077900011FF5A4629212846FFF70CFF0446E872DC
:1077A0000028EBD12B7B022B3ED00121287907F05A
:1077B000CDFA9AF800302BB1002346488AF8003001
:1077C00001F022FFB9F1060F4ED916236B711EE0AE
:1077D000404C4FF0040BFF21204601F04DFF0BF110
:1077E000FF3313F0FF0BE872F5D1AA284FF0020324
:1077F00014D06B712879012107F0A8FA9AF800409B
:107800002CB1002433488AF8004001F0FDFE2046E8
:1078100003B0BDE8F08F01236B71EBE72B734FF0E2
:10782000804BB1E70823E4E702463A212846FFF7F8
:10783000C1FE10B106236B71DCE7FF21254801F082
:107840001BFF00F0C000C02804BF03232B73FF21DF
:10785000204801F011FFFF211E4801F00DFFFF211C
:107860001C4801F009FFA0E7B9F1050F2CD8DFE8AB
:1078700009F0271B17130F03174902230122404663
:10788000FFF780FE98E8030001243860B980BEE766
:10789000022301221149F2E7022301221049EEE7F7
:1078A000022301220F49EAE70F4902230122404641
:1078B000FFF768FE98E803004C463860B980A6E7F9
:1078C000022301220949DAE7022301220849D6E707
:1078D000D40B0020300E002090D0030020A1070020
:1078E00040420F0080841E0000093D0040787D0169
:1078F00048E80100D00B0020F8B58379044616460D
:1079000013B1036899423FD0237B2160032B18BF3A
:1079100049020A4620461121FFF74CFE80B103239D
:107920003C4D63712079012107F010FA287800B9E5
:10793000F8BD002438482C7001F066FE2046F8BDE2
:1079400006F0F4FE344D074605E006F0EFFEC01BDE
:10795000B0F5967F3AD8FF21284601F08DFEFF282A
:10796000E072F2D0FE282CD00D236371294D2079CE
:10797000012107F0EBF92B78002BD3D00023264808
:107980002B7001F041FECDE70389002BBCD1224FC3
:10799000751E06F2FF16FF21384601F06DFE05F850
:1079A000010FB542F7D12289A17A02F500739BB28B
:1079B000238111B1B3F5007F01D3A17949B9012029
:1079C000F8BD002201232281A371E0E70F23637138
:1079D000CCE740F2012502F20122AB42228109D814
:1079E0000D4EFF21304601F047FE23895A1CAB4261
:1079F0002281F6D90121207907F0A8F9054B1A78E0
:107A000022B1002204481A7001F0FEFD0023A37188
:107A10000120F8BDD00B0020300E00203BB32DE933
:107A2000F0411D461344B3F5007F044616460FDCB3
:107A30008379F3B9237B2160032B18BF49020A46DF
:107A400020461121FFF7B6FD00283FD003236371C4
:107A5000474D2079012107F079F9287828B10024D1
:107A600044482C7001F0D0FD2046BDE8F081012093
:107A7000704703689942DDD103899A42DAD39E4266
:107A80000AD93C4FFF21384601F0F6FD2389013326
:107A90009BB29E422381F5D8069BDFF8D8806F1EEB
:107AA00013FA87F75E1EFF21404601F0E5FD06F858
:107AB000010FB742F7D12289A37A1544ADB22581CF
:107AC0008BBBA3799BBB0120BDE8F08106F02EFEA5
:107AD000284F804606E006F029FEA0EB0800B0F52E
:107AE000967F10D8FF21384601F0C6FDFF28E072CE
:107AF000F1D0FE2802D00D23637106E0002301229D
:107B00002381A271BBE70F236371194D20790121F5
:107B100007F01CF92B78002B9BD0002315482B7005
:107B200001F072FD95E7B5F5007FCAD2CBE740F2D0
:107B300001236A1C9D4222810AD80E4E1D46FF2158
:107B4000304601F099FD23895A1CAB422281F6D9B7
:107B50000121207907F0FAF8054B1A7822B10022AA
:107B600004481A7001F050FD0023A371ABE700BF79
:107B7000D00B0020300E00202DE9F041074681B9DE
:107B80001223444D43713879012107F0DFF828783A
:107B900028B1002440482C7001F036FD2046BDE895
:107BA000F0819846037B032B18BF490215460A460D
:107BB0001821FFF7FFFC18B104237B71354DE2E774
:107BC0003548FE21064601F057FD6C1E05F2FF15F3
:107BD00014F8011F304601F04FFDA542F8D1FF21F6
:107BE0002D4801F049FDFF212B4801F045FDFF2103
:107BF000294801F041FD00F01F03052BF8720FD05A
:107C00001123244D7B710121387907F09FF82B78DF
:107C1000002BB8D0002320482B7001F0F5FCB2E710
:107C2000B8F1000F21D006F081FD1B4D064605E09E
:107C300006F07CFD801BB0F5167F1FD2FF21284681
:107C400001F01AFDFF280446F2D100220D2138462A
:107C5000FFF7B0FC18B114237B710E4D93E721465A
:107C60000D4801F009FD0028F5D13879012107F010
:107C70006DF8084B1A782AB9012090E715237B711B
:107C8000044D80E7002204481A7001F0BDFC012079
:107C900085E700BFD00B0020300E002070B5124CDD
:107CA000237805463BB9114B114893E806000123A0
:107CB000237001F075FC0021287907F047F8FF21B7
:107CC0000B4801F0D9FC01210646287907F03EF85F
:107CD000237823B100230648237001F095FCB6F108
:107CE000FF0018BF012070BDD00B0020D40B002076
:107CF000300E0020034B044A1A6000225A711A7198
:107D0000704700BFD40B002000093D00704700BF42
:107D100070B5037A1A0604460D4608D415B923F047
:107D2000100323722846BDE8704001F095B8012188
:107D3000406901F0D7F8F0B1237E104E16EB4316E0
:107D400019D0637A012B9CBFE369F3610C4B226A63
:107D500072831B68628CB28233B106F1160106F1A0
:107D600018009847338B7382237A03F07F032372C2
:107D7000002DD7D1D3E7002070BD00BFE40B002059
:107D8000DC0B00202DE9F041437A84B0012B05463D
:107D90008DF8071005D001236B60002004B0BDE80A
:107DA000F081037A9807F6D559072A696F6A03D5D7
:107DB000EC69944240F08B80EB683C79013C04EA2A
:107DC000522414F0FF01C2F3080634D1002E50D122
:107DD000002B54D12C6A002C64D0EC60387C2A69CA
:107DE000EB697969023C844093420C4430D9002607
:107DF0002046012101F076F80028CCD05D4F9DF897
:107E00000730BB552B69EA69297A013393422B610C
:107E10007DD941F080012972EB610A0709D56B7A9F
:107E2000002BB8D00B067DD4012001F015F80028F6
:107E3000B1D00120B2E797F810C078699C1E04FA0F
:107E40000CF404440C44002ED2D1EB699342CED8FA
:107E5000012001F001F800289DD0474A47491378D6
:107E6000444F0C6043F001039DF807101370397004
:107E7000C8E7397C7A699C1E8C401444B8E71946DF
:107E8000384603AA01F028F9002887D06F6A3C4AD7
:107E900097F82000039C4FF6F871102808BF0A4697
:107EA00094429AD3384605F10C02012100F0FAFE03
:107EB00000283FF470AF296AEC682A7A11B92C6265
:107EC00042F0800242F020022A726F6A86E734B3E1
:107ED0003B7C511E0933661ED940DE40B14245D875
:107EE000002A43D0EB68761A05F10C0807E001F090
:107EF000F3F8013E00283FF44EAF6F6AEB68194675
:107F000042463846002EF2D12C61224655E71D4BE1
:107F10001B68002B81D041F0800129727DE7C5E903
:107F2000034457E70121686900F0DCFF00283FF4B3
:107F300032AF2C7E17EB44143FF42DAF6B7A012B3C
:107F40009CBFEB69E3610F4B2A6A62831B686A8CF2
:107F5000A28233B104F1160104F118009847238B73
:107F600063822B7A03F07F032B725DE72B6AEB6051
:107F7000BAE700BFE40B0020E00B00204C0000201B
:107F8000F8FFFF0FDC0B0020F8B5437A012B01D07E
:107F90000020F8BD037A9907FAD55A0704461FD581
:107FA0000369C569AB421BD0002D36D0426A117CF3
:107FB0006E1E09315A1ECA40CE40B2423ED8002B36
:107FC0003CD0B61A04F10C0706E0E168606A01F0E3
:107FD00083F8013E0028DBD03A46002EF5D125611A
:107FE000294B1868FFF75AFE0028D1D1227A12F0E7
:107FF000200505D0637A9BB922F020022272C7E7E0
:10800000224B1B68B3B9236942F01002C3F3080086
:10801000C0F50070227280B2F8BDC0E90355DFE7F9
:1080200013060ED422F010022272002000F014FF7A
:10803000227AE1E700F03EFF2846F8BD236AE360BC
:10804000C0E70121606900F04DFF0028F0D0237ED9
:108050000F4D15EB4315EBD0637A012B9CBFE36901
:10806000EB610C4B226A6A831B68628CAA8233B173
:1080700005F1160105F1180098472B8B6B82227AC7
:1080800002F07F02CEE700BFE80D0020E40D0020E3
:10809000E40B0020DC0B002038B5437A0BB900203C
:1080A00038BD90F90830002B044608DB012000F0B1
:1080B000D3FE0028F3D000236372012038BD0121D4
:1080C000406900F00FFF0028E9D0237E0D4D15EB2D
:1080D0004315E4D0637A012B9CBFE369EB610A4B43
:1080E000226A6A831B68628CAA8233B105F1160189
:1080F00005F1180098472B8B6B82237A03F07F03DE
:108100002372D3E7E40B0020DC0B002038B5437A60
:108110003BB991F82020102A0D46044603D0202AAE
:1081200010D0002038BD022242724A8C03625201F4
:10813000C26100230120207223766562C4E9033303
:10814000636138BD03234372496A016200F11C0276
:10815000284600F045FF0028EBD1E2E72DE9F04F7B
:1081600087B0437A0592002B00F0FE80027AD20796
:10817000074640F1F98002698846C1690598891A65
:10818000884284BF89B20591059E002E00F0F180DF
:108190001446022BDFF8ECA1786AC4F308054FEA15
:1081A000542100F0B08090F8049009F1FF3909EAF9
:1081B00001015FFA81F9002D40F0C180B9F1000F93
:1081C00040F0BD80002C40F0B3803B6AFB60027C35
:1081D0004169981E904089444844C5F500743B7A33
:1081E000A642CCBFA4B234465B0600F18F80B4F542
:1081F000007F00F08B80002100F074FE002800F06A
:10820000B3805E4B591901EB040C61456BD005F14D
:10821000040E9E4408F104001A4601F10109631E90
:10822000814238BFF045CB460493C0F08D800B2CC3
:1082300040F28A804B4213F0030300F08280505DCD
:1082400088F80000012B08F10100039000F08880FD
:10825000487888F8010008F10202022B01F10200BF
:1082600003927FD0887888F8020008F10302033176
:108270000392049AC3F1010B9344404A1D441544F0
:1082800043444FEA9B0E0022013255F8040B43F899
:10829000040B9645F8D82BF00302039D5A4505EBD5
:1082A000020001EB02031AD0895CA9545A1C9445C0
:1082B00015D05A7842709A1C944510D09A788270E2
:1082C000DA1C94450BD0DA78C2701A1D944506D09A
:1082D0001A7902715A1D944501D05B794371C9F135
:1082E00001039C44E0443B69361BB6B21C443C612C
:1082F000002E3ED07B7A786A022BC4F308054FEA41
:1083000054217FF450AF406A084466E7DAF8003041
:1083100083423FF470AF1A4B1B68CDF800800146D2
:108320002A4618462346FFF779FBE8B1A044DAE76E
:1083300007F10C02F96800F0CFFEA8B1786AFB687B
:1083400045E7CDF80C8094E708F1FF325B4600E08A
:10835000013313F8011C02F8011F9C45F8D1BEE758
:10836000494686E7014684E74FF0FF3007B0BDE895
:10837000F08FBDF9140007B0BDE8F08FE40B0020CA
:10838000E80D00204C000020F8B5437A23B3C26901
:108390008A4221D3022B0E4605461AD0F1B1436A18
:1083A00001691C7C4A1E04F10903741EDA40DC409A
:1083B000A24200D8A1B92B6AEB6005F10C0705E0D9
:1083C000E968686A00F088FE013C28B13A46002C52
:1083D000F6D12E610120F8BD0020F8BDE960F8E774
:1083E000A41AEAE7F8B52E4B03EB4113DD7A15F03A
:1083F000110F02D012F0420F1ED11546294A017604
:1084000012684261998A090401625A8B1143016220
:10841000DA7A12F0180704460CD1DA69C261012633
:1084200005F00F03C0E9037746720372680605D4AE
:108430003046F8BD102F1FD00020F8BDAB07FBD58C
:10844000002AF5D0606A00F0B3FE0028F4D0237A49
:10845000627A276263F07F03E7612372002AEBD020
:1084600031462046FFF754FC0028E5D03946204627
:10847000BDE8F840FFF788BF00F11C02406A00F039
:10848000AFFD0028D8D005F00F020421002322728E
:108490006A066172C4E90333CED40120F8BD00BF7F
:1084A000E40B00204C0000202DE9F04F8BB00DF1C3
:1084B0000C094FF02034DFF87CC2C9F80440804634
:1084C00003940D469B46571EC9F807404FF0000E17
:1084D0004FF0070A06AE17F8014F64B12E2C65D194
:1084E000BAF10A0F5DD017F8014F4FF0080E4FF0A8
:1084F0000A0A002CF2D19DF80C30202B51D06B6A67
:10850000C8F82430C5E90344874EDFF82CA2CDF823
:1085100004B027462246EB6993427BD9697A012948
:10852000C2F3431B3DD9012206A92846FFF716FED8
:10853000012837D12A694FEA4B111F3211EB060C83
:108540002A612ED0885D002854D0E52800F097805D
:108550008859D9F800108142DDD1DCF80400049973
:1085600081420CF1040CD6D1BDF814003CF8041F74
:108570008842D0D19CF802109DF816008842CAD1DA
:10858000019B03F03002302A0BD01A465946404670
:10859000FFF728FF044605E0019B03F01203122BAE
:1085A00070D0002420460BB0BDE8F08F9CE80F008F
:1085B00086E80F00324601E09C42F2D012F8013BFF
:1085C000002BF9D1F245ECD3A4F12103DBB25D2BF2
:1085D000E7D8A4F16103DBB2192B0AAB98BF203CAA
:1085E000734498BFE4B20EF1010E03F81C4C5FFA1D
:1085F0008EFE70E7002FCFD1DAF8000088F818B0AF
:10860000C8F814008B5D002BC6D0EB6993424FF085
:10861000010783D8019B03F01203122BC1D1002F55
:1086200030D16B7A022BBCD005F10C020121686AB3
:1086300000F038FB0028B4D0296AEA682B7A11B917
:108640002A6243F08003686A43F020032B72017CA6
:1086500044690679023A8A402244002E50D0741EA2
:10866000023EE3B216441444F61A01E0B44245D087
:10867000204600F07DFC013C0028F7D191E7002F57
:10868000C3D1B9E70121D8F8140000F02BFC002871
:1086900087D098F81830244C14EB431481D099E813
:1086A000070000252346C4F80A50C4F80E50C4F849
:1086B0001250C4F81650C4F81A50E58303C31B497E
:1086C00023F8022B0D68120C1A7025B304F10E0169
:1086D00004F11000A847238AE289638201202383E2
:1086E000E28200F0B9FB00283FF45BAF019A98F8F2
:1086F00018104046FFF776FE044653E76B6A197C74
:10870000EB69094C4FF400728A4013440022EB617C
:1087100088F81820C3E7064BC4F80E304FF4006207
:1087200042F62103D9E700BFE40B0020DC0B002058
:1087300000082128906D01004C00002010B4447AFC
:108740001CB100205DF8044B70475DF8044BFFF747
:10875000ABBE00BF437A73B170B5037A1A060D46FB
:1087600004460AD415B923F0100323722846BDE845
:10877000704000F071BB002070470121406900F09B
:10878000B1FBE0B1237E0F4E16EB431617D0637A90
:10879000012B9CBFE369F3610B4B226A72831B6858
:1087A000628CB28233B106F1160106F118009847C7
:1087B000338B7382237A03F07F032372D2E7002086
:1087C00070BD00BFE40B0020DC0B00202DE9F04F52
:1087D000437A87B0012B0546029205D001236B60D6
:1087E000002007B0BDE8F08F077AB807F6D50E462F
:1087F00079072C693BD5D5F81C80A04510D1002AFB
:1088000039D13A070AD56B7A002BE7D03B0600F145
:10881000A881012000F020FB0028DFD00298E0E7CB
:10882000B8F1000F00F094816B6A1A7C08F1FF39EF
:108830000932631ED34029FA02F94B4500F2B68192
:10884000002C00F0B381A9EB030905F10C0407E04B
:10885000E968686A00F040FC09F1FF390028BDD0E2
:108860002246B9F1000FF3D1C5F810804446029BAF
:10887000002B00F05781E968DDF8089087F01007B9
:10888000C7F300130393686A0379013B03EA542397
:1088900013F0FF03C4F3080440F09580002C40F06F
:1088A000DC80002940F0F5802A6A002A00F01A8155
:1088B000EA60037C4169023A02FA03F3B9F5007FEA
:1088C00003EB010880F090802869EA6990424F46E6
:1088D00080F0B4804046012100F004FB00283FF402
:1088E0007DAFB44B191901EB070C6145BE4600F092
:1088F0009080221D1A4406F10408481C964238BF95
:108900004145019007F1FF30C0F0B7800B2F40F2D6
:10891000B480724212F0030200F0AD8096F800803D
:1089200003F80480012A06F1010800F0B08096F8EF
:10893000018081F80180022A06F1020801F1020A91
:1089400000F0CE8096F8028081F8028006F10308DC
:108950000331C2F1010A144482441C4432444FEAF8
:108960009A0B0023013352F8040B44F8040B5B45C7
:10897000F8D32AF00302524508EB020001EB020390
:108980001BD018F802408C545A1C944515D04278DC
:108990005A709A1C944510D082789A70DA1C9445CB
:1089A0000BD0C278DA701A1D944506D002791A717C
:1089B0005A1D944501D042795A71019BC3F10103BC
:1089C0009C44664425E090F810C04269C4F50077E5
:1089D000A1F10208BFB208FA0CF813444F459844BD
:1089E00023D8B7F5007F21D1734B1A68424504BFE5
:1089F0004FF0FF321A60714B41461868039B3246B4
:108A0000FFF7BAF800283FF4E9AE4FF4007E764451
:108A100077462C69A9EB070974441FFA89F92C6180
:108A2000B9F1000F7ED0E9682DE74F46002C7FF4A6
:108A300051AF2869EA699042FFF44CAF012000F081
:108A40000BFA00283FF4CAAE5D4A5B491378C1F8BF
:108A5000008043F00103137043E7037C4269C4F5CF
:108A600000770239BFB201FA03F34F4503EB020866
:108A7000DCD94F462EE7B0466BE70139F019334693
:108A800013F8012B01F8012F8342F9D195E70199E1
:108A90005FE705AA00F020FB00283FF4A2AE686A59
:108AA000484B90F82070059A4FF6F871102F08BFC8
:108AB0000B469A42FFF4FCAE05F10C02012100F0D6
:108AC000F1F800283FF48AAE296AEA682B7A11B9D6
:108AD0002A6243F0800343F020032B72686AE8E6C1
:108AE000514636E705F10C02012100F0DBF80028C1
:108AF0003FF474AE296AEB682A7A11B92B6242F00E
:108B0000800242F02002696A2A7291F810804A6954
:108B1000023B03FA08F3B9F5007F03EB0208BFF448
:108B200063AFD1E6EB692F7AA34204D247F0800706
:108B30002F72EC6165E6244B1B68002B3FF461AE9D
:108B4000029B002B3FF45DAE47F080072F7258E682
:108B5000C5E90388002A3FF454AE41464446914695
:108B60008CE60121686900F0BDF900283FF436AEBB
:108B70002B7E104C14EB43143FF430AE6B7A012B78
:108B80009CBFEB69E361104B2A6A62831B686A8CA5
:108B9000A28233B104F1160104F118009847238B27
:108BA00063822B7A03F07F032B7232E62B6AEB6031
:108BB0004BE600BFE40B00204C000020E80D002035
:108BC000E00B0020F8FFFF0FDC0B00202DE9F84F31
:108BD000054690F82000DFF8C480EC69D8F8003032
:108BE00010280E46914617D004EBD114A34217D19A
:108BF000274F284B06F07F0643F826902A7E3B78C5
:108C0000012A43F001033B7081BFAB68224AE4189C
:108C100014600120BDE8F88F04EB11249C4234D08D
:108C20001B4FDFF87CA03A78DAF800007AB9194ACD
:108C30002146FEF761FED0B195F82030C8F800401B
:108C4000102BD6D1F6B2134B23F81690D6E719465F
:108C5000104A0123FEF790FF48B1DFF83CB0DAF884
:108C60000000DBF8001021B900233B70DFE7002093
:108C7000D0E70123074AFEF77FFF0028F7D0002343
:108C8000DAF80000CBF80030EEE7014FDAE700BF7A
:108C9000E00B0020E40B0020E40D00204C0000203D
:108CA000E80D00202DE9F04F176883B0002F5CD04D
:108CB00001374FF0000BC468631C9946ACB30192B6
:108CC000CDF800B0DFF88CA13A46002580468B46EF
:108CD00008E0D31B5B456BD0D8F80C300135AB42B4
:108CE00023D90133914536BF022714463C469C42A6
:108CF0001BD898F82030D8F81C60DAF80010102B38
:108D000019D006EBD416B14219D14E4B04F07F02B4
:108D100053F8223023F07043621C002BD9D0D8F8CE
:108D20000C300135AB421746DBD84FF0000B5846EC
:108D300003B0BDE8F08F06EB14268E4210D0424BF4
:108D4000424A1B781068C3B93E4A3146FEF7D4FD4B
:108D50000028EAD098F82030CAF80060102BD4D14F
:108D6000384BE2B233F81230D6E7A1F1010BBBFA6F
:108D70008BFB07684FEA5B1B9DE70123314AFEF737
:108D8000FBFE0028D1D0314B1868314B196819B956
:108D90002D4A00231370D7E701232A4AFEF7ECFE81
:108DA0000028C2D0294B2A4A186800231360EFE735
:108DB000012CDDF800B04646B7D9D8F80C300133A5
:108DC0009C42B2D86FF0704221464046FFF7FEFE4B
:108DD0000028AAD0A7421AD2013C012CA5D0D8F86D
:108DE0000C300133A3420AD29FE7A74204F1FF34BB
:108DF0000DD0012C99D0F36801339C4295D8621CA8
:108E000021463046FFF7E2FE0028EED18DE7019BB8
:108E1000196861B1012988D9F3680133994284D86E
:108E20003A463046FFF7D2FE00283FF47EAF019B62
:108E30001F60BBF1000F02D00137376077E74FF0BA
:108E4000010B74E7E40B0020E00B0020E80D00208C
:108E5000E40D00204C000020F8B5114D2B780BB923
:108E60000120F8BD0F4B104E1968104A04462346E6
:108E70003068FEF781FE38B1002CF1D00C4F396814
:108E800021B900232B70EBE70020F8BD23463068A2
:108E9000064AFEF771FE0028F6D000233B60F0E79B
:108EA000E00B00204C000020E80D0020E40B002027
:108EB000E40D002010B5084C216809B9012010BD4F
:108EC00003460648064A0068FEF756FE0028F6D01C
:108ED00000232360012010BDE40D0020E80D0020D8
:108EE000E40B00202DE9F8431C4F1D4D3A682B7808
:108EF00082420C4604D11C432C700120BDE8F8834B
:108F0000DFF864800646D8F8000053B9154A3146A8
:108F1000FEF7F2FC10B12B783E60ECE70020BDE8D4
:108F2000F883114601230F4AFEF726FE0028F5D0EC
:108F3000DFF83890D8F80000D9F8001011B90023F4
:108F40002B70E3E70123074AFEF716FE0028E5D061
:108F50000023D8F80000C9F80030F0E74C000020EA
:108F6000E00B0020E40B0020E80D0020E40D0020C1
:108F70002DE9F041154C164D2378064653B94FF4B0
:108F80000072002113480BF06BFF01202E6020704F
:108F9000BDE8F081104F296838680E4A0123FEF7BA
:108FA000EBFD78B1DFF83480D8F800100029E6D066
:108FB0003868084A0123FEF7DFFD18B10023C8F81E
:108FC0000030DCE70020BDE8F08100BFE00B0020AE
:108FD0004C000020E40B0020E80D0020E40D0020F0
:108FE0002DE9F04F83B0DFF8E080DFF8E090DFF8A4
:108FF000E0B0019205460C460027EB680133A3421E
:109000002ED395F82030EE69D8F80010102B17D029
:1090100006EBD416B14217D104F07F042A7C59F82C
:1090200024404FF4007393401F4424F070445B4687
:10903000A342E2D8019B01201F6003B0BDE8F08F7E
:1090400006EB1426B14215D01D4BDFF888A01B7823
:10905000DAF80000CBB94A463146FEF74DFC18B9A4
:10906000002003B0BDE8F08F95F82030C8F800600C
:10907000102BD1D12A7CE4B24FF4007393401F44EB
:1090800039F814404FF6F873D2E701234A46FEF749
:1090900073FD0028E4D00B4BDAF80000196819B909
:1090A000074A00231370D6E701234A46FEF764FD02
:1090B0000028D5D0034ADAF8000000231360EFE758
:1090C000E00B0020E40D00204C000020E40B002009
:1090D000F8FFFF0FE80D00202DE9F84FC3680133BA
:1090E0008B422CD390F82030DFF8B480C669102B67
:1090F0000D4617460446D8F800100ED006EBD516DC
:109100008E420ED105F07F01244B53F8213023F01D
:1091100070433B600120BDE8F88F06EB1526B14295
:1091200016D0DFF880A0DFF880909AF80030D9F8E8
:109130000000ABB9194A3146FEF7DEFB10B900203A
:10914000BDE8F88F94F82030C8F80060102BD9D112
:10915000E9B2124B33F811303B600120BDE8F88FC3
:1091600001230E4AFEF708FD0028E8D0DFF83CB0E6
:10917000D9F80000DBF8001019B900238AF8003094
:10918000D8E70123054AFEF7F7FC0028D7D00023D3
:10919000D9F80000CBF80030EFE700BFE40B002067
:1091A0004C000020E00B0020E80D0020E40D002022
:1091B0002DE9F84F054602230360EB68DFF84C9178
:1091C000DFF84CA1DFF84CB10C4601339C423FD88C
:1091D00095F82020E869D9F80030102A5FD000EB1C
:1091E000D41083425FD104F07F035AF8237027F034
:1091F0007047012C2CD9EB6801339C4228D8102AE7
:10920000EE69D9F8001026D006EBD4168E4226D18E
:10921000DFF8048104F07F0400234AF8243098F832
:1092200000302A7E43F00103012A88F8003003D978
:10923000AB68344A1944116095F82030102B27D0C0
:10924000314B9F4228D8EB683C4601339C42BFD942
:109250000020BDE8F88F06EB14268E424ED0DFF8D2
:10926000B880DBF8000098F8003053BB5246314616
:10927000FEF742FB0028EBD095F82030C9F80060DB
:10928000102B39D1E4B2002331462AF81430C6E756
:109290004FF6F7739F42D6D90120BDE8F88F00EB57
:1092A0001420834208D00021FFF71CFE0028CFD0F5
:1092B00095F82020102A96D1E3B210223AF81370C4
:1092C00097E701235246FEF757FC0028C0D00D4B0C
:1092D000DBF80000196819B9002388F80030C5E7E9
:1092E00001235246FEF748FC0028B1D0054ADBF8BE
:1092F000000000231360EFE731468BE7DFF81880AA
:10930000C0E700BFE40D0020F7FFFF0F4C00002076
:10931000E40B0020E80D0020E00B00202DE9F843CD
:10932000784D064629601446002A60D0042A02D9E6
:109330000020BDE8F883744F0B463968002961D1DD
:10934000724B03EB041292F8AE1111F07F01EFD1D2
:109350001B3403EB0413D3F80A20632AE8D9D3F8AB
:109360000640002CE4D0DFF8A881286898F8003087
:10937000002B56D1654A2146FEF7BEFA0028D7D009
:10938000624A3C60B2F80B30B3F5007F2146CFD182
:10939000137C002BCCD0D0890028C9D0547B002C62
:1093A000C6D00020012C33763471307475D001237F
:1093B000022C337470D00223042C33746CD003233A
:1093C000082C337468D00423102C337464D0052324
:1093D000202C337400F093800623402C33745BD030
:1093E0000723802C337457D009233374A0E7464FEA
:1093F00039680029B7D1454AB2F80B30B3F5007F80
:1094000096D1C5E7DFF8088198F80020CAB9184658
:109410003E4A0021FEF770FA002889D000233B6005
:109420008EE70123394AFEF7A7FB002880D0DFF83A
:10943000E4902868D9F80010A9B9002388F8003012
:1094400098E71846314A0123FEF796FB00283FF4BF
:109450006FAFDFF8C0902B68D9F8001079B90022FF
:1094600088F80020D3E70123284AFEF785FB00286F
:109470003FF45EAF00232868C9F80030DDE71846E6
:10948000224A0123FEF778FB00283FF451AF002267
:109490002B68C9F80020E2E71846D48A04B9546A58
:1094A000B460D789157C0F44F761B2F8113073842A
:1094B0009BB25B0104FB057403F2FF1304EB53231F
:1094C00073617462B2F8134004B9146ACB1A23446E
:1094D000C34040F6F4718B42F3600BD94FF6F47140
:1094E0008B4285BFD36A73621023202386F8203015
:1094F00001201EE70C2386F82030012019E7052003
:10950000CBE700BFE80D00204C000020E40B00205A
:10951000E00B0020E40D0020F0B5437A83B0044650
:1095200023B901228372C372C360427220791A4D3B
:1095300000EB400305EBC30393F9081005F034FC7E
:10954000A07900EB400305EBC30393F9081005F085
:109550002BFC607900EB400305EBC30595F908107F
:1095600005F022FC0D4B20681E681D795F7906F01E
:109570004BF9227AE17920680097002306F006FC77
:1095800020683246294606F01DF9206803B0BDE880
:10959000F04006F02FB900BF48730100740E0020A0
:1095A000F0B585B004AB03E90600837A044633B115
:1095B0009A071ED4DB0702D5124B8289DA60206835
:1095C000029E9DF80C509DF80D7006F01DF9227A50
:1095D000E17920680097002306F0D8FB2068324626
:1095E000294606F0EFF8206805B0BDE8F04006F027
:1095F00001B9EFF31083B3FA83F35B09C37272B658
:10960000DDE700BF00280040837A53B19A0703D5F5
:10961000C37A33B162B67047DB0702D5014B82894A
:109620001A61704700280040006811B1002106F05F
:10963000F7B8012106F0F4B8032913D8DFE801F0E8
:109640000E0A06020068022106F02AB9006800210D
:1096500006F026B90068032106F022B9006801214E
:1096600006F01EB9704700BF006809B106F0F4B8F3
:10967000012106F0F1B800BF006806F035B900BF5F
:10968000F8B51B4E1B4B1C4A1C4D1A60002406F1FA
:1096900010005C711C7100F037F806F1240000F036
:1096A00033F8174B336044F240224123032705F17E
:1096B0001000B280B371B463F46386F840407472F2
:1096C000F471377200F020F805F1240000F01CF866
:1096D0000C492F7245F250225123C5E90E4485F8FA
:1096E00040406C72EC712960AA80AB71F8BD00BF7C
:1096F000EC0D0020740E002000093D00300E00200B
:10970000641600202816002030B40022FF25032410
:109710000570447142708270C27002718260C260D2
:10972000026130BC704700BF10B52C4C23684BB9A8
:10973000EFF31082002A42D172B6BFF35F8F284B3D
:1097400001221A702368274A274901332360138CAA
:1097500003F01F0351F8230090B102EB031393F8B9
:109760004E30DBB213F0010118D0037802EB031284
:10977000012382F84E3083680422427003B1984777
:10978000236853B12368013B236023682BB9144B32
:109790001B7813B1BFF35F8F62B610BD13F0020FD9
:1097A00010D15B07ECD5037802EB0312042382F897
:1097B0004E30036907224270002BE0D1E0E7084AEF
:1097C0001370BFE7037802EB0312022382F84E30D6
:1097D000C3684170002BD2D1D2E700BF800E0020B9
:1097E0007C0E002000A00041840E0020704700BFC6
:1097F00038B50B4C20460D4603F006FF20463821B5
:1098000003F074FF2046802103F072FE29462046B3
:1098100003F06EFE204603F073FF012038BD00BF49
:10982000040F00202DE9F04307463A4885B006466C
:1098300089463821904603F059FF0021304603F055
:1098400057FE304603F05CFF3821304603F04EFFF0
:1098500020223821304603F0F9FE0DF1FF340DF1DE
:109860000F05304603F01EFE04F8010FA542F8D1A3
:10987000284803F045FF9DF80230022B34D83B7096
:10988000002B3AD0022B3FD09DF805109DF809001F
:109890009DF806509DF80B209DF803309DF804605C
:1098A00000F00F0401F00F0045EA00259DF80A00C2
:1098B000FD800911798140EA04209DF80C10B880E0
:1098C00003F00F0302F00F0046EA0323121141EAEE
:1098D00000217B80BA813981A9F80030FB88A8F883
:1098E000003005B0BDE8F08300233B70A8F80030DD
:1098F000A9F800303B78002BC4D1A8F80030A9F8B3
:10990000003005B0BDE8F0833221034805F024FBA8
:10991000BAE700BF040F00207816002010B582B00F
:1099200004460DF10602084601A9FFF77BFFBDF9C9
:109930000430BDF906202380204601236280A380E5
:1099400002B010BD38B5114C3821204603F0CEFED0
:109950000221204603F0CCFD204603F0D1FE204634
:10996000382103F0C3FE01223821204603F06EFEA9
:10997000204603F097FD0546204603F0C1FE681E11
:10998000C0B201288CBF0020012038BD040F002088
:10999000002070472DE9F04F83B01E46BDF93050CE
:1099A000BDF834A0AB1A002B1746A6EB0102B8BFD6
:1099B0005B42002AB8BF5242934280466BDCAE46FF
:1099C0003C46AC46384635460F46764621469946D3
:1099D000AF424FDD7C1BA4B2A0EB0C0000944FF60D
:1099E000FF7C24B204EBD47480EAE079B142C8BFB2
:1099F0004FF0010CA9EBE0796410CDF804C093425C
:109A00001FFA89F9BB461ADCD8F8002053461769BB
:109A10002946A4EB090432464046B847A3B21CB21B
:109A20000135002C2DB205DA019A1644009AD4189B
:109A300036B224B2AB45E7DA03B0BDE8F08FD8F810
:109A4000002053461769A4EB09042A4631464046D4
:109A5000B847A3B21CB20135002C2DB205DA019A29
:109A60001644009A9C1836B224B2AB45E7DA03B02C
:109A7000BDE8F08FE81B80B204B204EBD474B142AD
:109A800000904FEA640428460E463D4607DA01215D
:109A900001910746B3E7B4460846914698E74FF66A
:109AA000FF7101910746AAE7704700BF2DE9F04F0B
:109AB0008BB00D4659180746A942BDF950000391D5
:109AC00004920990BDF854803DDD431E134419B241
:109AD0008A4213461A46C6BF99460A468946A9EBEA
